:060000000C94C2000C94F8
:1000060000000C9400000C9400000C9400000C946A
:1000160000000C9400000C9400000C9400000C945A
:1000260000000C9400000C9400000C9400000C944A
:1000360000000C9400000C9400000C94F2000C9448
:1000460000000C9400000C9400000C9400000C942A
:1000560000000C9400000C9400000C9400000C941A
:1000660000000C9400000C9400000C9400000C940A
:1000760000000C9400000C9400000C9400000C94FA
:1000860000000C9400001027E80364000A00010039
:100096000010000110000100020000000100020033
:1000A6000300040005000600070008004D617420E7
:1000B6006B6861752064756E672100446F69206DF9
:1000C6006174206B6861753A00592F4E004E686165
:1000D60070204D4B206D6F693A004D6174206B683E
:1000E6006175206461206C757521005375206475F7
:1000F6006E67204D4B20637521004E686170206D40
:100106006174206B6861753A005361692120436F01
:100116006E202564206C616E004269206B686F61F9
:1001260021003130380080C0020004009E0011001A
:100136008805A0000F000005B2000E000F05C100E3
:1001460004001D05CF000D002105D30011002E056A
:10015600E0000F003F05F1000F004E050001090009
:100166005D051F010F0066050001040075052801E5
:100176000F00790500010200A6052C010000F89485
:10018600EE27ECBBF1E0F5BFE5BFE0936C008DE038
:10019600A2E0BB27ED938A95E9F780E090E1A0E025
:1001A600B1E0ED930197E9F7EEE2F1E085919591E3
:1001B600009761F0A591B59105901590BF01F001EA
:1001C60005900D920197E1F7FB01F0CF8BBFEFEFA2
:1001D600EDBFE0E1EEBFC0E0D5E00C9432020A923A
:1001E6001A929A93AA93BA93EA93FA93EFB7EA9379
:1001F600E6E0E2BFE091A205F091A3053097B9F0E1
:10020600E091A405F091A5053196E093A405F0933D
:10021600A5050E94F804E83EA3E0FA0711F4949AB3
:1002260096980E94F804309711F49498969AE9915A
:10023600EFBFF991E991B991A99199911990099016
:10024600189522970E94DD0540E050E0E0E0EA9331
:10025600A1E00E9494024330E0E05E070CF05FC02C
:1002660020E030E02330E0E03E070CF04EC0022EE6
:10027600032A19F4EDEFE0936200E1E0F0E0E21703
:10028600F30719F4E7EFE0936200E2E0F0E0E2172B
:10029600F30719F4EFEDE093620000E010E003309D
:1002A600E0E01E077CF500240016010611F4029B0F
:1002B6000FC0E1E0F0E0E017F10711F4049B08C07D
:1002C600E2E0F0E0E017F10711F4009B01C017C06F
:1002D600FA01E656FA4FBF01A6E0A09FF001A19FE2
:1002E600F00DE857FA4FDF01F901EE0FFF1FAE0FD1
:1002F600BF1FEC91E05DDB010E94010503C00F5FAB
:100306001F4FCDCF2F5F3F4FADCFB39907C0AAE99F
:10031600B5E0A40FB51FE9E30E9401059CCFE0E01C
:10032600E0939D050E94E4052896089507D1A0E074
:10033600B5E00E941F05E2E0F0E02F01FFD0AFE03C
:10034600B5E01DD1E0E0EA93A1E0EBD0ADE1B5E088
:100356000E941F05B29913C0F1D0A1E2B5E00E9438
:1003660025050E942E050E94C304E8D0AEE2B5E042
:100376000E941F050E9435050E94AA0409C0B09973
:1003860006C0DCD0AFE3B5E00E941F0501C0E2CF96
:10039600D5D0AEE4B5E0F3D008956497CFD0F2019E
:1003A60031972F01FE01FA93EA93EFE0F1E0FA9319
:1003B600EA93F2010E948D050E94BB0584E00E942B
:1003C60076042896DE010E941F0500240414050405
:1003D600D4F0B4D0ADE5B5E0D2D0AB9AE1E0F0E030
:1003E600E093A205F093A305E0E0E0BFE3E0E3BFFE
:1003F600E6E0E2BFE0E0E1BFE1E0E7BFE0E0E09396
:100406007D007894FFCF9AD0A6E6B5E0B8D00C94DC
:100416007404BA93AA93AA81BB81EC91E03031F0BF
:100426000C90A881B981EC91E01509F00BC0EA8126
:10043600FB813196EA83FB83E881F9813196E88373
:10044600F983E9CFAA81BB810C901124A881B981D7
:10045600AC91BB27F001EA1BFB0B2496089505E738
:1004660015E0EAEEE0936100E5E1E0936200BB98F7
:10047600BA98B898E8B3ED60E8BBA39AE1B3E06533
:10048600E1BBA0E18DD01A930A930E942E050E942B
:10049600C3040E9435050E94AA04E5E0E3BFE6E036
:1004A600E2BF4CD0A9E7B5E00E942505AEE9B5E06C
:1004B600B0DF309711F43ADF01C06FDFF2CFFFCF24
:1004C600AA93E881E07111F0DB9A01C0DB98E8811C
:1004D600E07211F0DC9A01C0DC98E881E07411F05A
:1004E600DD9A01C0DD98E881E07811F0DE9A01C05E
:1004F600DE988DE08A95F1F7DA9A8DE08A95F1F724
:10050600DA988DE08A95F1F778C0AA93A881D8DFAA
:10051600E881E295E883A881D3DF85E88A95F1F73B
:100526006CC0AA93E881F0E0EA55FA4FE081A98110
:10053600AE0FEBDF7980688022960895A2E00E94D4
:100546003A05ACE0E2DFA1E00E943A05E0E06E2E5B
:100556007E2E0895AA93A881AA3011F0791448F046
:10056600E0E0EA936394A62DDCDFA881AA3009F4C3
:1005760044C07394D89AA881C8DFD8983EC0BA936D
:10058600AA931A93A981BA81ED91A983BA831E2FE2
:10059600E03019F0A12FDEDFF5CF188123960895FC
:1005A600AA93D39AD49AD59AD69AD29AD09AD19A0D
:1005B600DA98D898D9989880E881E058E093A80509
:1005C600E881E054E093A905A4E1B0E00E947B0530
:1005D6000E9440050E9440050E944005A0E270DF8F
:1005E60088EC90E00197F1F7A8E28FDFA4E08DDFB9
:1005F600A5E88BDFA6E089DFA1DF21960895BA93EF
:10060600AA931A930A93AA81BB8112960E94B305F4
:10061600309759F1AA81BB8114960E94B3058F01C8
:10062600309761F00230E0E01E0798F0F80131974C
:100636008F01AA81BB811496ED93FC93AA81BB819D
:100646001296ED91FD913196FE93EE933197AC8122
:10065600A083AA81BB810E94B305FF232AF0ED91F6
:10066600FD913196FE93EE9306C0AA81BB81EFEF12
:10067600FFEFED93FC931981088125960895BA93AF
:10068600AA9326970E94DD0510E0AC85BD85E0E0C3
:10069600F0E0ED93FC93EA89FB893196EA8BFB8BBC
:1006A6003197E4912E2FE03009F415C1E12FE030A7
:1006B60039F4253211F411E002C00E9448050AC13E
:1006C600E130A9F4253219F40E94480502C112E06E
:1006D60040E000E02D3211F401E0FCC02B3211F4B1
:1006E6004BE2F8C0203211F440E2F4C002C0E2301E
:1006F60039F450E013E0203311F40068EBC003C076
:10070600E33009F0E7C0203310F02A3308F007C0C1
:10071600AAE05A9F502DE22FE0535E0FDBC0E22F76
:10072600E33649F40E944F05E889F989A481AA9322
:100736000E945505CEC0E33741F40E944F050E9442
:100746005B050E94DF041E2F0AC0E03761F40E9499
:100756004F050E945B050E94EB041E2F0860026095
:100766000F7730E034C0E43611F0E93611F4046056
:1007760002C0E53731F4ECE8F0E0EE83FF8315E0E4
:100786000CC0E83511F4086003C0E83709F0A1C0D1
:10079600E6E9F0E0EE83FF8314E002FF14C00E9456
:1007A6004F050E946505AB85AA233AF4EA85FB85C9
:1007B6000E948905EA87FB874DE2403011F01F5FF2
:1007C60001C00B7F04C00E944F050E94650500FD15
:1007D60011C0151778F407FF08C002FF04C00B7F8D
:1007E600242F115001C020E301C020E20E944805D9
:1007F6005150EFCF312F01FF17C03030A1F003FF6A
:1008060006C0EE81FF812591EE83FF8305C0AE8190
:10081600BF812D91AE83BF830E944805503009F0F9
:1008260051503150EACF4BC020E3EE81FF810E9448
:10083600B705E887F987EE81FF813296EE83FF835D
:10084600E885F985AA85BB85AE17BF0750F02F5FEF
:10085600A885B985EA85FB85EA1BFB0BEA87FB873A
:10086600EFCF2A3328F003FF02C0295F01C0295DBC
:1008760004FD1AC0213320F4A885B985119709F41F
:1008860009C0531710F000FF01C013C020E207FF94
:100896000BC020E3006102FF07C00B7F4A930E9452
:1008A6005505503009F051500E944805503009F066
:1008B60051503150A885B985129708F0B5CF00FF81
:1008C60008C0503031F05150E0E2EA930E945505DD
:1008D600F8CF10E0E0CEAC85BD850E94B3050E943E
:1008E600E40564960895FF92F82E26970E94DF0588
:1008F6000E946D05309719F4EFEFFFEF23C0DE017C
:1009060016960E9485058D010E946D05EE83FF8374
:10091600E0E0E887E987DE011A960E9485050E94D5
:10092600B305FA93EA931A930A93E2E0F3E0FA9393
:10093600EA93DE011A96A3DE9F01AE81BF81E0E055
:10094600EC93F9010E94E6052A96FF900895BA9362
:10095600AA930E94DF05088519852E813F810E9492
:10096600740569F01F930F930F5F1F4FD9012F5F17
:100976003F4F0E94C005AF91BF91EC93F0CF18C0D6
:10098600BA93AA930E94DF050E811F8128853985B7
:100996000E94740569F01F930F930F5F1F4FD901D3
:1009A6002F5F3F4FEC91AF91BF910E94CC05F0CFE6
:1009B6000E94E6052A960895BA93AA93A991B99139
:1009C600EE27FF276D91662311F03196FBCF089530
:1009D600BA93AA93AA27BB27E991F991059000201B
:1009E60011F01196FBCFFD010895A091A405B091D9
:1009F600A505E0EDF7E00E94A5050895EC93AAE9A8
:100A0600B5E0A40FB51FEC91EE83E0E0EF83AE8175
:100A16000E94AD02ACE2B1E00E947B054A93A1E0E0
:100A26000E949402AAE20E94AD02A4EFB1E00E94E5
:100A36007B054F5F5F4F08950E94C202A0EDB7E0AD
:100A46000C947B050E94C2020E942401EAE9F5E0AB
:100A5600FA93EA930895E0E0F0E0FA93EA93A4E0CB
:100A6600B0E00895EEE9F5E0FA93EA93F4CF0E9438
:100A76008802A3E0B0E00C947B05A0E30E94630229
:100A860088EC90E00197F1F708952A93AD85BE852D
:100A9600EF85F88909950895E889F9893497E88BEF
:100AA600F98B0895AD85BE85EF85F889099508957A
:100AB600A889B98914960E94B305EE83FF83AE8197
:100AC600BF810895A889B98914960E94B305EA875B
:100AD600FB870895DE011C960E9485050E94B305DA
:100AE6000895EC81FD813197EC83FD83319608955D
:100AF600109639F080ED97E00197F1F7A8951197D8
:100B0600C9F708950024AF0DB01D0895F195E1953C
:100B1600F04008956F2F660F660B762F0895002418
:100B2600112490E1AA0FBB1F001C111C0E1A1F0AEC
:100B360018F40E0E1F1E01C0A1609A9599F7FD01CB
:100B4600D0010895E894B7FF04C0A095B09511961A
:100B56006894F7FDDBDFE3DFFD010EF4D7DF0895D0
:100B6600ED91FC91119708950590F491E02D08956B
:100B76007A936A93FA93EA930895E199FECFFF93E5
:100B8600FFB7F894AEBBBFBBE09AEDB3FFBFFF91D2
:100B96000895E19B02C0A895FCCF9FB7F894AEBB21
:100BA600BFBBE09A8DB3E81719F0EDBBE29AE19A64
:100BB6009FBF08955A934A933A932A931A930A9396
:100BC60008955D814C813B812A81198108810895B0
:00000001FF
