:040000000C946B00F1
:100004000C9400000C9400000C9400000C9400006C
:100014000C9400000C9400000C9400000C9400005C
:100024000C9400000C9400000C9400000C9400004C
:100034000C9400000C9400000C9400000C9400003C
:100044000C9400000C9400000C9400000C9400002C
:100054000C9400000C9400000C9400000C9400001C
:100064000C9400000C9400000C9400000C9400000C
:100074000C9400000C9400000C9400000C940000FC
:100084000C9400000C9400001027E80364000A009C
:1000940001000010000110000100000044414E471F
:1000A4002053415900456E6400537461727400001A
:1000B40080C0020004009E0009000005A0000400A6
:1000C4000905A90006000D05AD0002001305B400E2
:1000D4000000F894EE27ECBBF1E0F5BFE5BFE09338
:1000E4006C008DE0A2E0BB27ED938A95E9F780E0F0
:1000F40090E1A0E0B1E0ED930197E9F7E6EBF0E0E1
:1001040085919591009761F0A591B5910590159011
:10011400BF01F00105900D920197E1F7FB01F0CFCB
:100124008BBFEFEFEDBFE0E1EEBFC0E0D5E00C9494
:100134000601BA93AA930E946C01E0E0EA93A0E05E
:100144000E945F01A881B9810E948D010C946A010B
:10015400BA93AA93A881EFEFEA1BE1BF0C946A015A
:10016400BA93AA930E94180220E030E0042C0528D8
:1001740021F4EFE3F0E02F0121C0AC81BD8154975D
:1001840041F4D201E5E0F0E00E940502E40DF51D22
:1001940009C0AC81BD81A436E0E0BE0721F4F201C0
:1001A400EE0FFF1F8F010030E1E01E0734F0EFEF88
:1001B400F0E02F012F5F3F4F01C02801D201C8DFBB
:1001C400F9010E941D02269608951A930A9300E0ED
:1001D40010E0A0E0B5E0ADDFA4E1B0E0C1DF8F0145
:1001E400E2E0F0E0E017F10729F0AAEFB0E00E94A6
:1001F400DF01EFCF442455240E94CD01A9E0B5E0EE
:1002040098DF09911991089511E0E0E1E7BBE4E07A
:10021400E8BBE0E8E1BBE2BBE0E0E0BFE4E7E3BF6A
:10022400E0E0E2BF0E94CD01A0E10E949E01B299EC
:1002340004C0E12F0E94ED011E2F113031F40E9401
:10024400CD01ADE0B5E075DF01C0BFDFA2E3B0E0F2
:100254000E94DF01ECCFFFCFAA93E881E07111F097
:10026400DB9A01C0DB98E881E07211F0DC9A01C0EE
:10027400DC98E881E07411F0DD9A01C0DD98E88132
:10028400E07811F0DE9A01C0DE988DE08A95F1F7EE
:10029400DA9A8DE08A95F1F7DA988DE08A95F1F78C
:1002A40078C0AA93A881D8DFE881E295E883A88181
:1002B400D3DF85E88A95F1F76CC0AA93E881F0E072
:1002C400ED5EFA4FE081A981AE0FEBDF79806880A3
:1002D40022960895A2E00E94D101ACE0E2DFA1E001
:1002E4000E94D101E0E06E2E7E2E0895AA93A8818B
:1002F400AA3011F0791448F0E0E0EA936394A62D53
:10030400DCDFA881AA3009F444C07394D89AA88188
:10031400C8DFD8983EC0BA93AA931A93A981BA8128
:10032400ED91A983BA831E2FE03019F0A12FDEDFEF
:10033400F5CF188123960895AA93D39AD49AD59A7F
:10034400D69AD29AD09AD19ADA98D898D99898808D
:10035400E881E058E0931505E881E054E093160540
:10036400A4E1B0E00E94DF010E94D7010E94D701FE
:100374000E94D701A0E270DF88EC90E00197F1F7CA
:10038400A8E28FDFA4E08DDFA5E88BDFA6E089DF9C
:10039400A1DF21960895A0E0B0E00C94AA000E9489
:1003A4005301A3E0B0E00C94DF01A0E30E942E010E
:1003B40088EC90E00197F1F70895109639F080EDFC
:1003C40097E00197F1F7A8951197C9F70895F1956A
:1003D400E195F0400895EE23E1E009F0EE27089559
:1003E4000024112490E1AA0FBB1F001C111C0E1A3B
:1003F4001F0A18F40E0E1F1E01C0A1609A9599F7EA
:10040400FD01D001089504D0EBDF0EF4E0DF089580
:10041400E894F7FF02C0DBDF6894B7FF06C0A0953D
:10042400B095119600F8039400FA08953A932A932C
:100434001A930A9308953B812A81198108810895AA
:00000001FF
