:0C0000000C94CD010C9400000C94000046
:10000C000C9400000C9400000C9400000C94000064
:10001C000C9400000C9400000C9400000C94000054
:10002C000C9400000C9400000C9400000C94000044
:10003C000C9400000C94FD010C9400000C94000036
:10004C000C9400000C9400000C9400000C94000024
:10005C000C9400000C9400000C9400000C94000014
:10006C000C9400000C9400000C9400000C94000004
:10007C000C9400000C9400000C9400000C940000F4
:10008C0005072060000000000000005F0000000772
:10009C00000700147F147F14242A7F2A12231308CC
:1000AC00646236495522500005030000001C2241B1
:1000BC00000041221C00082A1C2A0808083E0808D7
:1000CC0000503000000808080808003030000020FC
:1000DC00100804023E5149453E00427F40004261F7
:1000EC005149462141454B311814127F1027454583
:1000FC0045393C4A4949300171090503364949499A
:10010C0036064949291E00363600000056360000D6
:10011C00000814224114141414144122140800026F
:10012C0001510906324979413E7E1111117E7F49F8
:10013C004949363E414141227F4141221C7F494978
:10014C0049417F090901013E414151327F080808AC
:10015C007F00417F41002040413F017F0814224134
:10016C007F404040407F0204027F7F0408107F3EA6
:10017C004141413E7F090909063E4151215E7F09FB
:10018C00192946464949493101017F01013F404047
:10019C00403F1F2040201F7F2018207F631408142D
:1001AC00630304780403615149454300007F4141D6
:1001BC00020408102041417F0000040201020440A7
:1001CC0040404040000102040020545454787F48C1
:1001DC004444383844444420384444487F385454C8
:1001EC005418087E090102081454543C7F08040476
:1001FC007800447D40002040443D00007F1028449E
:10020C0000417F40007C041804787C080404783892
:10021C00444444387C14141408081414187C7C08C6
:10022C000404084854545420043F4440203C4040AB
:10023C00207C1C2040201C3C4030403C4428102892
:10024C00440C5050503C4464544C4400083641001B
:10025C0000007F0000004136080002010204027F0A
:10026C004141417F000103070F1F3F7FFF00102713
:10027C00E80364000A0001000010000110000100F6
:10028C00020000000100020003000400050006004B
:10029C0007000800202020202020202020202020C3
:1002AC002020202020202020002A004D6174206B6B
:1002BC006861752064756E672100446F69206D61FB
:1002CC0074206B6861753A20592F4E004E6861702E
:1002DC00204D4B206D6F693A004D4B206461206CB2
:1002EC007575210053752064756E67204D4B206326
:1002FC007521004E686170206D6174206B686175AA
:10030C003A005361692120436F6E202564206C6193
:10031C006E004269206B686F61210031303800003B
:10032C0001002D4E414E00494E46000002000400D3
:10033C008C021100B8058E0215000005A002020007
:10034C001505B50202001705B5020F001905B70215
:10035C0012002805C6020D003A05D8020B0047050D
:10036C00E5020F005205F0020F006105FF020900C3
:10037C0070051E030F007905FF0204008805270392
:10038C000F008C05FF020100D0072C030000F8942D
:10039C00EE27ECBBF1E0F5BFE5BFE0936C008DE020
:1003AC00A2E0BB27ED938A95E9F780E090E1A0E00D
:1003BC00B1E0ED930197E9F7E8E3F3E085919591CE
:1003CC00009761F0A591B59105901590BF01F001D2
:1003DC0005900D920197E1F7FB01F0CF8BBFEFEF8A
:1003EC00EDBFE0E1EEBFC0E0D5E00C9453030A9200
:1003FC001A929A93AA93BA93EA93FA93EFB7EA9361
:10040C00E6E0E2BFE091D205F091D3053097B9F068
:10041C00E091D405F091D5053196E093D405F09395
:10042C00D5050E948A0AE83EA3E0FA0711F4949AD3
:10043C0096980E948A0A309711F49498969AE991AA
:10044C00EFBFF991E991B991A991999119900990FE
:10045C00189522970E94100C40E050E0E0E0EA93DF
:10046C00EEE1EA93A0E0B5E00E94F6074330E0E04D
:10047C005E070CF067C020E030E02330E0E03E0780
:10048C000CF052C0022E032A19F4EDEFE093620037
:10049C00E1E0F0E0E217F30719F4E7EFE093620014
:1004AC00E2E0F0E0E217F30719F4EFEDE0936200FD
:1004BC0000E010E00330E0E01E079CF5002400167D
:1004CC00010611F4029B0FC0E1E0F0E0E017F10728
:1004DC0011F4049B08C0E2E0F0E0E017F10711F41E
:1004EC00009B01C01BC0FA01E653FA4FBF01A6E006
:1004FC00A09FF001A19FF00DE854FA4FDF01F90124
:10050C00EE0FFF1FAE0FBF1FEC91E05DDB010E94F1
:10051C00930AA5E1B5E00E94AF0A03C00F5F1F4F1D
:10052C00C9CF2F5F3F4FA9CFB3990BC0AAECB5E051
:10053C00A40FB51FE9E30E94930AA7E1B5E00E945E
:10054C00AF0A94CFE0E0E093CD050C94F2070E9443
:10055C00B80AA9E1B5E00E94BF0AE2E0F0E02F0181
:10056C000E94B80AA8E2B5E00E94BF0AB29917C06F
:10057C000E94B80AAAE3B5E00E94F6070E94C50AD9
:10058C000E94CC0A0E94D6090E94B80AA7E4B5E0E2
:10059C000E94BF0A0E94D30A0E94BF090AC0B099E8
:1005AC0007C00E94B80AA2E5B5E00E94BF0A01C0CC
:1005BC00DDCF0E94D80AA1E6B5E00E94F6070895A7
:1005CC006497C9D1F20131972F01FE01FA93EA9396
:1005DC00EEE0F3E0FA93EA93F2010E94B40B0E946E
:1005EC00EA0B84E00E948B092896E0E0EA93E4E1B0
:1005FC00EA93DE0112960E94BF0A0024041405043B
:10060C00FCF0A9D1EAE0EA93E4E1EA93A0E7B5E0D3
:10061C000E94F607AB9AE1E0F0E0E093D205F0938C
:10062C00D305E0E0E0BFE3E0E3BFE6E0E2BFE0E0FB
:10063C00E1BFE1E0E7BFE0E0E0937D007894FFCF1D
:10064C000E94D80AA9E7B5E00E94F60764960895BF
:10065C00BA93AA93AA81BB81EC91E03031F00C9053
:10066C00A881B981EC91E01509F00BC0EA81FB81FE
:10067C003196EA83FB83E881F9813196E883F9832B
:10068C00E9CFAA81BB810C901124A881B981AC91CE
:10069C00BB27F001EA1BFB0B7AC1289708E815E091
:1006AC00ECE8F0E0E883F983EE81EC7FEE83E37E07
:1006BC00E061EE83EF81E078E264EF83DE01A6D0A7
:1006CC00EAEEE0936100E5E1E0936200E0E0E7BB75
:1006DC00EDE0E8BBA39A8C9A8E9A1A930A930E9427
:1006EC00CC0A0E94D6090E94D30A0E94BF09E5E0F9
:1006FC00E3BFE6E0E2BF0E94D80AACE8B5E00E9496
:10070C00F6070E94C50AAEECB5E0A2DF309711F4F3
:10071C001EDF01C055DFF5CFFFCF0895AA931A93C2
:10072C00E0916500EF7EE093650018E0F6DFE9816B
:10073C00E07821F0E0916500E26003C0E091650093
:10074C00ED7FE0936500E981EE0FE983E6DFE09150
:10075C006500E460E0936500E0DFE0916500EB7F0D
:10076C00E0936500115011F7E0916500E061E093B2
:10077C006500188142C0AA93E0916500EE7FE0937A
:10078C006500A881CBDFE5C0AA93E0916500E1602C
:10079C00E0936500A881C2DFDCC0AA931A93E981BB
:1007AC00E695E695E6951E2FE4E5E19FF001DF0165
:1007BC00EA81F0E0EA0FFB1FE093D605F093D70532
:1007CC00E12F188123960895AA93E981E068AE2F52
:1007DC00D2DFE981EA93A981E0DFE064AE2FCBDFC1
:1007EC000CC0AA93E981EA93A981EEDFE091D605CA
:1007FC00F091D705E852FA4FE08122960895AA931A
:10080C000E94DF0AA881A083BFDFA3C00E94EA0A6E
:10081C00E0916400E0610E94EF0AE061E093650002
:10082C00E0916400E4600E94EF0AEB7FE0936500C6
:10083C00E0916400E260E0936400E0916400E160A8
:10084C00E0936400E0916400E8600E94EF0AE77FA7
:10085C00E0936500AAE0B0E00E94920BE091650085
:10086C00E860E0936500EC81FD81309721F1E68131
:10087C00E3701E2FEC81FD81E681E695E695E7702D
:10088C000E2FEC81FD81E781EF773E2FAC81BD818E
:10089C000E94E20BE0939F05F093A00512960E9434
:1008AC00E20BE093B405F093B505AC81BD811496D1
:1008BC000E94E20B0DC010E003E032E3E0E0F0E058
:1008CC00E0939F05F093A005E093B405F093B50574
:1008DC00E093B605F093B705A1E24DDFE12FE4609C
:1008EC00AE2F49DFE02FE061AE2F45DFE32FE0684C
:1008FC00AE2F41DFA0E23FDFA1E022D0E1E0E093A8
:10090C009B05E0E0E0939C05E1E0E093A105E0931A
:10091C00A205E093A305EFEFE093A405E1E0E093DB
:10092C00AB05ECEAF5E0FA93EA93EFEFEA93A8E073
:10093C00B0E00E94F0090FD0E1E00E94190C60C0F9
:10094C00AA93E881E03011F0ECE001C0E8E0AE2FB2
:10095C0012DF219608950E94120C30E0E0919C0564
:10096C00E03009F03FEFE0E0EA93A0E02DDF08EF84
:10097C0011E0F80101501040309719F0A32F3FDF20
:10098C00F8CFE0E0EA93A0E040D30E94190C249643
:10099C000895AA931A93ED81EA93AD8122DF1E2F5D
:1009AC00E981E73011F0E83039F4EB81EA93AA8160
:1009BC000E94240AEB8308C0E33021F4EB81E0951C
:1009CC00EB8302C0E03021F4EA81E0951E2302C0E3
:1009DC00E23029F4EA81AB81EA231E2B0EC0E13010
:1009EC0029F4EA81AB81EA231E2707C0E43029F4FD
:1009FC00EA81E095AB81EA2B1E23A12F00DF188141
:100A0C0026960895AA9323970E94100CA889A435C2
:100A1C0048F4AF85A03330F4AE85A03019F0AD8525
:100A2C00A03009F4CCC1EE85E887A889BB27EE85F8
:100A3C00F0E0AE0FBF1FA535E0E0BE0720F0A8899F
:100A4C00E4E5EA1BEE872D85AF85BB27ED85F0E04D
:100A5C00AE0FBF1FD19720F0AF85E0E3EA1BED8707
:100A6C00A985A63009F05BC0EC85E13009F4A7C17B
:100A7C00E33039F4E091B605F091B705309709F4FD
:100A8C009EC10885ED85E695E695E6953E2FE22F0D
:100A9C00E77019F4AD852A17E9F0A02FBB27E32FD7
:100AAC00F0E00E94B90BAA85BB850E94F40A26953A
:100ABC0026952695532F5F935F5FE22FAF91EA1730
:100ACC0048F0102FE12F1150E03019F00E94F90A74
:100ADC00F9CFF1CFAE850A1711F1EE85AA85BB854A
:100AEC00F0E00E94F40AED85E77009F03F5F20E02A
:100AFC002F932F5FE32FAF91AE1788F41E851F93B2
:100B0C001F5FE02FAF91AE1718F40E94F90AF7CFD0
:100B1C00EE85AE81BF81F0E00E94F40AE9CFEF854B
:100B2C00E7703E2FED85E03009F449C1EA85FB857D
:100B3C00EE83FF8310E00889303009F063C0AD8587
:100B4C00A83008F45AC0E985E03011F0E33009F41C
:100B5C0002C0E73009F402C0E83009F402C0E93001
:100B6C0009F402C0EA3021F40A93A8892DDE04C0EE
:100B7C00E63011F40E94060B1F931F5FEE85AF91B8
:100B8C00AE17A0F5A985A63051F40E940A0BFA9372
:100B9C00EA930E94DF0AA0810E946B0A26C0E985B5
:100BAC00E93011F450E00EC0EA3011F45FEF0AC0E6
:100BBC000E940A0B0E94130B5E2FE985E73011F09F
:100BCC00E83021F40E94190B5E2F06C0E33011F4BB
:100BDC00509502C0E03019F4A52FD6DD06C00E9456
:100BEC001D0BEFEFEA93AD85D4DEC6CFEF85E85F42
:100BFC00EF87ED85E850ED87D9C05D8520E0E0E01A
:100C0C00ED877EC0E32FAD85AE0FA93020F42D8586
:100C1C00E0E0ED8703C0E8E0E31B2E2F3A93A22F10
:100C2C000E94190A4E2FE985E63011F50E94060B39
:100C3C001F931F5FEE85AF91AE17C8F40E94DF0AB9
:100C4C00E081E423AE2FE32F0E94AC0B0E94230B18
:100C5C00E32FA42F0E94AC0BE095E1215E2B0E94A8
:100C6C000A0BFA93EA93A52F0E946B0AE1CF2CC0D2
:100C7C00E93011F450E003C0EA30A9F45FEF0E94B0
:100C8C00190BAE2FE32F0E94A40B5E2F1F931F5F37
:100C9C00EE85AF91AE1730F40E941D0B4A93A0E085
:100CAC0078DEF4CF11C01F931F5FEE85AF91AE17A6
:100CBC0058F40E942E0BAE2FE32F0E94A40BEA9344
:100CCC004A93AD8566DEEFCFED85E03009F477C051
:100CDC00AD85A83028F4ED85E21B5E2FE0E003C063
:100CEC00532FED85E850ED8710E0EF85E85FEF8737
:100CFC00E8E0E31B2E2F0889EA85FB85EE83FF8352
:100D0C00E52FF0E0E059FD4F4491E985E63011F50F
:100D1C000E94060B1F931F5FEE85AF91AE17C8F4B0
:100D2C000E94DF0AE081E423AE2FE22F0E94A40B85
:100D3C000E94230BE22FA42F0E94A40BE095E1212B
:100D4C005E2B0E940A0BFA93EA93A52F0E946B0A62
:100D5C00E1CF2CC0E93011F450E003C0EA30A9F423
:100D6C005FEF0E94190BAE2FE22F0E94AC0B5E2F8F
:100D7C001F931F5FEE85AF91AE1730F40E941D0BD1
:100D8C004A93A0E006DEF4CF11C01F931F5FEE85DF
:100D9C00AF91AE1758F40E942E0BAE2FE22F0E948B
:100DAC00AC0BEA934A93AD85F4DDEFCFE885AA85C9
:100DBC00BB85F0E0EA0FFB1FEA87FB87B3CE0E94EE
:100DCC00170C619608950E943B0B24F0E0E0F0E0D4
:100DDC000C94220AA881B981A435E0E0BE0724F066
:100DEC00E3E5F0E00C94220AE881F9810C94220AE4
:100DFC000E943B0B24F0E0E0F0E00C94220AA88166
:100E0C00B981D09724F0EFE2F0E00C94220AE8814B
:100E1C00F9810C94220ABA93AA9323970E94420B4D
:100E2C008F01002E012A19F4E0E0F0E05FC00E946F
:100E3C00490B0F820E94490B0E820E94490B0886B7
:100E4C00EB85A885EA1718F4E0E0F0E04FC0F80154
:100E5C000F5F1F4F5491A885BB27EE27A50FBE1F10
:100E6C00EB85F0E0EA17FB0718F0E0E0F0E03EC09D
:100E7C00EE81E695E695E6954E2FEE81E77009F04A
:100E8C004F5FEF81E030A1F0A985BA85EC93A8857E
:100E9C00EB85EA1BF0E0DF01EF81F0E00E94B90B7B
:100EAC00DF01E42FF0E00E94B90BE00FF11F1EC030
:100EBC009801E52FF0E00E0F1F1FA885AF5FA887E4
:100ECC00A150EB85AE1760F4F9012F5F3F4FA49151
:100EDC00B0E0E42FF0E00E94B90B0E0F1F1FEDCF16
:100EEC00F901E491A985BA85EC93F8010E94170CDD
:100EFC002C960895E0E0E0939D05A0919E05BB27FC
:100F0C000E944E0BF0E0AE0FBF1FE091A205F0E087
:100F1C00AE0FBF1F6DDFE0939E050895AA93219736
:100F2C000E94420B309709F455C0AF81AA3009F4E6
:100F3C004FC0EF81EA93DE0117966DDFAF0130975A
:100F4C0009F44AC0E091A105AE81EA0F3E2FA091B1
:100F5C009D05BB27F0E0EA0FFB1F8F010535E0E094
:100F6C001E0718F0032F1127C5DFE0919D05EA93AA
:100F7C00E0919E05EA93E885EA930E944E0BEA9372
:100F8C00E1E0EA935A934A93A7E03CDDE0919D059A
:100F9C00AE81EA0FEA93E0919E05EA93E091A105F8
:100FAC00EA930E944E0B0E94550BE0919D05EA932B
:100FBC00A0919E050E944E0BEA0FEA933A93E091A2
:100FCC00A2050E94550BE4E5F0E0E017F10711F4DF
:100FDC0091DF02C000939D050E94170C289608957E
:100FEC00BA93AA931A93EC81EA93AC810ED0A9819F
:100FFC00BA81ED91A983BA831E2FE03019F0A12F8D
:10100C008DDFF5CF18810C94FE09AA93A981BB271B
:10101C00DADEE0939D05A881BB27EADEE0939E050E
:10102C000C94220ABA93AA931A930A93AA81BB81AD
:10103C0012960E94E20B309759F1AA81BB8114964B
:10104C000E94E20B8F01309761F00230E0E01E0746
:10105C0098F0F80131978F01AA81BB811496ED931A
:10106C00FC93AA81BB811296ED91FD913196FE9372
:10107C00EE933197AC81A083AA81BB810E94E20BD5
:10108C00FF232AF0ED91FD913196FE93EE9306C06D
:10109C00AA81BB81EFEFFFEFED93FC9319810881DF
:1010AC00A7C1BA93AA9326970E94100C10E0AC85A6
:1010BC00BD85E0E0F0E0ED93FC93EA89FB89319685
:1010CC00EA8BFB8B3197E4912E2FE03009F415C19C
:1010DC00E12FE03039F4253211F411E002C00E9406
:1010EC005F0B0AC1E130A9F4253219F40E945F0BA1
:1010FC0002C112E040E000E02D3211F401E0FCC02E
:10110C002B3211F44BE2F8C0203211F440E2F4C05F
:10111C0002C0E23039F450E013E0203311F40068DF
:10112C00EBC003C0E33009F0E7C0203310F02A33E2
:10113C0008F007C0AAE05A9F502DE22FE0535E0F33
:10114C00DBC0E22FE33649F40E94660BE889F9898B
:10115C00A481AA930E946C0BCEC0E33741F40E9489
:10116C00660B0E94720B0E94000A1E2F0AC0E03709
:10117C0061F40E94660B0E94720B0E940C0A1E2FD7
:10118C00086002600F7730E034C0E43611F0E936C5
:10119C0011F4046002C0E53731F4EAE7F2E0EE83C3
:1011AC00FF8315E00CC0E83511F4086003C0E83784
:1011BC0009F0A1C0E4E8F2E0EE83FF8314E002FF43
:1011CC0014C00E94660B0E947C0BAB85AA233AF4D8
:1011DC00EA85FB850E94A00BEA87FB874DE2403035
:1011EC0011F01F5F01C00B7F04C00E94660B0E94B0
:1011FC007C0B00FD11C0151778F407FF08C002FF27
:10120C0004C00B7F242F115001C020E301C020E249
:10121C000E945F0B5150EFCF312F01FF17C03030C0
:10122C00A1F003FF06C0EE81FF812591EE83FF83C1
:10123C0005C0AE81BF812D91AE83BF830E945F0B31
:10124C00503009F051503150EACF4BC020E3EE81C1
:10125C00FF810E94E60BE887F987EE81FF813296C9
:10126C00EE83FF83E885F985AA85BB85AE17BF079A
:10127C0050F02F5FA885B985EA85FB85EA1BFB0B2F
:10128C00EA87FB87EFCF2A3328F003FF02C0295FE0
:10129C0001C0295D04FD1AC0213320F4A885B9854D
:1012AC00119709F409C0531710F000FF01C013C0C7
:1012BC0020E207FF0BC020E3006102FF07C00B7F99
:1012CC004A930E946C0B503009F051500E945F0BF6
:1012DC00503009F051503150A885B985129708F05B
:1012EC00B5CF00FF08C0503031F05150E0E2EA9326
:1012FC000E946C0BF8CF10E0E0CEAC85BD850E944F
:10130C00E20B0E94170C64960895FF92F82E269714
:10131C000E94120C0E94840B309719F4EFEFFFEF30
:10132C0023C0DE0116960E949C0B8D010E94840B3B
:10133C00EE83FF83E0E0E887E987DE011A960E94DE
:10134C009C0B0E94E20BFA93EA931A930A93E8E13E
:10135C00F8E0FA93EA93DE011A96A3DE9F01AE81C0
:10136C00BF81E0E0EC93F9010E94190C2A96FF90E2
:10137C0008950E94EA0A088519852E813F810E94F2
:10138C008B0B69F01F930F930F5F1F4FD9012F5FCA
:10139C003F4F0E94EF0BAF91BF91EC93F0CF16C073
:1013AC000E94EA0A0E811F81288539850E948B0BC9
:1013BC0069F01F930F930F5F1F4FD9012F5F3F4FA2
:1013CC00EC91AF91BF910E94FB0BF0CF0E94190CD6
:1013DC002A960895BA93AA93B981A881109631F0F0
:1013EC00FC81EB816A8161931197E9F7EB81FC81B8
:1013FC0025960895BA93AA93A991B991EE27FF2740
:10140C006D91662311F03196FBCF0895BA93AA9390
:10141C00AA27BB27E991F9910590002011F01196AC
:10142C00FBCFFD010895AA93E881F0E0E059FD4F50
:10143C00A491E9810E94A40B22960895AA931A9371
:10144C00E981E73011F0EA3019F410919B0509C0DD
:10145C00E93019F410919C0504C0E830A1F4109106
:10146C00AB05E0919C05E03049F0103019F0EFEF3E
:10147C00188129C0EA81E095188125C0103019F433
:10148C00E0E0188120C0EA8118811DC0BA93AA93AC
:10149C00EA81E13021F4E881F981E49114C0E23071
:1014AC0029F4A881B9810E94EF0B0DC0E33041F4FF
:1014BC00A881B981E091B405F091B505099503C0F7
:1014CC00A881B981EC9123960895AA93EB81E03021
:1014DC0029F4E881A981BA81EC9314C0E23031F48B
:1014EC00E881A981BA810E94FB0B0CC0E33051F456
:1014FC00E981FA81FA93EA93AA81E091B605F09119
:10150C00B705099524960895A091D405B091D505F9
:10151C00E0EDF7E00E94D40B0895EC93AAECB5E053
:10152C00A40FB51FEC91EE83E0E0EF83AAE04A0232
:10153C000A92EEE1EA93DE0118960E94F607ACE2FD
:10154C00B1E00E94920BAAE04A020A92EEE1EA9301
:10155C0008950E94F607A4EFB1E00E94920B4F5F32
:10156C005F4F08950E94B104E0E0EA93E4E1EA934E
:10157C0008950E94F607A0EDB7E00C94920B0E9420
:10158C002F02EAECF5E0FA93EA930895E0E0F0E03C
:10159C00FA93EA93A4E0B0E00895EEECF5E0FA9348
:1015AC00EA93F4CF0E94B104E0E0EA93EAE0EA9314
:1015BC000895A6EDB5E0ED91FD913196FE93EE9375
:1015CC003197E852FA4F0895BA93AA930E94120CDD
:1015DC000895E0936400E09165000895EA0FFB1F05
:1015EC00EE83FF830895EC85EA93EF81F8853196BD
:1015FC00EF83F8873197FA93EA93A0E00C946B0A87
:10160C000A93A8890C94D303EC85EA93EF81F885AF
:10161C003196EF83F8873197089566277727DF0196
:10162C00CB010C944C0A5A93AA850C94240A0A9365
:10163C000395E889EA935A9308955E2FEC85EA9313
:10164C00AF81B885882799270E944C0A1E2E0895D1
:10165C000A930395E889EA93EE85EA93E985FA857E
:10166C003196E987FA873197D8CFBA93AA93A88194
:10167C00B9810E940C0C08950E94100CE0919F05FA
:10168C00F091A0050895F8010F5F1F4F0490089585
:10169C00E0919F05F091A0053196E4910895EA93AD
:1016AC00E0E0EA93E0E0F0E0FA93EA93A9E00C942E
:1016BC0008052A93AD85BE85EF85F88909950895AF
:1016CC00E889F9893497E88BF98B0895AD85BE8547
:1016DC00EF85F88909950895A889B98914960E940F
:1016EC00E20BEE83FF83AE81BF810895A889B9898F
:1016FC0014960E94E20BEA87FB870895DE011C9684
:10170C000E949C0B0E94E20B0895EC81FD813197A5
:10171C00EC83FD8331960895109639F080ED97E0B7
:10172C000197F1F7A8951197C9F708950024AF0D0B
:10173C00B01D0895F195E195F0400895EE230E2E1D
:10174C00EA2F19F0EE0F0A94E9F70895EE230E2E06
:10175C00EA2F19F0E6950A94E9F708956F2F660FB2
:10176C00660B762F0895FA9FF02DEB9FF00DEA9FF4
:10177C00E02DF10D08950024112490E1AA0FBB1F58
:10178C00001C111C0E1A1F0A18F40E0E1F1E01C08D
:10179C00A1609A9599F7FD01D0010895E894B7FFDF
:1017AC0004C0A095B09511966894F7FDC3DFE3DFF4
:1017BC00FD010EF4BFDF0895ED91FC911197089592
:1017CC000590F491E02D08957A936A93FA93EA9335
:1017DC000895E199FECFFF93FFB7F894AEBBBFBB62
:1017EC00E09AEDB3FFBFFF910895E19B02C0A8956D
:1017FC00FCCF9FB7F894AEBBBFBBE09A8DB3E81794
:10180C0019F0EDBBE29AE19A9FBF089500240A16E5
:10181C000B0608955A934A933A932A931A930A9370
:10182C0008955D814C813B812A811981088108953D
:00000001FF
