:060000000C946F000C944B
:1000060000000C9400000C9400000C9400000C946A
:1000160000000C9400000C9400000C9400000C945A
:1000260000000C9400000C9400000C9400000C944A
:1000360000000C9400000C9400000C949F000C949B
:1000460000000C9400000C9400000C9400000C942A
:1000560000000C9400000C9400000C9400000C941A
:1000660000000C9400000C9400000C9400000C940A
:1000760000000C9400000C9400000C9400000C94FA
:1000860000000C9400001027E80364000A00010039
:1000960000100001100001000C00000E436F756E89
:1000A60074646F776E3A0020730046656564205469
:1000B600696D65210020202020202020202020207E
:1000C600202020202020000080C0040006009E0082
:1000D60002000005CE000000F894EE27ECBBF1E02C
:1000E600F5BFE5BFE0936C008DE0A2E0BB27ED9382
:1000F6008A95E9F780E090E1A0E0B1E0ED93019701
:10010600E9F7E0EDF0E085919591009761F0A59112
:10011600B59105901590BF01F00105900D920197DC
:10012600E1F7FB01F0CF8BBFEFEFEDBFE0E1EEBFF4
:10013600C0E0D5E00C94EE00EA93FA93EFB7EA93A9
:10014600E6E0E2BFF60131966F01E8EEF3E0EC156A
:10015600FD0519F4E1E0F0E05F01E0EDF7E0EC15F4
:10016600FD0521F4CC24DD24AA24BB24E991EFBFAC
:10017600F991E9911895E0E0EA93A0E0C9D0A52DA0
:100186000E947202A52D0E947B02A42D0E9472027B
:10019600A42D0E947B02A72D0E947202A72DBB27C9
:1001A6000E9487020895BA93AA930E948F02A2EA38
:1001B600B0E0E4D0A881B981EAE0F0E00E942B0328
:1001C600E05DAE2FC1D0A881B9810E948702ADEA59
:1001D600B0E0D4D0AAC0E0E0E0BFE3E0E3BFE6E0F1
:1001E600E2BFE0E0E1BFE1E0E7BFE0E0E0937D00F1
:1001F6000E94B902A0E1D4D0E3E0EA93E1E0EA93F9
:10020600A0E00E940302ECE0EA93EDE0EA93A2E3A9
:100216000E943F0278940E949402ADDF651459F45F
:10022600E92DF0E03197A42DB0E0EA17FB0719F4A9
:10023600EAE37E1608F430C02297E72DF0E0ACE33F
:10024600B0E00E944C03EA1BFB0BE883F983A8810C
:10025600B981A9DFA8EEB3E00E940A03EBE3E71534
:10026600C9F42197E0E0E883A881A53088F40E94CC
:1002760094025DD080DF0E948F02A0EBB0E07ED0BA
:10028600A8EEB3E00E940A03E881EF5FE883ECCFB3
:100296004ED02196229605C00E948F02ABEBB0E0AD
:1002A6006DD0A4E6B0E00E940A03B5CFFFCFAA93B3
:1002B600E881E07111F0DB9A01C0DB98E881E07219
:1002C60011F0DC9A01C0DC98E881E07411F0DD9A47
:1002D60001C0DD98E881E07811F0DE9A01C0DE9871
:1002E6008DE08A95F1F7DA9A8DE08A95F1F7DA983A
:1002F6008DE08A95F1F782C0AA93A881D8DFE881BC
:10030600E295E883A881D3DF85E88A95F1F776C080
:10031600AA93E881F0E0E050FB4FE081A981AE0F9F
:10032600EBDF8980E881E093040522960895A2E038
:100336000E94A002ACE0E0DFA1E00E94A002E0E0A3
:10034600E09304058E2E0895AA93A881AA3021F081
:10035600E09105058E1660F0E0E0EA93A0910405B1
:10036600AF5FA0930405D4DFA881AA3009F446C084
:100376008394D89AA881C0DFD89840C0BA93AA932C
:100386001A93E981FA813196E983FA833197E491E8
:100396001E2FE03019F0A12FD7DFF3CF188186C0CA
:1003A600AA93D39AD49AD59AD69AD29AD09AD19A0F
:1003B600DA98D898D998E881E0930505E058E09353
:1003C6000205E881E054E0930305A4E1B0E00E9451
:1003D6000A030E94A6020E94A6020E94A602A0E2AA
:1003E60066DF88EC90E00197F1F7A8E285DFA4E0EC
:1003F60083DFA5E881DFA6E07FDF99DF21960895F8
:10040600AA93EA81E370EA83E981E03019F0EA8190
:10041600E061EA83E881E03019F0EA81E068EA8386
:100426000E94AE02A7E00E94F202AA813BC0BA93E4
:10043600AA930E94AE02A0E00E94F2020E94CD02A0
:100446000E94BE02A1ED0E94F2020E94B302A881A0
:10045600B981EC930E94B302AA81BB81EC93A0E020
:100466000E94D702AE2F0E945B02AC81BD81EC9345
:100476000E94CD0226960895AA930E94AE02A0E09D
:100486000E94F202A8810E946802AE2F0E94F20228
:10049600A9810E946802AE2F0E94F202AA810E94E0
:1004A6006802AE2F0E94F2020E94CD0223960895A2
:1004B600AA93E881E295EF70AE2FAA0FAA0FEA0F72
:1004C600EE0FA991AF70EA0F0895AA93A991EE27AE
:1004D600AA5012F0E05FFCCFA65FEA0F0895B0E0E5
:1004E600EAE0F0E00E942B03E05DAE2F0C94A7013A
:1004F600BB27EAE0F0E00E943003E05DAE2F0E94E9
:10050600A701AAE30C94A701EAE0F0E00E943003F9
:10051600E05DAE2F0C94A701E0E0EA93A1E00C9415
:100526008B01E5E0F0E0FA93EA93E4E0F0E0FA9379
:10053600EA93A7E0B0E00C941A020E947F01A3E0C0
:10054600B0E00C940A03A0E30E945A0188EC90E004
:100556000197F1F708950E94BE02A0ED0C94F202F5
:10056600A1E00E94D702AE2F0C945B021E981F9842
:10057600169A179815C017981698EE2700000F9B25
:1005860008950E9B089504D0179A02D0169AE1E0BA
:100596006DE007C0179A169A03D01698F9DF1798D8
:1005A6006BE16A95F1F7089578E01698F1DF0E9BF6
:1005B600FECFEEDF88940F990894169AF1DFEE1FAE
:1005C6007A9599F77A2F772311F4179801C0179A1D
:1005D600DFDF1698E5DF169ADBDF1798D9CF78E0CC
:1005E600AA0F10F4179801C0179ADADF1698D0DF11
:1005F6000E9BFECFCDDF169A7A9591F71798C8DF36
:100606001698CEDFE1E00F99EE27169AC1CF109625
:1006160039F080ED97E00197F1F7A8951197C9F7A2
:100626000895F195E195F04008950024112490E194
:10063600AA0FBB1F001C111C0E1A1F0A18F40E0E5F
:100646001F1E01C0A1609A9599F7FD01D00108957A
:1006560012D0EBDF0EF4E5DF0895E894B7FF04C08F
:10066600A095B09511966894F7FDDBDFDEDFFD01FE
:100676000EF4D7DF0895E894F7FF02C0D2DF68943E
:10068600B7FF06C0A095B095119600F8039400FA3E
:1006960008951B2EBF2FF12D1A2EAE2FE12D089592
:00000001FF
