:0A0000000C948E000C9400000C9488
:10000A0000000C9400000C9400000C9400000C9466
:10001A0000000C9400000C9400000C9400000C9456
:10002A0000000C9400000C9400000C9400000C9446
:10003A0000000C9400000C94BE000C9400000C9478
:10004A0000000C9400000C9400000C9400000C9426
:10005A0000000C9400000C9400000C9400000C9416
:10006A0000000C9400000C9400000C9400000C9406
:10007A0000000C9400000C9400000C9400000C94F6
:10008A0000001027E80364000A00010000100001C4
:10009A001000010002000000010002000300040039
:1000AA0005000600070008004D6174206B68617541
:1000BA002064756E6721005361692120436F6E20A9
:1000CA002564206C616E004269206B686F612100B3
:1000DA00313038004E686170206D6174206B686140
:1000EA00753A000080C0020004009E0011002B0532
:1000FA00A0000F000005B20009000F05D10004009E
:10010A001805DA000F001C05DE0002004905EE00A2
:10011A000000F894EE27ECBBF1E0F5BFE5BFE093F1
:10012A006C008DE0A2E0BB27ED938A95E9F780E0A9
:10013A0090E1A0E0B1E0ED930197E9F7E0EFF0E09C
:10014A0085919591009761F0A591B59105901590CB
:10015A00BF01F00105900D920197E1F7FB01F0CF85
:10016A008BBFEFEFEDBFE0E1EEBFC0E0D5E00C944E
:10017A00CB010A921A929A93AA93BA93EA93FA93A0
:10018A00EFB7EA93E6E0E2BFE0914505F091460554
:10019A003097B9F0E0914705F09148053196E09320
:1001AA004705F09348050E949804E83EA3E0FA0741
:1001BA0011F4949A96980E949804309711F494989E
:1001CA00969AE991EFBFF991E991B991A99199911B
:1001DA0019900990189522970E946F0540E050E007
:1001EA00E0E0EA93A1E03BD14330E0E05E070CF0A7
:1001FA005FC020E030E02330E0E03E070CF04EC064
:10020A00022E032A19F4EDEFE0936200E1E0F0E038
:10021A00E217F30719F4E7EFE0936200E2E0F0E097
:10022A00E217F30719F4EFEDE093620000E010E043
:10023A000330E0E01E077CF500240016010611F4E5
:10024A00029B0FC0E1E0F0E0E017F10711F4049B14
:10025A0008C0E2E0F0E0E017F10711F4009B01C0EA
:10026A0017C0FA01E35CFA4FBF01A6E0A09FF001B4
:10027A00A19FF00DE55DFA4FDF01F901EE0FFF1FB7
:10028A00AE0FBF1FEC91E05DDB010E94A10403C029
:10029A000F5F1F4FCDCF2F5F3F4FADCFB39907C031
:1002AA00ADE3B5E0A40FB51FE9E30E94A1049CCF1A
:1002BA00E0E0E09340050E94760528960895DCD098
:1002CA00A0E0B5E00E94BF04E2E0F0E02F0108954B
:1002DA006497D2D0F20131972F01FE01FA93EA9383
:1002EA00E1ECF0E0FA93EA93F2010E941F050E9402
:1002FA004D0584E00E9416042896DE010E94BF0480
:10030A00002404140504D4F0B7D0AFE0B5E0D5D08A
:10031A00AB9AE1E0F0E0E0934505F0934605E0E0B2
:10032A00E0BFE3E0E3BFE6E0E2BFE0E0E1BFE1E037
:10033A00E7BFE0E0E0937D007894FFCF0C941404CB
:10034A00BA93AA93AA81BB81EC91E03031F00C9068
:10035A00A881B981EC91E01509F00BC0EA81FB8113
:10036A003196EA83FB83E881F9813196E883F98340
:10037A00E9CFAA81BB810C901124A881B981AC91E3
:10038A00BB27F001EA1BFB0B2496089508E115E050
:10039A00EAEEE0936100E5E1E0936200BB98C39A5C
:1003AA00A39A8C9A8E9AA0E199D01A930A930E94E2
:1003BA00C5040E946304E1E4F5E0FA93EA930E941B
:1003CA00C5040E944A04E5E0E3BFE6E0E2BF54D078
:1003DA00E0E0EA93A0E043D0ACE1B5E06ED0FBDE0A
:1003EA00EDE3F5E0FA93EA93A1E4B5E0A9DF3097EB
:1003FA0011F465DF01C06CDFEACFFFCFAA93E88171
:10040A00E07111F0DB9A01C0DB98E881E07211F02B
:10041A00DC9A01C0DC98E881E07411F0DD9A01C031
:10042A00DD98E881E07811F0DE9A01C0DE988DE06F
:10043A008A95F1F7DA9A8DE08A95F1F7DA988DE0E4
:10044A008A95F1F778C0AA93A881D8DFE881E29566
:10045A00E883A881D3DF85E88A95F1F76CC0AA936F
:10046A00E881F0E0E75BFA4FE081A981AE0FEBDFAC
:10047A007980688022960895A2E00E94CC04ACE0BC
:10048A00E2DFA1E00E94CC04E0E06E2E7E2E089509
:10049A00AA93A881AA3011F0791448F0E0E0EA930F
:1004AA006394A62DDCDFA881AA3009F444C07394B2
:1004BA00D89AA881C8DFD8983EC0BA93AA931A934B
:1004CA00A981BA81ED91A983BA831E2FE03019F070
:1004DA00A12FDEDFF5CF188123960895AA93D39A28
:1004EA00D49AD59AD69AD29AD09AD19ADA98D89892
:1004FA00D9989880E881E058E0934B05E881E05468
:10050A00E0934C05A4E1B0E00E940D050E94D204DC
:10051A000E94D2040E94D204A0E270DF88EC90E02C
:10052A000197F1F7A8E28FDFA4E08DDFA5E88BDF62
:10053A00A6E089DFA1DF21960895BA93AA931A93B8
:10054A000A93AA81BB8112960E944505309759F1F8
:10055A00AA81BB8114960E9445058F01309761F0EC
:10056A000230E0E01E0798F0F80131978F01AA8166
:10057A00BB811496ED93FC93AA81BB811296ED91EF
:10058A00FD913196FE93EE933197AC81A083AA81B7
:10059A00BB810E944505FF232AF0ED91FD9131961A
:1005AA00FE93EE9306C0AA81BB81EFEFFFEFED93B6
:1005BA00FC931981088125960895BA93AA932697E0
:1005CA000E946F0510E0AC85BD85E0E0F0E0ED9398
:1005DA00FC93EA89FB893196EA8BFB8B3197E4918C
:1005EA002E2FE03009F415C1E12FE03039F425321D
:1005FA0011F411E002C00E94DA040AC1E130A9F440
:10060A00253219F40E94DA0402C112E040E000E047
:10061A002D3211F401E0FCC02B3211F44BE2F8C088
:10062A00203211F440E2F4C002C0E23039F450E062
:10063A0013E0203311F40068EBC003C0E33009F083
:10064A00E7C0203310F02A3308F007C0AAE05A9F07
:10065A00502DE22FE0535E0FDBC0E22FE33649F460
:10066A000E94E104E889F989A481AA930E94E70417
:10067A00CEC0E33741F40E94E1040E94ED040E94D7
:10068A007F041E2F0AC0E03761F40E94E1040E9431
:10069A00ED040E948B041E2F086002600F7730E081
:1006AA0034C0E43611F0E93611F4046002C0E537CB
:1006BA0031F4ECE8F0E0EE83FF8315E00CC0E83596
:1006CA0011F4086003C0E83709F0A1C0E6E9F0E0D8
:1006DA00EE83FF8314E002FF14C00E94E1040E942B
:1006EA00F704AB85AA233AF4EA85FB850E941B0529
:1006FA00EA87FB874DE2403011F01F5F01C00B7F94
:10070A0004C00E94E1040E94F70400FD11C01517FD
:10071A0078F407FF08C002FF04C00B7F242F115092
:10072A0001C020E301C020E20E94DA045150EFCF59
:10073A00312F01FF17C03030A1F003FF06C0EE8150
:10074A00FF812591EE83FF8305C0AE81BF812D9184
:10075A00AE83BF830E94DA04503009F05150315001
:10076A00EACF4BC020E3EE81FF810E944905E8876A
:10077A00F987EE81FF813296EE83FF83E885F9855A
:10078A00AA85BB85AE17BF0750F02F5FA885B9852C
:10079A00EA85FB85EA1BFB0BEA87FB87EFCF2A3347
:1007AA0028F003FF02C0295F01C0295D04FD1AC0B9
:1007BA00213320F4A885B985119709F409C0531784
:1007CA0010F000FF01C013C020E207FF0BC020E3B6
:1007DA00006102FF07C00B7F4A930E94E704503072
:1007EA0009F051500E94DA04503009F0515031504A
:1007FA00A885B985129708F0B5CF00FF08C0503018
:10080A0031F05150E0E2EA930E94E704F8CF10E099
:10081A00E0CEAC85BD850E9445050E9476056496AA
:10082A000895FF92F82E26970E9471050E94FF04F0
:10083A00309719F4EFEFFFEF23C0DE0116960E94FE
:10084A0017058D010E94FF04EE83FF83E0E0E8872D
:10085A00E987DE011A960E9417050E944505FA9358
:10086A00EA931A930A93E2EAF2E0FA93EA93DE0130
:10087A001A96A3DE9F01AE81BF81E0E0EC93F901F5
:10088A000E9478052A96FF900895BA93AA930E9427
:10089A007105088519852E813F810E94060569F038
:1008AA001F930F930F5F1F4FD9012F5F3F4F0E9476
:1008BA005205AF91BF91EC93F0CF18C0BA93AA93A7
:1008CA000E9471050E811F81288539850E940605BF
:1008DA0069F01F930F930F5F1F4FD9012F5F3F4F8F
:1008EA00EC91AF91BF910E945E05F0CF0E9478050E
:1008FA002A960895BA93AA93A991B991EE27FF2748
:10090A006D91662311F03196FBCF0895BA93AA939D
:10091A00AA27BB27E991F9910590002011F01196B9
:10092A00FBCFFD010895A0914705B0914805E0ED80
:10093A00F7E00E9437050895EC93ADE3B5E0A40F04
:10094A00B51FEC91EE83E0E0EF83AE810E944D0289
:10095A00ACE2B1E00E940D054A93A1E00E94340284
:10096A00AAE20E944D02A4EFB1E00E940D054F5F7A
:10097A005F4F08950E946202A0EDB7E00C940D0546
:10098A00E0E0F0E0FA93EA93A4E0B0E008950E9470
:10099A002802A3E0B0E00C940D05A0E30E94030234
:1009AA0088EC90E00197F1F708952A93AD85BE850A
:1009BA00EF85F88909950895E889F9893497E88BCC
:1009CA00F98B0895AD85BE85EF85F8890995089557
:1009DA00A889B98914960E944505EE83FF83AE81E2
:1009EA00BF810895A889B98914960E944505EA87A6
:1009FA00FB870895DE011C960E9417050E94450593
:100A0A000895EC81FD813197EC83FD833196089539
:100A1A00109639F080ED97E00197F1F7A8951197B4
:100A2A00C9F708950024AF0DB01D0895F195E19519
:100A3A00F04008956F2F660F660B762F08950024F5
:100A4A00112490E1AA0FBB1F001C111C0E1A1F0AC9
:100A5A0018F40E0E1F1E01C0A1609A9599F7FD01A8
:100A6A00D0010895E894B7FF04C0A095B0951196F7
:100A7A006894F7FDDBDFE3DFFD010EF4D7DF0895AD
:100A8A00ED91FC91119708950590F491E02D089548
:100A9A007A936A93FA93EA930895E199FECFFF93C2
:100AAA00FFB7F894AEBBBFBBE09AEDB3FFBFFF91AF
:100ABA000895E19B02C0A895FCCF9FB7F894AEBBFE
:100ACA00BFBBE09A8DB3E81719F0EDBBE29AE19A41
:100ADA009FBF08955A934A933A932A931A930A9373
:100AEA0008955D814C813B812A811981088108958D
:00000001FF
