:060000000C946F010C944A
:1000060000000C9400000C9400000C9400000C946A
:1000160000000C9400000C9400000C9400000C945A
:1000260000000C9400000C9400000C9400000C944A
:1000360000000C9400000C9400000C9400000C943A
:1000460000000C9400000C9400000C9400000C942A
:1000560000000C9400000C9400000C9400000C941A
:1000660000000C9400000C9400000C9400000C940A
:1000760000000C9400000C9400000C9400000C94FA
:1000860000000C940000050720600000000000003E
:10009600005F00000007000700147F147F14242A65
:1000A6007F2A12231308646236495522500005033D
:1000B6000000001C2241000041221C00082A1C2AC4
:1000C6000808083E0808005030000008080808081C
:1000D600003030000020100804023E5149453E0021
:1000E600427F400042615149462141454B31181437
:1000F600127F1027454545393C4A49493001710967
:1001060005033649494936064949291E003636004F
:10011600000056360000000814224114141414146A
:1001260041221408000201510906324979413E7EF6
:100136001111117E7F494949363E414141227F4195
:1001460041221C7F494949417F090901013E41413C
:1001560051327F0808087F00417F41002040413F1F
:10016600017F081422417F404040407F0204027F05
:100176007F0408107F3E4141413E7F090909063E42
:100186004151215E7F0919294646494949310101F4
:100196007F01013F4040403F1F2040201F7F201825
:1001A600207F6314081463030478040361514945EE
:1001B6004300007F4141020408102041417F0000B6
:1001C60004020102044040404040000102040020B5
:1001D600545454787F48444438384444442038447E
:1001E60044487F3854545418087E090102081454B0
:1001F600543C7F0804047800447D40002040443D80
:1002060000007F10284400417F40007C04180478D9
:100216007C0804047838444444387C1414140808D0
:100226001414187C7C080404084854545420043FD1
:100236004440203C4040207C1C2040201C3C403058
:10024600403C44281028440C5050503C4464544CC4
:1002560044000836410000007F00000041360800D7
:1002660002010204027F4141417F1027E803640036
:100276000A00010000100001100001000001030740
:100286000F1F3F7FFF00000044414E472047494172
:100296005400544F4320444F3A20253032750053C2
:1002A600504545443A202564000080C001002D4E8B
:1002B600414E00494E460000020004008C020A002E
:1002C60000058E020A000A058E0202003105B00200
:1002D60001002F07B2020000F894EE27ECBBF1E014
:1002E600F5BFE5BFE0936C008DE0A2E0BB27ED9380
:1002F6008A95E9F780E090E1A0E0B1E0ED930197FF
:10030600E9F7EEEBF2E085919591009761F0A59102
:10031600B59105901590BF01F00105900D920197DA
:10032600E1F7FB01F0CF8BBFEFEFEDBFE0E1EEBFF2
:10033600C0E0D5E00C94F2012897ECE8F0E0E88301
:10034600F983EE81EC7FEE83E37EE061EE83EF815D
:10035600E078E264EF83DE010E94FC0428960895AB
:10036600A4E10E9450040E9423040895BA93AA931C
:10037600A881EFEFEA1BE1BF22960895BA93AA93EC
:100386001A930A93042C052821F4EFE3F0E02F01D9
:100396001FC0AA81BB81549741F4D201E5E0F0E089
:1003A6000E94BC0AE40DF51D09C0AA81BB81A436D2
:1003B600E0E0BE0721F4F201EE0FFF1F8F010030CF
:1003C600E1E01E0724F0EFEFF0E02F0101C0280165
:1003D600D201CCDFF2011981088124960895A097F5
:1003E60011E020E030E0A8DFBBDFE0E1E7BBECE0B6
:1003F600E8BBE0E8E1BBE2BB0E94A305EAE0EA93C2
:10040600EA93A0E0B5E00E94F1080E94A709AAE0DD
:10041600B5E00E944404B29904C0E12F0E949C0AF0
:100426001E2F113021F4A0E0B0E0A0DF26C0A4E129
:10043600B0E0A4DF9F010E94A709FE017096FA931F
:10044600EA93E8E9F2E00E94AE09DE0150960E94C6
:100456004404FE01FA93EA93E5EAF2E00E94AE094B
:10046600EAE0EA93E4E1EA93DE0112960E94F108DB
:10047600A8EEB3E00E94750ADACFCDCFFFCFBA93CC
:10048600AA931A930A93AA81BB8112960E94CF0A55
:10049600309729F1AA81BB8114960E94CF0A8F0159
:1004A600309761F00230E0E01E0780F0F8013197E6
:1004B6008F01AA81BB811496ED93FC93AA81BB811F
:1004C60012960E94BA093197AC81A083AA81BB819A
:1004D6000E94CF0AFF2312F00E94BA0906C0AA8121
:1004E600BB81EFEFFFEFED93FC9319810881259611
:1004F6000895BA93AA9326970E94FD0A10E0AC8548
:10050600BD85E0E0F0E0ED93FC93EA89FB89319646
:10051600EA8BFB8B3197E4912E2FE03009F415C15D
:10052600E12FE03039F4253211F411E002C00E94C7
:10053600C0090AC1E130A9F4253219F40E94C009A4
:1005460002C112E040E000E02D3211F401E0FCC0EF
:100556002B3211F44BE2F8C0203211F440E2F4C021
:1005660002C0E23039F450E013E0203311F40068A1
:10057600EBC003C0E33009F0E7C0203310F02A33A4
:1005860008F007C0AAE05A9F502DE22FE0535E0FF5
:10059600DBC0E22FE33649F40E94C709E889F989EE
:1005A600A481AA930E94CD09CEC0E33741F40E94EC
:1005B600C7090E94D3090E941D091E2F0AC0E037F1
:1005C60061F40E94C7090E94D3090E9429091E2FBF
:1005D600086002600F7730E034C0E43611F0E93687
:1005E60011F4046002C0E53731F4E0E7F2E0EE838F
:1005F600FF8315E00CC0E83511F4086003C0E83746
:1006060009F0A1C0EAE7F2E0EE83FF8314E002FFFF
:1006160014C00E94C7090E94DD09AB85AA233AF4DB
:10062600EA85FB850E94830AEA87FB874DE2403014
:1006360011F01F5F01C00B7F04C00E94C7090E9412
:10064600DD0900FD11C0151778F407FF08C002FF89
:1006560004C00B7F242F115001C020E301C020E20B
:100666000E94C0095150EFCF312F01FF17C0303023
:10067600A1F003FF06C0EE81FF812591EE83FF8383
:1006860005C0AE81BF812D91AE83BF830E94C00994
:10069600503009F051503150EACF4BC020E3EE8183
:1006A600FF810E94D30AE887F987EE81FF8132969F
:1006B600EE83FF83E885F985AA85BB85AE17BF075C
:1006C60050F02F5FA885B985EA85FB85EA1BFB0BF1
:1006D600EA87FB87EFCF2A3328F003FF02C0295FA2
:1006E60001C0295D04FD1AC0213320F4A885B9850F
:1006F600119709F409C0531710F000FF01C013C089
:1007060020E207FF0BC020E3006102FF07C00B7F5A
:100716004A930E94CD09503009F051500E94C009F9
:10072600503009F051503150A885B985129708F01C
:10073600B5CF00FF08C0503031F05150E0E2EA93E7
:100746000E94CD09F8CF10E0E0CEAC85BD850E94B1
:10075600CF0A0E94040B64960895FF92F82E2697FE
:100766000E94FF0A0E94E509309719F4EFEFFFEFA8
:1007760023C0DE0116960E947F0A8D010E94E509BC
:10078600EE83FF83E0E0E887E987DE011A960E94A0
:100796007F0A0E94CF0AFA93EA931A930A93E2E435
:1007A600F2E0FA93EA93DE011A96A3DE9F01AE8188
:1007B600BF81E0E0EC93F9010E94060B2A96FF90B8
:1007C6000895AA93E881E07111F0DB9A01C0DB98E5
:1007D600E881E07211F0DC9A01C0DC98E881E074EF
:1007E60011F0DD9A01C0DD98E881E07811F0DE9A1B
:1007F60001C0DE988DE08A95F1F7DA9A8DE08A9548
:10080600F1F7DA988DE08A95F1F70C94A105AA9391
:10081600A881D7DFE881E295E883A881D2DF85E861
:100826008A95F1F78BC1AA93E881F0E0EF5CFA4F65
:10083600E081A981AE0FEBDF798068800C943F09D7
:10084600A2E00E94EC09ACE0E2DFA1E00E94EC0924
:10085600E0E06E2E7E2E0895AA93A881AA3011F0AC
:10086600791448F0E0E0EA936394A62DDCDFA881D2
:10087600AA3009F463C17394D89AA881C8DFD898BE
:100886005DC1BA93AA931A930E94F20919F0A12F97
:10089600E3DFFACF18810C948609AA93D39AD49AE7
:1008A600D59AD69AD29AD09AD19ADA98D898D998CF
:1008B6009880E881E058E0933305E881E054E093BE
:1008C6003405A4E1B0E00E94750A0E94FA090E946C
:1008D600FA090E94FA09A0E274DF88EC90E0019719
:1008E600F1F7A8E294DFA4E092DFA5E890DFA6E0A6
:1008F6008EDFA6DF23C10895AA931A93E0916500BF
:10090600EF7EE093650018E0F6DFE981E07821F0FC
:10091600E0916500E26003C0E0916500ED7FE09341
:100926006500E981EE0FE983E6DFE0916500E460AA
:10093600E0936500E0DFE0916500EB7FE093650002
:10094600115011F7E0916500E061E09365001881B0
:100956000C943F09AA93E0916500EE7FE093650051
:10096600A881CADFEBC0AA93E0916500E160E0933D
:100976006500A881C1DFE2C0AA931A93E981E695D2
:10098600E695E6951E2FE4E5E19FF001DF01EA8199
:10099600F0E0EA0FFB1FE0933505F0933605E12FF3
:1009A60018810C948609AA93E981E068AE2FD2DFFC
:1009B600E981EA93A981E0DFE064AE2FCBDF0C94F6
:1009C6003F09AA93E981EA93A981EDDFE091350514
:1009D600F0913605E95CFA4FE0810C943F09AA9341
:1009E6000E94020A3197E95CFA4FA881A083BBDF17
:1009F600A5C0BA93AA930E94FF0AE0916400E06141
:100A06000E94050AE061E0936500E0916400E460FD
:100A16000E94050AEB7FE0936500E0916400E260C6
:100A2600E0936400E0916400E160E0936400E0918B
:100A36006400E8600E94050AE77FE0936500AAE08B
:100A4600B0E00E94750AE0916500E860E0936500F9
:100A5600EC81FD81309721F1E681E3701E2FEC8158
:100A6600FD81E681E695E695E7700E2FEC81FD8126
:100A7600E781EF773E2FAC81BD810E94CF0AE093DC
:100A86001805F093190512960E94CF0AE0932D05DA
:100A9600F0932E05AC81BD8114960E94CF0A0DC03D
:100AA60010E003E032E3E0E0F0E0E0931805F093B5
:100AB6001905E0932D05F0932E05E0932F05F0938D
:100AC6003005A1E247DFE12FE460AE2F43DFE02FE0
:100AD600E061AE2F3FDFE32FE068AE2F3BDFA0E201
:100AE60039DFA1E022D0E1E0E0931405E0E0E093F5
:100AF6001505E1E0E0931A05E0931B05E0931C055C
:100B0600EFEFE0931D05E1E0E0932405E5E2F5E073
:100B1600FA93EA93EFEFEA93A8E0B0E00E940D099A
:100B26000FD0E1E00E94060B60C0AA93E881E03096
:100B360011F0ECE001C0E8E0AE2F0CDF219608953D
:100B46000E94FF0A30E0E0911505E03009F03FEF22
:100B5600E0E0EA93A0E027DF08EF11E0F80101509A
:100B66001040309719F0A32F3ADFF8CFE0E0EA9370
:100B7600A0E043D30E94060B0C94A509AA931A93EE
:100B8600ED81EA93AD811DDF1E2FE981E73011F07B
:100B9600E83039F4EB81EA93AA810E944109EB839C
:100BA60008C0E33021F4EB81E095EB8302C0E0302E
:100BB60021F4EA81E0951E2302C0E23029F4EA819D
:100BC600AB81EA231E2B0EC0E13029F4EA81AB810A
:100BD600EA231E2707C0E43029F4EA81E095AB81B9
:100BE600EA2B1E23A12FFBDE188126960895AA93D1
:100BF60023970E94FD0AA889A43548F4AF85A0333F
:100C060030F4AE85A03019F0AD85A03009F4D5C119
:100C1600EE85E887A889BB27EE85F0E0AE0FBF1FFB
:100C2600A535E0E0BE0720F0A889E4E5EA1BEE87DB
:100C36002D85AF85BB27ED85F0E0AE0FBF1FD197A1
:100C460020F0AF85E0E3EA1BED87A985A63009F021
:100C56005BC0EC85E13009F4B0C1E33039F4E091D2
:100C66002F05F0913005309709F4A7C10885ED8569
:100C7600E695E695E6953E2FE22FE77019F4AD85E9
:100C86002A17E9F0A02FBB27E32FF0E00E94A10A64
:100C9600AA85BB850E940A0A269526952695532F76
:100CA6005F935F5FE22FAF91EA1748F0102FE12FB5
:100CB6001150E03019F00E940F0AF9CFF1CFAE853E
:100CC6000A1711F1EE85AA85BB85F0E00E940A0A93
:100CD600ED85E77009F03F5F20E02F932F5FE32F4C
:100CE600AF91AE1788F41E851F931F5FE02FAF915B
:100CF600AE1718F40E940F0AF7CFEE85AE81BF81BA
:100D0600F0E00E940A0AE9CFEF85E7703E2FED85F5
:100D1600E03009F452C1EA85FB85EE83FF8310E0DB
:100D26000889303009F066C0AD85A83008F45DC08A
:100D3600E985E03011F0E33009F402C0E73009F448
:100D460002C0E83009F402C0E93009F402C0EA3012
:100D560021F40A93A88927DE04C0E63011F40E9424
:100D66001C0A1F931F5FEE85AF91AE17B8F5A985D4
:100D7600A63069F40E94200AFA93EA930E94020AB6
:100D86003197E95CFA4FA0810E94880926C0E9855F
:100D9600E93011F450E00EC0EA3011F45FEF0AC0FA
:100DA6000E94200A0E94290A5E2FE985E73011F089
:100DB600E83021F40E942F0A5E2F06C0E33011F4BA
:100DC600509502C0E03019F4A52FCDDD06C00E9473
:100DD600330AEFEFEA93AD85D1DEC3CFEF85E85F47
:100DE600EF87ED85E850ED87DFC05D8520E0E0E028
:100DF600ED8781C0E32FAD85AE0FA93020F42D8598
:100E0600E0E0ED8703C0E8E0E31B2E2F3A93A22F24
:100E16000E9436094E2FE985E63029F50E941C0A04
:100E26001F931F5FEE85AF91AE17E0F40E94020A92
:100E36003197E95CFA4FE081E423AE2FE32F0E945D
:100E46008F0A0E94390AE32FA42F0E948F0AE09589
:100E5600E1215E2B0E94200AFA93EA93A52F0E94B5
:100E66008809DECF2CC0E93011F450E003C0EA3027
:100E7600A9F45FEF0E942F0AAE2FE32F0E94870A84
:100E86005E2F1F931F5FEE85AF91AE1730F40E9461
:100E9600330A4A93A0E072DEF4CF11C01F931F5F9E
:100EA600EE85AF91AE1758F40E94440AAE2FE32F99
:100EB6000E94870AEA934A93AD8560DEEFCFED85FF
:100EC600E03009F47AC0AD85A83028F4ED85E21B40
:100ED6005E2FE0E003C0532FED85E850ED8710E06C
:100EE600EF85E85FEF87E8E0E31B2E2F0889EA85A8
:100EF600FB85EE83FF83E52FF0E0EE57FD4F44912F
:100F0600E985E63029F50E941C0A1F931F5FEE85CE
:100F1600AF91AE17E0F40E94020A3197E95CFA4FEE
:100F2600E081E423AE2FE22F0E94870A0E94390A4D
:100F3600E22FA42F0E94870AE095E1215E2B0E94F2
:100F4600200AFA93EA93A52F0E948809DECF2CC0C7
:100F5600E93011F450E003C0EA30A9F45FEF0E94D3
:100F66002F0AAE2FE22F0E948F0A5E2F1F931F5F5C
:100F7600EE85AF91AE1730F40E94330A4A93A0E093
:100F8600FDDDF4CF11C01F931F5FEE85AF91AE1745
:100F960058F40E94440AAE2FE22F0E948F0AEA9369
:100FA6004A93AD85EBDDEFCFE885AA85BB85F0E0FA
:100FB600EA0FFB1FEA87FB87AACE0E94040B619605
:100FC60008950E94510A24F0E0E0F0E00C943F09F5
:100FD600A881B981A435E0E0BE0724F0E3E5F0E09E
:100FE6000C943F09E881F9810C943F090E94510A4B
:100FF60024F0E0E0F0E00C943F09A881B981D09795
:1010060024F0EFE2F0E00C943F09E881F9810C94BA
:101016003F09BA93AA9323970E94580A8F01002E7C
:10102600012A19F4E0E0F0E05FC00E945F0A0F8237
:101036000E945F0A0E820E945F0A0886EB85A885D9
:10104600EA1718F4E0E0F0E04FC0F8010F5F1F4F19
:101056005491A885BB27EE27A50FBE1FEB85F0E0B0
:10106600EA17FB0718F0E0E0F0E03EC0EE81E695F7
:10107600E695E6954E2FEE81E77009F04F5FEF811A
:10108600E030A1F0A985BA85EC93A885EB85EA1B2B
:10109600F0E0DF01EF81F0E00E94A10ADF01E42F1A
:1010A600F0E00E94A10AE00FF11F1EC09801E52F93
:1010B600F0E00E0F1F1FA885AF5FA887A150EB8534
:1010C600AE1760F4F9012F5F3F4FA491B0E0E42F13
:1010D600F0E00E94A10A0E0F1F1FEDCFF901E49167
:1010E600A985BA85EC93F8010E94040B2C96089505
:1010F600E0E0E0931605A0911705BB270E94640A5D
:10110600F0E0AE0FBF1FE0911B05F0E0AE0FBF1F72
:101116006DDFE09317050895AA9321970E94580A58
:10112600309709F455C0AF81AA3009F44FC0EF815A
:10113600EA93DE0117966DDFAF01309709F44AC0D6
:10114600E0911A05AE81EA0F3E2FA0911605BB2746
:10115600F0E0EA0FFB1F8F010535E0E01E0718F0EF
:10116600032F1127C5DFE0911605EA93E0911705D5
:10117600EA93E885EA930E94640AEA93E1E0EA9337
:101186005A934A93A7E033DDE0911605AE81EA0F44
:10119600EA93E0911705EA93E0911A05EA930E9413
:1011A600640A0E946B0AE0911605EA93A09117055E
:1011B6000E94640AEA0FEA933A93E0911B050E94A3
:1011C6006B0AE4E5F0E0E017F10711F491DF02C0E5
:1011D600009316050E94040B28960895BA93AA93C5
:1011E6001A93EC81EA93AC8108D00E94F20919F0B7
:1011F600A12F92DFFACF18811BC0AA93A981BB2722
:10120600E0DEE0931605A881BB27F0DEE093170524
:101216000C943F09BA93AA93B981A881109631F02C
:10122600FC81EB816A8161931197E9F7EB81FC817F
:1012360025960895BA93AA93A991B991EE27FF2707
:101246006D91662311F03196FBCF0895BA93AA9358
:10125600AA27BB27E991F9910590002011F0119674
:10126600FBCFFD010895AA93E881F0E0EE57FD4F0C
:10127600A491E9810E94870A22960895AA931A9357
:10128600E981E73011F0EA3019F41091140509C02C
:10129600E93019F41091150504C0E830A1F4109155
:1012A6002405E0911505E03049F0103019F0EFEF14
:1012B600188129C0EA81E095188125C0103019F4FB
:1012C600E0E0188120C0EA8118811DC0BA93AA9374
:1012D600EA81E13021F4E881F981E49114C0E23039
:1012E60029F4A881B9810E94DC0A0DC0E33041F4DB
:1012F600A881B981E0912D05F0912E05099503C0CD
:10130600A881B981EC9123960895AA93EB81E030E8
:1013160029F4E881A981BA81EC9314C0E23031F452
:10132600E881A981BA810E94E80A0CC0E33051F431
:10133600E981FA81FA93EA93AA81E0912F05F09167
:1013460030050995249608950E942304E0E0EA9367
:10135600A0E00C941604FA93EA93F9010E94970A06
:101366000E94D70A84E00E94B00328960895ED9162
:10137600FD913196FE93EE9308952A93AD85BE8531
:10138600EF85F88909950895E889F9893497E88BF6
:10139600F98B0895AD85BE85EF85F8890995089581
:1013A600A889B98914960E94CF0AEE83FF83AE817D
:1013B600BF810895A889B98914960E94CF0AEA8741
:1013C600FB870895DE011C960E947F0A0E94CF0AC1
:1013D60008950E940A04A3E0B0E00C94750AA9815E
:1013E600BA81ED91A983BA831E2FE0300895A0E358
:1013F6000E94E40388EC90E00197F1F70895A5E3D5
:10140600B5E0B5CFE0936400E09165000895EA0F7A
:10141600FB1FEE83FF830895EC85EA93EF81F88541
:101426003196EF83F8873197FA93EA93A0E00C940C
:1014360088090A93A8890C94BF04EC85EA93EF8186
:10144600F8853196EF83F8873197089566277727D1
:10145600DF01CB010C9469095A93AA850C944109C2
:101466000A930395E889EA935A9308955E2FEC85CB
:10147600EA93AF81B885882799270E9469091E2EAD
:1014860008950A930395E889EA93EE85EA93E98538
:10149600FA853196E987FA873197D8CFBA93AA9316
:1014A600A881B9810E94F90A08950E94FD0AE09177
:1014B6001805F09119050895F8010F5F1F4F049064
:1014C6000895E0911805F09119053196E491089573
:1014D600EA93E0E0EA93E0E0F0E0FA93EA93A9E029
:1014E6000C94FA05109639F080ED97E00197F1F724
:1014F600A8951197C9F708950024AF0DB01D08955A
:10150600F195E195F0400895EE230E2EEA2F19F09D
:10151600EE0F0A94E9F70895EE230E2EEA2F19F03E
:10152600E6950A94E9F708956F2F660F660B762FF6
:101536000895EE23E1E009F0EE270895FA9FF02DD5
:10154600EB9FF00DEA9FE02DF10D08950024112484
:1015560090E1AA0FBB1F001C111C0E1A1F0A18F4DB
:101566000E0E1F1E01C0A1609A9599F7FD01D001CC
:10157600089504D0EBDF0EF4C3DF0895E894F7FF77
:1015860002C0BEDF6894B7FF06C0A095B09511965D
:1015960000F8039400FA0895ED91FC9111970895CF
:1015A6000590F491E02D08957A936A93FA93EA935D
:1015B6000895E199FECFFF93FFB7F894AEBBBFBB8A
:1015C600E09AEDB3FFBFFF910895E19B02C0A89595
:1015D600FCCF9FB7F894AEBBBFBBE09A8DB3E817BC
:1015E60019F0EDBBE29AE19A9FBF089500240A160E
:1015F6000B0608955A934A933A932A931A930A9399
:1016060008955D814C813B812A8119810881089565
:00000001FF
