:0C0000000C947F010C9400000C94000094
:10000C000C9400000C9400000C9400000C94000064
:10001C000C9400000C9400000C9400000C94000054
:10002C000C9400000C9400000C9400000C94000044
:10003C000C9400000C94AF010C9400000C94000084
:10004C000C9400000C9400000C9400000C94000024
:10005C000C9400000C9400000C9400000C94000014
:10006C000C9400000C9400000C9400000C94000004
:10007C000C9400000C9400000C9400000C940000F4
:10008C0005072060000000000000005F0000000772
:10009C00000700147F147F14242A7F2A12231308CC
:1000AC00646236495522500005030000001C2241B1
:1000BC00000041221C00082A1C2A0808083E0808D7
:1000CC0000503000000808080808003030000020FC
:1000DC00100804023E5149453E00427F40004261F7
:1000EC005149462141454B311814127F1027454583
:1000FC0045393C4A4949300171090503364949499A
:10010C0036064949291E00363600000056360000D6
:10011C00000814224114141414144122140800026F
:10012C0001510906324979413E7E1111117E7F49F8
:10013C004949363E414141227F4141221C7F494978
:10014C0049417F090901013E414151327F080808AC
:10015C007F00417F41002040413F017F0814224134
:10016C007F404040407F0204027F7F0408107F3EA6
:10017C004141413E7F090909063E4151215E7F09FB
:10018C00192946464949493101017F01013F404047
:10019C00403F1F2040201F7F2018207F631408142D
:1001AC00630304780403615149454300007F4141D6
:1001BC00020408102041417F0000040201020440A7
:1001CC0040404040000102040020545454787F48C1
:1001DC004444383844444420384444487F385454C8
:1001EC005418087E090102081454543C7F08040476
:1001FC007800447D40002040443D00007F1028449E
:10020C0000417F40007C041804787C080404783892
:10021C00444444387C14141408081414187C7C08C6
:10022C000404084854545420043F4440203C4040AB
:10023C00207C1C2040201C3C4030403C4428102892
:10024C00440C5050503C4464544C4400083641001B
:10025C0000007F0000004136080002010204027F0A
:10026C004141417F000103070F1F3F7FFF00102713
:10027C00E80364000A0001000010000110000100F6
:10028C000A00010044616E672063686F206361207F
:10029C00616E2E2E2E0054616D2064756E670044C5
:1002AC00616E6720686F617420646F6E6700010077
:1002BC002D4E414E00494E460000010070058C0247
:1002CC00010072058E021200000590020900120551
:1002DC00A2020F001B05AB020F002A05AB0209009E
:1002EC003905A2020F004205AB0201006E07BA02EB
:1002FC000000F894EE27ECBBF1E0F5BFE5BFE0930E
:10030C006C008DE0A2E0BB27ED938A95E9F780E0C5
:10031C0090E1A0E0B1E0ED930197E9F7E6ECF2E0B3
:10032C0085919591009761F0A591B59105901590E7
:10033C00BF01F00105900D920197E1F7FB01F0CFA1
:10034C008BBFEFEFEDBFE0E1EEBFC0E0D5E00C946A
:10035C002C02AA93BA93EA93FA93EFB7EA93ECE9D7
:10036C00E2BFAEE6B5E00E94B107A0916E05B09178
:10037C006F05A93CE0E0BE072CF0E0E0E0936E05D1
:10038C00E0936F05E0917005F0917105A0916E05F9
:10039C00B0916F05AE17BF0714F4AF9A01C0AF98B8
:1003AC00E991EFBFF991E991B991A9911895E0E024
:1003BC00E0BFE2E0E3BFECE9E2BFE0E0E1BFE1E097
:1003CC00E7BFE0E0E0937D0078940895BA93AA9398
:1003DC00D1D1E0E0EA93E4E1EA93AA81BB810E94E7
:1003EC000E070C9449071A930A93A0E0B5E00E94FB
:1003FC00B707C49800E010E00530E0E01E07ECF40D
:10040C00B29910C00E94BE07B2990CC0B29BFECF2D
:10041C00E0E0E0937205E0937305A2E1B5E00E9481
:10042C00C20711C0E4E1F0E00E94CF07EAE0F0E07F
:10043C000E94CF070F5F1F4FDFCFABE1B5E00E94EB
:10044C00B7070E94D7070991199108952897ECE8EE
:10045C00F0E0E883F983EE81EC7FEE83E37EE061EC
:10046C00EE83EF81E078E264EF83DE01D6D0A79AC9
:10047C00BA98BB98C29AC39AE7B3E063E7BBE1E8CA
:10048C00EFBDEAE0EEBDC498E0E8F0E0FBBDEABDEC
:10049C008EDFEAE0F0E0E0937005F09371056AD12D
:1004AC00AAE2B5E093DFB29924C00E94BE07B299CC
:1004BC0020C0B29BFECF0E94DE07119721F00E9454
:1004CC00DE07129751F4E0E0E0937205E0937305B8
:1004DC00A9E3B5E00E94C2070CC0E0917205F0914F
:1004EC007305309731F40E94D707A2E4B5E00E945F
:1004FC00B707B39904C00E94DE07119709F00DC02D
:10050C000E94BE07B39909C0B39BFECFE2E0F0E0B6
:10051C00E0937205F093730566DFC5CFFFCF0895A6
:10052C00AA931A93E0916500EF7EE093650018E0C2
:10053C00F6DFE981E07821F0E0916500E26003C02C
:10054C00E0916500ED7FE0936500E981EE0FE983B2
:10055C00E6DFE0916200E460E0936200E0DFE091AE
:10056C006200EB7FE0936200115011F7E09165009F
:10057C00E061E093650018810C944907AA93E0911F
:10058C006500EE7FE0936500A881CADFF1C0AA93F5
:10059C00E0916500E160E0936500A881C1DFE8C0EF
:1005AC00AA931A93E981E695E695E6951E2FE4E564
:1005BC00E19FF001DF01EA81F0E0EA0FFB1FE0931D
:1005CC007405F0937505E12F18810C949007AA938C
:1005DC00E981E068AE2FD2DFE981EA93A981E0DFFF
:1005EC00E064AE2FCBDF0C944907AA93E981EA9320
:1005FC00A981EDDFE0917405F0917505EA58FA4F89
:10060C00E0810C944907AA930E94E3073197EA58BA
:10061C00FA4FA881A083BBDFABC0BA93AA930E9408
:10062C009A08E0916400E061E0936400E091650059
:10063C00E061E0936500E0916100E460E0936100AB
:10064C00E0916200EB7FE0936200E0916400E26075
:10065C00E0936400E0916400E160E0936400E09159
:10066C006400E860E0936400E0916500E77FE0934C
:10067C006500AAE0B0E00E945108E0916500E860D6
:10068C00E0936500EC81FD81309721F1E681E37008
:10069C001E2FEC81FD81E681E695E695E7700E2F25
:1006AC00EC81FD81E781EF773E2FAC81BD810E940B
:1006BC007308E0935505F093560512960E94730843
:1006CC00E0936A05F0936B05AC81BD8114960E9492
:1006DC0073080DC010E003E032E3E0E0F0E0E093DB
:1006EC005505F0935605E0936A05F0936B05E0937E
:1006FC006C05F0936D05A1E241DFE12FE460AE2FB4
:10070C003DDFE02FE061AE2F39DFE32FE068AE2F45
:10071C0035DFA0E233DFA1E022D0E1E0E093510528
:10072C00E0E0E0935205E1E0E0935705E0935805D3
:10073C00E0935905EFEFE0935A05E1E0E093610592
:10074C00E2E6F5E0FA93EA93EFEFEA93A8E0B0E083
:10075C000E9430070FD0E1E00E94A10860C0AA936C
:10076C00E881E03011F0ECE001C0E8E0AE2F06DFEC
:10077C00219608950E949A0830E0E0915205E030ED
:10078C0009F03FEFE0E0EA93A0E021DF08EF11E091
:10079C00F80101501040309719F0A32F34DFF8CF37
:1007AC00E0E0EA93A0E049D30E94A1080C94AF07C3
:1007BC00AA931A93ED81EA93AD8117DF1E2FE9817D
:1007CC00E73011F0E83039F4EB81EA93AA810E940A
:1007DC004B07EB8308C0E33021F4EB81E095EB830E
:1007EC0002C0E03021F4EA81E0951E2302C0E23021
:1007FC0029F4EA81AB81EA231E2B0EC0E13029F4E7
:10080C00EA81AB81EA231E2707C0E43029F4EA8190
:10081C00E095AB81EA2B1E23A12FF5DE18812696DD
:10082C000895AA9323970E949808A889A43548F4A0
:10083C00AF85A03330F4AE85A03019F0AD85A03073
:10084C0009F4D5C1EE85E887A889BB27EE85F0E0D1
:10085C00AE0FBF1FA535E0E0BE0720F0A889E4E588
:10086C00EA1BEE872D85AF85BB27ED85F0E0AE0F3B
:10087C00BF1FD19720F0AF85E0E3EA1BED87A98578
:10088C00A63009F05BC0EC85E13009F4B0C1E3306F
:10089C0039F4E0916C05F0916D05309709F4A7C11E
:1008AC000885ED85E695E695E6953E2FE22FE770F7
:1008BC0019F4AD852A17E9F0A02FBB27E32FF0E040
:1008CC000E946B08AA85BB850E94E6072695269593
:1008DC002695532F5F935F5FE22FAF91EA1748F095
:1008EC00102FE12F1150E03019F00E94EB07F9CFD7
:1008FC00F1CFAE850A1711F1EE85AA85BB85F0E024
:10090C000E94E607ED85E77009F03F5F20E02F932A
:10091C002F5FE32FAF91AE1788F41E851F931F5FD7
:10092C00E02FAF91AE1718F40E94EB07F7CFEE85CE
:10093C00AE81BF81F0E00E94E607E9CFEF85E7705A
:10094C003E2FED85E03009F452C1EA85FB85EE833C
:10095C00FF8310E00889303009F066C0AD85A830FF
:10096C0008F45DC0E985E03011F0E33009F402C011
:10097C00E73009F402C0E83009F402C0E93009F4A8
:10098C0002C0EA3021F40A93A88921DE04C0E630C3
:10099C0011F40E94F8071F931F5FEE85AF91AE17FD
:1009AC00B8F5A985A63069F40E94FC07FA93EA937E
:1009BC000E94E3073197EA58FA4FA0810E949207F0
:1009CC0026C0E985E93011F450E00EC0EA3011F48C
:1009DC005FEF0AC00E94FC070E9405085E2FE985A4
:1009EC00E73011F0E83021F40E940B085E2F06C0AE
:1009FC00E33011F4509502C0E03019F4A52FC7DD97
:100A0C0006C00E940F08EFEFEA93AD85D1DEC3CF8D
:100A1C00EF85E85FEF87ED85E850ED87DFC05D85FA
:100A2C0020E0E0E0ED8781C0E32FAD85AE0FA9306B
:100A3C0020F42D85E0E0ED8703C0E8E0E31B2E2FCA
:100A4C003A93A22F0E9440074E2FE985E63029F5F4
:100A5C000E94F8071F931F5FEE85AF91AE17E0F46D
:100A6C000E94E3073197EA58FA4FE081E423AE2F56
:100A7C00E32F0E9463080E941508E32FA42F0E9405
:100A8C006308E095E1215E2B0E94FC07FA93EA9340
:100A9C00A52F0E949207DECF2CC0E93011F450E054
:100AAC0003C0EA30A9F45FEF0E940B08AE2FE32FCE
:100ABC000E945B085E2F1F931F5FEE85AF91AE17F0
:100ACC0030F40E940F084A93A0E072DEF4CF11C0FC
:100ADC001F931F5FEE85AF91AE1758F40E9420084C
:100AEC00AE2FE32F0E945B08EA934A93AD8560DE3C
:100AFC00EFCFED85E03009F47AC0AD85A83028F44D
:100B0C00ED85E21B5E2FE0E003C0532FED85E8502E
:100B1C00ED8710E0EF85E85FEF87E8E0E31B2E2F11
:100B2C000889EA85FB85EE83FF83E52FF0E0E05929
:100B3C00FD4F4491E985E63029F50E94F8071F9393
:100B4C001F5FEE85AF91AE17E0F40E94E30731977B
:100B5C00EA58FA4FE081E423AE2FE22F0E945B08A3
:100B6C000E941508E22FA42F0E945B08E095E1215A
:100B7C005E2B0E94FC07FA93EA93A52F0E94920722
:100B8C00DECF2CC0E93011F450E003C0EA30A9F4F8
:100B9C005FEF0E940B08AE2FE22F0E9463085E2FBE
:100BAC001F931F5FEE85AF91AE1730F40E940F08B4
:100BBC004A93A0E0FDDDF4CF11C01F931F5FEE85BB
:100BCC00AF91AE1758F40E942008AE2FE22F0E946E
:100BDC006308EA934A93AD85EBDDEFCFE885AA85F0
:100BEC00BB85F0E0EA0FFB1FEA87FB87AACE0E94C9
:100BFC009F08619608950E942D0824F0E0E0F0E033
:100C0C000C944907A881B981A435E0E0BE0724F013
:100C1C00E3E5F0E00C944907E881F9810C9449076D
:100C2C000E942D0824F0E0E0F0E00C944907A88124
:100C3C00B981D09724F0EFE2F0E00C944907E881F9
:100C4C00F9810C944907BA93AA9323970E9434080C
:100C5C008F01002E012A19F4E0E0F0E05FC00E9441
:100C6C003B080F820E943B080E820E943B080886BC
:100C7C00EB85A885EA1718F4E0E0F0E04FC0F80126
:100C8C000F5F1F4F5491A885BB27EE27A50FBE1FE2
:100C9C00EB85F0E0EA17FB0718F0E0E0F0E03EC06F
:100CAC00EE81E695E695E6954E2FEE81E77009F01C
:100CBC004F5FEF81E030A1F0A985BA85EC93A88550
:100CCC00EB85EA1BF0E0DF01EF81F0E00E946B089E
:100CDC00DF01E42FF0E00E946B08E00FF11F1EC053
:100CEC009801E52FF0E00E0F1F1FA885AF5FA887B6
:100CFC00A150EB85AE1760F4F9012F5F3F4FA49123
:100D0C00B0E0E42FF0E00E946B080E0F1F1FEDCF38
:100D1C00F901E491A985BA85EC93F8010E949F082A
:100D2C002C960895E0E0E0935305A0915405BB2761
:100D3C000E944008F0E0AE0FBF1FE0915805F0E0B4
:100D4C00AE0FBF1F6DDFE09354050895AA93219752
:100D5C000E943408309709F455C0AF81AA3009F4C9
:100D6C004FC0EF81EA93DE0117966DDFAF0130972C
:100D7C0009F44AC0E0915705AE81EA0F3E2FA091CD
:100D8C005305BB27F0E0EA0FFB1F8F010535E0E0B0
:100D9C001E0718F0032F1127C5DFE0915305EA93C6
:100DAC00E0915405EA93E885EA930E944008EA939F
:100DBC00E1E0EA935A934A93A7E033DDE0915305BF
:100DCC00AE81EA0FEA93E0915405EA93E09157055E
:100DDC00EA930E9440080E944708E0915305EA9369
:100DEC00A09154050E944008EA0FEA933A93E091CF
:100DFC0058050E944708E4E5F0E0E017F10711F40C
:100E0C0091DF02C0009353050E949F082896089515
:100E1C00BA93AA931A93EC81EA93AC810ED0A98170
:100E2C00BA81ED91A983BA831E2FE03019F0A12F5E
:100E3C008DDFF5CF18810C943E07AA93A981BB27AF
:100E4C00DADEE0935305A881BB27EADEE093540574
:100E5C000C944907BA93AA93B981A881109631F0E2
:100E6C00FC81EB816A8161931197E9F7EB81FC813D
:100E7C0025960895AA93E881F0E0E059FD4FA491DE
:100E8C00E9810E945B0822960895AA931A93E9813E
:100E9C00E73011F0EA3019F41091510509C0E9302E
:100EAC0019F41091520504C0E830A1F410916105B9
:100EBC00E0915205E03049F0103019F0EFEF188155
:100ECC0029C0EA81E095188125C0103019F4E0E0C2
:100EDC00188120C0EA8118811DC0BA93AA93EA81B7
:100EEC00E13021F4E881F981E49114C0E23029F475
:100EFC00A881B9810E9477080DC0E33041F4A88124
:100F0C00B981E0916A05F0916B05099503C0A88140
:100F1C00B981EC9123960895AA93EB81E03029F4E2
:100F2C00E881A981BA81EC9314C0E23031F4E881F4
:100F3C00A981BA810E9483080CC0E33051F4E98185
:100F4C00FA81FA93EA93AA81E0916C05F0916D0510
:100F5C00099524960895ED91FD913196FE93EE93AB
:100F6C0008950E94EC01E0E8F0E0FBBDEABD0895B5
:100F7C00A2E3B0E00C9451080E94EC01E0E0F0E038
:100F8C00FBBDEABDEAE0F0E0E0937005F09371057B
:100F9C000895E0937005F0937105A8EEB3E00C94FE
:100FAC005108E1E0F0E0E0937205F09373050895C9
:100FBC00A0917205B09173050895A4E7B5E0CBCF6D
:100FCC00EA0FFB1FEE83FF830895EC85EA93EF8114
:100FDC00F8853196EF83F8873197FA93EA93A0E07E
:100FEC000C9492070A93A8890C94D602EC85EA9388
:100FFC00EF81F8853196EF83F8873197089566274E
:10100C007727DF01CB010C9473075A93AA850C94B4
:10101C004B070A930395E889EA935A9308955E2F38
:10102C00EC85EA93AF81B885882799270E947307CE
:10103C001E2E08950A930395E889EA93EE85EA93A8
:10104C00E985FA853196E987FA873197D8CFBA9333
:10105C00AA93A881B9810E94940808950E949808C7
:10106C00E0915505F09156050895F8010F5F1F4F5B
:10107C0004900895E0915505F09156053196E49150
:10108C000895EA93E0E0EA93E0E0F0E0FA93EA9363
:10109C00A9E00C941704109639F080ED97E00197B5
:1010AC00F1F7A8951197C9F70895EE230E2EEA2FA4
:1010BC0019F0EE0F0A94E9F70895EE230E2EEA2F9D
:1010CC0019F0E6950A94E9F70895FA9FF02DEB9F35
:1010DC00F00DEA9FE02DF10D0895ED91FC91119723
:1010EC000895E199FECFFF93FFB7F894AEBBBFBB59
:1010FC00E09AEDB3FFBFFF910895E19B02C0A89564
:10110C00FCCF9FB7F894AEBBBFBBE09A8DB3E8178A
:10111C0019F0EDBBE29AE19A9FBF089500240A16DC
:10112C000B0608955A934A933A932A931A930A9367
:10113C0008955D814C813B812A8119810881089534
:00000001FF
