:040000000C947F01DC
:100004000C9400000C9400000C9400000C9400006C
:100014000C9400000C9400000C9400000C9400005C
:100024000C9400000C9400000C9400000C9400004C
:100034000C9400000C9400000C9400000C9400003C
:100044000C9400000C9400000C9400000C9400002C
:100054000C9400000C9400000C9400000C9400001C
:100064000C9400000C9400000C9400000C9400000C
:100074000C9400000C9400000C9400000C940000FC
:100084000C9400000C9400000507206000000000A0
:100094000000005F00000007000700147F147F14B5
:1000A400242A7F2A122313086462364955225000F9
:1000B40005030000001C2241000041221C00082A04
:1000C4001C2A0808083E08080050300000080808E8
:1000D4000808003030000020100804023E51494551
:1000E4003E00427F400042615149462141454B3127
:1000F4001814127F1027454545393C4A49493001B7
:10010400710905033649494936064949291E00360D
:10011400360000005636000000081422411414145E
:10012400141441221408000201510906324979418C
:100134003E7E1111117E7F494949363E414141229B
:100144007F4141221C7F494949417F090901013E00
:10015400414151327F0808087F00417F410020401F
:10016400413F017F081422417F404040407F020408
:10017400027F7F0408107F3E4141413E7F09090907
:10018400063E4151215E7F091929464649494931B4
:1001940001017F01013F4040403F1F2040201F7F5D
:1001A4002018207F63140814630304780403615146
:1001B40049454300007F4141020408102041417F2A
:1001C40000000402010204404040404000010204D7
:1001D4000020545454787F484444383844444420DC
:1001E400384444487F3854545418087E090102089E
:1001F4001454543C7F0804047800447D400020409B
:10020400443D00007F10284400417F40007C0418D6
:1002140004787C0804047838444444387C14141466
:1002240008081414187C7C08040408485454542006
:10023400043F4440203C4040207C1C2040201C3C87
:100244004030403C44281028440C5050503C4464F6
:10025400544C44000836410000007F000000413641
:10026400080002010204027F4141417F1027E80394
:1002740064000A00010000100001100001000001E8
:1002840003070F1F3F7FFF00000056415420544FC7
:100294004320444F2043414F00484F414E2054488F
:1002A400414E4820434855005452494E482047493E
:1002B4004154000080C001002D4E414E00494E467D
:1002C4000000020004008C020F0000058E020F00E3
:1002D4000F058E020F001E059D020B002D05AC02BA
:1002E4000F0038059D020B004705AC0202006F05A4
:1002F400B80201006D07BA020000F894EE27ECBBC7
:10030400F1E0F5BFE5BFE0936C008DE0A2E0BB2710
:10031400ED938A95E9F780E090E1A0E0B1E0ED93F8
:100324000197E9F7E6ECF2E085919591009761F089
:10033400A591B59105901590BF01F00105900D921E
:100344000197E1F7FB01F0CF8BBFEFEFEDBFE0E1E9
:10035400EEBFC0E0D5E00C9402022897ECE8F0E090
:10036400E883F983EE81EC7FEE83E37EE061EE8344
:10037400EF81E078E264EF83DE010E9467030C946E
:100384004B07A4E10E94BE020E9491020895BA9311
:10039400AA93A881EFEFEA1BE1BF0C948107BA93FB
:1003A400AA931A930A93042C052821F4EFE3F0E0AE
:1003B4002F011FC0AA81BB81549741F4D201E5E00B
:1003C400F0E00E94BC08E40DF51D09C0AA81BB81C0
:1003D400A436E0E0BE0721F4F201EE0FFF1F8F0107
:1003E4000030E1E01E0724F0EFEFF0E02F0101C040
:1003F4002801D201CCDFF2011981088124960895E5
:1004040000E010E0AADFBDDF8F9ABC9A979AE0E083
:10041400E0BFE4E7E3BFE0E0E2BFA0E0B0E0B7DFC5
:10042400A4E1B0E0BCDF8F01EFEFF0E0E017F107EB
:10043400A9F50E940E04E0E0EA93E4E1EA93A0E067
:10044400B5E00E94E907AFE0B5E00E94B202A0ED7A
:10045400B7E00E948308A0E0B0E099DF0E940E0498
:10046400E0E0EA93EAE0EA93AEE1B5E00E944D07EA
:10047400EAE0EA93EEE1EA93ADE2B5E00E94E9072F
:10048400A8E3B5E00E94B202E0E0EA93A1E00E9492
:100494008402A7E4B5E00E94B20201C0C1CFFFCF3D
:1004A400AA93E881E07111F0DB9A01C0DB98E8813E
:1004B400E07211F0DC9A01C0DC98E881E07411F07C
:1004C400DD9A01C0DD98E881E07811F0DE9A01C080
:1004D400DE988DE08A95F1F7DA9A8DE08A95F1F746
:1004E400DA988DE08A95F1F70C940C04AA93A8810C
:1004F400D7DFE881E295E883A881D2DF85E88A9591
:10050400F1F788C1AA93E881F0E0E159FA4FE0815C
:10051400A981AE0FEBDF798068800C948107A2E09B
:100524000E94F207ACE0E2DFA1E00E94F207E0E003
:100534006E2E7E2E0895AA93A881AA3011F0791404
:1005440048F0E0E0EA936394A62DDCDFA881AA30AA
:1005540009F460C17394D89AA881C8DFD8985AC1A5
:10056400BA93AA931A930E94F80719F0A12FE3DF14
:10057400FACF18810C94C807AA93D39AD49AD59A1F
:10058400D69AD29AD09AD19ADA98D898D99898804B
:10059400E881E058E0937105E881E054E093720546
:1005A400A4E1B0E00E9483080E9400080E940008B1
:1005B4000E940008A0E274DF88EC90E00197F1F754
:1005C400A8E294DFA4E092DFA5E890DFA6E08EDF46
:1005D400A6DF20C10895AA931A93E0916500EF7EE7
:1005E400E093650018E0F6DFE981E07821F0E0911E
:1005F4006500E26003C0E0916500ED7FE093650073
:10060400E981EE0FE983E6DFE0916500E460E093C1
:100614006500E0DFE0916500EB7FE0936500115039
:1006240011F7E0916500E061E093650018810C9496
:100634008107AA93E0916500EE7FE0936500A881AD
:10064400CADFE8C0AA93E0916500E160E093650029
:10065400A881C1DFDFC0AA931A93E981E695E695E4
:10066400E6951E2FE4E5E19FF001DF01EA81F0E069
:10067400EA0FFB1FE0937305F0937405E12F1881D3
:100684000C94C807AA93E981E068AE2FD2DFE98110
:10069400EA93A981E0DFE064AE2FCBDF0C948107FD
:1006A400AA93E981EA93A981EDDFE0917305F091C2
:1006B4007405EB58FA4FE0810C948107AA930E94C9
:1006C4000808A881A083BEDFA5C0BA93AA930E949C
:1006D400F608E0916400E0610E941308E061E09391
:1006E4006500E0916400E4600E941308EB7FE093EE
:1006F4006500E0916400E260E0936400E0916400CE
:10070400E160E0936400E0916400E8600E941308F3
:10071400E77FE0936500AAE0B0E00E948308E091DF
:100724006500E860E0936500EC81FD81309721F17C
:10073400E681E3701E2FEC81FD81E681E695E69566
:10074400E7700E2FEC81FD81E781EF773E2FAC81BE
:10075400BD810E94CF08E0935605F0935705129689
:100764000E94CF08E0936B05F0936C05AC81BD81CA
:1007740014960E94CF080DC010E003E032E3E0E0DD
:10078400F0E0E0935605F0935705E0936B05F09382
:100794006C05E0936D05F0936E05A1E24ADFE12F4D
:1007A400E460AE2F46DFE02FE061AE2F42DFE32F9F
:1007B400E068AE2F3EDFA0E23CDFA1E022D0E1E022
:1007C400E0935205E0E0E0935305E1E0E09358053F
:1007D400E0935905E0935A05EFEFE0935B05E1E000
:1007E400E0936205E3E6F5E0FA93EA93EFEFEA9328
:1007F400A8E0B0E00E9468070FD0E1E00E94FD0885
:1008040060C0AA93E881E03011F0ECE001C0E8E0B8
:10081400AE2F0FDF219608950E94F60830E0E09194
:100824005305E03009F03FEFE0E0EA93A0E02ADF6F
:1008340008EF11E0F80101501040309719F0A32F90
:100844003DDFF8CFE0E0EA93A0E034D30E94FD0856
:100854000C94E707AA931A93ED81EA93AD8120DF04
:100864001E2FE981E73011F0E83039F4EB81EA9387
:10087400AA810E948307EB8308C0E33021F4EB8153
:10088400E095EB8302C0E03021F4EA81E0951E2379
:1008940002C0E23029F4EA81AB81EA231E2B0EC0A8
:1008A400E13029F4EA81AB81EA231E2707C0E43052
:1008B40029F4EA81E095AB81EA2B1E23A12FFEDE09
:1008C400188126960895AA9323970E94F408A8896C
:1008D400A43548F4AF85A03330F4AE85A03019F0C8
:1008E400AD85A03009F4CCC1EE85E887A889BB2783
:1008F400EE85F0E0AE0FBF1FA535E0E0BE0720F0A7
:10090400A889E4E5EA1BEE872D85AF85BB27ED8535
:10091400F0E0AE0FBF1FD19720F0AF85E0E3EA1BF4
:10092400ED87A985A63009F05BC0EC85E13009F4B8
:10093400A7C1E33039F4E0916D05F0916E0530976D
:1009440009F49EC10885ED85E695E695E6953E2F6A
:10095400E22FE77019F4AD852A17E9F0A02FBB2721
:10096400E32FF0E00E94A108AA85BB850E94180825
:10097400269526952695532F5F935F5FE22FAF91BF
:10098400EA1748F0102FE12F1150E03019F00E94BF
:100994001D08F9CFF1CFAE850A1711F1EE85AA85AE
:1009A400BB85F0E00E941808ED85E77009F03F5F11
:1009B40020E02F932F5FE32FAF91AE1788F41E85AD
:1009C4001F931F5FE02FAF91AE1718F40E941D080C
:1009D400F7CFEE85AE81BF81F0E00E941808E9CF21
:1009E400EF85E7703E2FED85E03009F449C1EA85D3
:1009F400FB85EE83FF8310E00889303009F063C083
:100A0400AD85A83008F45AC0E985E03011F0E33030
:100A140009F402C0E73009F402C0E83009F402C066
:100A2400E93009F402C0EA3021F40A93A8892ADEE5
:100A340004C0E63011F40E942A081F931F5FEE855C
:100A4400AF91AE17A0F5A985A63051F40E942E08E7
:100A5400FA93EA930E940808A0810E94CA0726C05C
:100A6400E985E93011F450E00EC0EA3011F45FEF8B
:100A74000AC00E942E080E9437085E2FE985E730DD
:100A840011F0E83021F40E943D085E2F06C0E330E7
:100A940011F4509502C0E03019F4A52FD3DD06C03F
:100AA4000E944108EFEFEA93AD85D4DEC6CFEF850F
:100AB400E85FEF87ED85E850ED87D9C05D8520E0DC
:100AC400E0E0ED877EC0E32FAD85AE0FA93020F4C2
:100AD4002D85E0E0ED8703C0E8E0E31B2E2F3A9379
:100AE400A22F0E9478074E2FE985E63011F50E9467
:100AF4002A081F931F5FEE85AF91AE17C8F40E94BA
:100B04000808E081E423AE2FE32F0E9499080E9495
:100B14004708E32FA42F0E949908E095E1215E2B5A
:100B24000E942E08FA93EA93A52F0E94CA07E1CFE8
:100B34002CC0E93011F450E003C0EA30A9F45FEFAF
:100B44000E943D08AE2FE32F0E9491085E2F1F9351
:100B54001F5FEE85AF91AE1730F40E9441084A93AF
:100B6400A0E078DEF4CF11C01F931F5FEE85AF9134
:100B7400AE1758F40E945208AE2FE32F0E9491083A
:100B8400EA934A93AD8566DEEFCFED85E03009F454
:100B940077C0AD85A83028F4ED85E21B5E2FE0E038
:100BA40003C0532FED85E850ED8710E0EF85E85F33
:100BB400EF87E8E0E31B2E2F0889EA85FB85EE83A7
:100BC400FF83E52FF0E0EE57FD4F4491E985E630D1
:100BD40011F50E942A081F931F5FEE85AF91AE178F
:100BE400C8F40E940808E081E423AE2FE22F0E949B
:100BF40091080E944708E22FA42F0E949108E095D3
:100C0400E1215E2B0E942E08FA93EA93A52F0E94FD
:100C1400CA07E1CF2CC0E93011F450E003C0EA3038
:100C2400A9F45FEF0E943D08AE2FE22F0E949908BD
:100C34005E2F1F931F5FEE85AF91AE1730F40E94B5
:100C440041084A93A0E006DEF4CF11C01F931F5F52
:100C5400EE85AF91AE1758F40E945208AE2FE22FE2
:100C64000E949908EA934A93AD85F4DDEFCFE885B5
:100C7400AA85BB85F0E0EA0FFB1FEA87FB87B3CEAA
:100C84000E94FB08619608950E945F081CF0E0E052
:100C9400F0E035C1A881B981A435E0E0BE071CF0BD
:100CA400E3E5F0E02CC1E881F98129C10E945F08E5
:100CB4001CF0E0E0F0E023C1A881B981D0971CF0DA
:100CC400EFE2F0E01CC1E881F98119C1BA93AA935B
:100CD40023970E9466088F01002E012A19F4E0E090
:100CE400F0E05FC00E946D080F820E946D080E82C2
:100CF4000E946D080886EB85A885EA1718F4E0E0E1
:100D0400F0E04FC0F8010F5F1F4F5491A885BB2737
:100D1400EE27A50FBE1FEB85F0E0EA17FB0718F0DE
:100D2400E0E0F0E03EC0EE81E695E695E6954E2FD4
:100D3400EE81E77009F04F5FEF81E030A1F0A98503
:100D4400BA85EC93A885EB85EA1BF0E0DF01EF811F
:100D5400F0E00E94A108DF01E42FF0E00E94A10866
:100D6400E00FF11F1EC09801E52FF0E00E0F1F1FCA
:100D7400A885AF5FA887A150EB85AE1760F4F90191
:100D84002F5F3F4FA491B0E0E42FF0E00E94A10850
:100D94000E0F1F1FEDCFF901E491A985BA85EC93DD
:100DA400F8010E94FB082C960895E0E0E0935405B6
:100DB400A0915505BB270E947208F0E0AE0FBF1F3B
:100DC400E0915905F0E0AE0FBF1F70DFE0935505C9
:100DD4000895AA9321970E946608309709F455C094
:100DE400AF81AA3009F44FC0EF81EA93DE01179670
:100DF4006DDFAF01309709F44AC0E0915805AE8128
:100E0400EA0F3E2FA0915405BB27F0E0EA0FFB1F29
:100E14008F010535E0E01E0718F0032F1127C5DF09
:100E2400E0915405EA93E0915505EA93E885EA9345
:100E34000E947208EA93E1E0EA935A934A93A7E086
:100E440042DDE0915405AE81EA0FEA93E091550545
:100E5400EA93E0915805EA930E9472080E94790887
:100E6400E0915405EA93A09155050E947208EA0F97
:100E7400EA933A93E09159050E947908E4E5F0E099
:100E8400E017F10711F491DF02C0009354050E94AA
:100E9400FB0828960895BA93AA931A93EC81EA93CF
:100EA400AC8108D00E94F80719F0A12F92DFFACF85
:100EB40018811AC0AA93A981BB27E6DEE0935405E2
:100EC400A881BB27F3DEE093550519C0BA93AA9312
:100ED400B981A881109631F0FC81EB816A8161931C
:100EE4001197E9F7EB81FC8125960895AA93E8818F
:100EF400F0E0EE57FD4FA491E9810E9491082296FB
:100F04000895AA931A93E981E73011F0EA3019F4AD
:100F14001091520509C0E93019F41091530504C029
:100F2400E830A1F410916205E0915305E03049F0F6
:100F3400103019F0EFEF188129C0EA81E09518818B
:100F440025C0103019F4E0E0188120C0EA8118812E
:100F54001DC0BA93AA93EA81E13021F4E881F981B2
:100F6400E49114C0E23029F4A881B9810E94D30825
:100F74000DC0E33041F4A881B981E0916B05F09193
:100F84006C05099503C0A881B981EC912396089555
:100F9400AA93EB81E03029F4E881A981BA81EC932A
:100FA40014C0E23031F4E881A981BA810E94DF08DB
:100FB4000CC0E33051F4E981FA81FA93EA93AA81EF
:100FC400E0916D05F0916E050995249608950E94AF
:100FD4004D070E949102E0E0EA93A0E00C948402A1
:100FE4000E947802A3E0B0E00C948308A981BA813E
:100FF400ED91A983BA831E2FE0300895A0E30E94E7
:10100400520288EC90E00197F1F70895A3E7B5E068
:10101400ED91FD913196FE93EE933197EB58FA4F93
:101024000895E0936400E09165000895EA0FFB1FC2
:10103400EE83FF830895EC85EA93EF81F88531967A
:10104400EF83F8873197FA93EA93A0E00C94CA07E8
:101054000A93A8890C942D03EC85EA93EF81F88513
:101064003196EF83F8873197089566277727DF0154
:10107400CB010C94AB075A93AA850C9483070A936B
:101084000395E889EA935A9308955E2FEC85EA93D1
:10109400AF81B885882799270E94AB071E2E089533
:1010A4000A930395E889EA93EE85EA93E985FA853C
:1010B4003196E987FA873197D8CFBA93AA93A88152
:1010C400B9810E94F00808950E94F408E091560541
:1010D400F09157050895F8010F5F1F4F049008958C
:1010E400E0915605F09157053196E4910895EA93FD
:1010F400E0E0EA93E0E0F0E0FA93EA93A9E00C94EC
:101104006504109639F080ED97E00197F1F7A89502
:101114001197C9F70895F195E195F0400895EE23EC
:101124000E2EEA2F19F0EE0F0A94E9F70895EE2334
:101134000E2EEA2F19F0E6950A94E9F70895FA9F1E
:10114400F02DEB9FF00DEA9FE02DF10D08950024A2
:10115400112490E1AA0FBB1F001C111C0E1A1F0AB8
:1011640018F40E0E1F1E01C0A1609A9599F7FD0197
:10117400D001089504D0EBDF0EF4CDDF0895E89498
:10118400F7FF02C0C8DF6894B7FF06C0A095B0950A
:10119400119600F8039400FA0895ED91FC911197CB
:1011A4000895E199FECFFF93FFB7F894AEBBBFBBA0
:1011B400E09AEDB3FFBFFF910895E19B02C0A895AB
:1011C400FCCF9FB7F894AEBBBFBBE09A8DB3E817D2
:1011D40019F0EDBBE29AE19A9FBF089500240A1624
:1011E4000B0608955A934A933A932A931A930A93AF
:1011F40008955D814C813B812A811981088108957C
:00000001FF
