:100000000C9495010C9400000C9400000C940000DA
:100010000C9400000C9400000C9400000C94000060
:100020000C9400000C9400000C9400000C94000050
:100030000C9400000C9400000C9400000C94000040
:100040000C9400000C9400000C9400000C94000030
:100050000C9400000C9400000C9400000C94000020
:100060000C9400000C9400000C9400000C94000010
:100070000C9400000C9400000C9400000C94000000
:100080000C9400000C9400000C9400000507206004
:10009000000000000000005F0000000700070014DF
:1000A0007F147F14242A7F2A12231308646236499E
:1000B0005522500005030000001C2241000041228F
:1000C0001C00082A1C2A0808083E080800503000B6
:1000D000000808080808003030000020100804025A
:1000E0003E5149453E00427F400042615149462110
:1000F00041454B311814127F1027454545393C4A7C
:1001000049493001710905033649494936064949CB
:10011000291E003636000000563600000008142262
:100120004114141414144122140800020151090648
:10013000324979413E7E1111117E7F494949363E4F
:10014000414141227F4141221C7F494949417F0968
:100150000901013E414151327F0808087F00417F7B
:1001600041002040413F017F081422417F40404030
:10017000407F0204027F7F0408107F3E4141413EE0
:100180007F090909063E4151215E7F09192946462A
:100190004949493101017F01013F4040403F1F2053
:1001A00040201F7F2018207F631408146303047805
:1001B0000403615149454300007F41410204081096
:1001C0002041417F000004020102044040404040C1
:1001D000000102040020545454787F4844443838C5
:1001E00044444420384444487F3854545418087ECA
:1001F000090102081454543C7F0804047800447D2B
:1002000040002040443D00007F10284400417F40D2
:10021000007C041804787C0804047838444444388A
:100220007C14141408081414187C7C08040408486E
:1002300054545420043F4440203C4040207C1C2027
:1002400040201C3C4030403C44281028440C505076
:10025000503C4464544C44000836410000007F0088
:1002600000004136080002010204027F4141417F43
:10027000000103070F1F3F7FFF001027E803640002
:100280000A00010000100001100001000000010040
:1002900002000300040005000600070008003130DA
:1002A0003800202020202020202020202020202056
:1002B000202020202020002A004D6174206B6861DE
:1002C000752064756E6721004D6174206B686175DF
:1002D0002073616921004E686170206D6174206B2C
:1002E0006861753A000001002D4E414E00494E46AE
:1002F0000000110062058C02030078059E021500C3
:100300000005A20202001505B70202001705B70298
:100310000F001905B9020E002805C8020F003605A6
:10032000D60201007607E6020000F894EE27ECBB47
:10033000F1E0F5BFE5BFE0936C008DE0A2E0BB27E4
:10034000ED938A95E9F780E090E1A0E0B1E0ED93CC
:100350000197E9F7E2EFF2E085919591009761F05E
:10036000A591B59105901590BF01F00105900D92F2
:100370000197E1F7FB01F0CF8BBFEFEFEDBFE0E1BD
:10038000EEBFC0E0D5E00C94790222970E94A2084B
:1003900040E050E0EAE0EA93E4E1EA93A0E0B5E06F
:1003A0000E9411074330E0E05E070CF067C020E0D8
:1003B00030E02330E0E03E070CF052C0022E032A6A
:1003C00019F4EDEFE0936200E1E0F0E0E217F307EB
:1003D00019F4E7EFE0936200E2E0F0E0E217F307E0
:1003E00019F4EFEDE093620000E010E00330E0E08C
:1003F0001E079CF500240016010611F4029B0FC095
:10040000E1E0F0E0E017F10711F4049B08C0E2E03E
:10041000F0E0E017F10711F4009B01C01BC0FA01E6
:10042000EC58FA4FBF01A6E0A09FF001A19FF00D8C
:10043000EE59FA4FDF01F901EE0FFF1FAE0FBF1F9C
:10044000EC91E05DDB010E94B407A5E1B5E00E94FC
:10045000D00703C00F5F1F4FC9CF2F5F3F4FA9CFFA
:10046000B3990BC0A4E7B5E0A40FB51FE9E30E9460
:10047000B407A7E1B5E00E94D00794CFE0E0E09395
:1004800077050C940D070E94D907A9E1B5E004C0D7
:100490000E94D907A8E2B5E00E941107A0EDB7E0DD
:1004A0000E945B080895BA93AA93AA81BB81EC913C
:1004B000E03031F00C90A881B981EC91E01509F0A1
:1004C0000BC0EA81FB813196EA83FB83E881F981E5
:1004D0003196E883F983E9CFAA81BB810C9011247E
:1004E000A881B981AC91BB27F001EA1BFB0B0C94EE
:1004F000B2072897ECE8F0E0E883F983EE81EC7F1F
:10050000EE83E37EE061EE83EF81E078E264EF83E7
:10051000DE019BD0EAEEE0936100E5E1E09362004A
:10052000BB98C39A39D1E0E0EA93EAE0EA93A6E304
:10053000B5E00E94110729DFE4E7F5E0FA93EA93BA
:10054000A8E7B5E0B0DF309711F49DDF01C0A0DF70
:10055000E9CFFFCF0895AA931A93E0916500EF7E4B
:10056000E093650018E0F6DFE981E07821F0E091A2
:100570006500E26003C0E0916500ED7FE0936500F7
:10058000E981EE0FE983E6DFE0916500E460E09346
:100590006500E0DFE0916500EB7FE09365001150BE
:1005A00011F7E0916500E061E093650018810C941B
:1005B0004C07AA93E0916500EE7FE0936500A88167
:1005C000CADFE8C0AA93E0916500E160E0936500AE
:1005D000A881C1DFDFC0AA931A93E981E695E69569
:1005E000E6951E2FE4E5E19FF001DF01EA81F0E0EE
:1005F000EA0FFB1FE0937C05F0937D05E12F188146
:100600000C949307AA93E981E068AE2FD2DFE981C9
:10061000EA93A981E0DFE064AE2FCBDF0C944C07B6
:10062000AA93E981EA93A981EDDFE0917C05F0913D
:100630007D05E258FA4FE0810C944C07AA930E9482
:10064000E007A881A083BEDFA5C0BA93AA930E9449
:10065000A408E0916400E0610E94EB07E061E09390
:100660006500E0916400E4600E94EB07EB7FE0939B
:100670006500E0916400E260E0936400E091640052
:10068000E160E0936400E0916400E8600E94EB07A1
:10069000E77FE0936500AAE0B0E00E945B08E0918C
:1006A0006500E860E0936500EC81FD81309721F101
:1006B000E681E3701E2FEC81FD81E681E695E695EB
:1006C000E7700E2FEC81FD81E781EF773E2FAC8143
:1006D000BD810E947D08E0934905F0934A0512967A
:1006E0000E947D08E0935E05F0935F05AC81BD81BB
:1006F00014960E947D080DC010E003E032E3E0E0B4
:10070000F0E0E0934905F0934A05E0935E05F0932D
:100710005F05E0936005F0936105A1E24ADFE12FF8
:10072000E460AE2F46DFE02FE061AE2F42DFE32F23
:10073000E068AE2F3EDFA0E23CDFA1E022D0E1E0A6
:10074000E0934505E0E0E0934605E1E0E0934B05EA
:10075000E0934C05E0934D05EFEFE0934E05E1E0AB
:10076000E0935505E6E5F5E0FA93EA93EFEFEA93B7
:10077000A8E0B0E00E9433070FD0E1E00E94AB0890
:1007800060C0AA93E881E03011F0ECE001C0E8E03D
:10079000AE2F0FDF219608950E94A40830E0E0916B
:1007A0004605E03009F03FEFE0E0EA93A0E02ADF01
:1007B00008EF11E0F80101501040309719F0A32F15
:1007C0003DDFF8CFE0E0EA93A0E040D30E94AB0821
:1007D0000C94B207AA931A93ED81EA93AD8120DFBE
:1007E0001E2FE981E73011F0E83039F4EB81EA930C
:1007F000AA810E944E07EB8308C0E33021F4EB810D
:10080000E095EB8302C0E03021F4EA81E0951E23FD
:1008100002C0E23029F4EA81AB81EA231E2B0EC02C
:10082000E13029F4EA81AB81EA231E2707C0E430D6
:1008300029F4EA81E095AB81EA2B1E23A12FFEDE8D
:10084000188126960895AA9323970E94A208A88942
:10085000A43548F4AF85A03330F4AE85A03019F04C
:10086000AD85A03009F4CCC1EE85E887A889BB2707
:10087000EE85F0E0AE0FBF1FA535E0E0BE0720F02B
:10088000A889E4E5EA1BEE872D85AF85BB27ED85BA
:10089000F0E0AE0FBF1FD19720F0AF85E0E3EA1B79
:1008A000ED87A985A63009F05BC0EC85E13009F43D
:1008B000A7C1E33039F4E0916005F091610530970C
:1008C00009F49EC10885ED85E695E695E6953E2FEF
:1008D000E22FE77019F4AD852A17E9F0A02FBB27A6
:1008E000E32FF0E00E947508AA85BB850E94F007FF
:1008F000269526952695532F5F935F5FE22FAF9144
:10090000EA1748F0102FE12F1150E03019F00E9443
:10091000F507F9CFF1CFAE850A1711F1EE85AA855B
:10092000BB85F0E00E94F007ED85E77009F03F5FBE
:1009300020E02F932F5FE32FAF91AE1788F41E8531
:100940001F931F5FE02FAF91AE1718F40E94F507B9
:10095000F7CFEE85AE81BF81F0E00E94F007E9CFCE
:10096000EF85E7703E2FED85E03009F449C1EA8557
:10097000FB85EE83FF8310E00889303009F063C007
:10098000AD85A83008F45AC0E985E03011F0E330B5
:1009900009F402C0E73009F402C0E83009F402C0EB
:1009A000E93009F402C0EA3021F40A93A8892ADE6A
:1009B00004C0E63011F40E9402081F931F5FEE8509
:1009C000AF91AE17A0F5A985A63051F40E94060894
:1009D000FA93EA930E94E007A0810E94950726C03F
:1009E000E985E93011F450E00EC0EA3011F45FEF10
:1009F0000AC00E9406080E940F085E2FE985E730B2
:100A000011F0E83021F40E9415085E2F06C0E33093
:100A100011F4509502C0E03019F4A52FD3DD06C0C3
:100A20000E941908EFEFEA93AD85D4DEC6CFEF85BB
:100A3000E85FEF87ED85E850ED87D9C05D8520E060
:100A4000E0E0ED877EC0E32FAD85AE0FA93020F446
:100A50002D85E0E0ED8703C0E8E0E31B2E2F3A93FD
:100A6000A22F0E9443074E2FE985E63011F50E9420
:100A700002081F931F5FEE85AF91AE17C8F40E9466
:100A8000E007E081E423AE2FE32F0E946D080E946F
:100A90001F08E32FA42F0E946D08E095E1215E2B33
:100AA0000E940608FA93EA93A52F0E949507E1CFCA
:100AB0002CC0E93011F450E003C0EA30A9F45FEF34
:100AC0000E941508AE2FE32F0E9465085E2F1F932A
:100AD0001F5FEE85AF91AE1730F40E9419084A935C
:100AE000A0E078DEF4CF11C01F931F5FEE85AF91B9
:100AF000AE1758F40E942A08AE2FE32F0E94650813
:100B0000EA934A93AD8566DEEFCFED85E03009F4D8
:100B100077C0AD85A83028F4ED85E21B5E2FE0E0BC
:100B200003C0532FED85E850ED8710E0EF85E85FB7
:100B3000EF87E8E0E31B2E2F0889EA85FB85EE832B
:100B4000FF83E52FF0E0E059FD4F4491E985E63061
:100B500011F50E9402081F931F5FEE85AF91AE173B
:100B6000C8F40E94E007E081E423AE2FE22F0E9448
:100B700065080E941F08E22FA42F0E946508E095D7
:100B8000E1215E2B0E940608FA93EA93A52F0E94AA
:100B90009507E1CF2CC0E93011F450E003C0EA30F2
:100BA000A9F45FEF0E941508AE2FE22F0E946D0896
:100BB0005E2F1F931F5FEE85AF91AE1730F40E943A
:100BC00019084A93A0E006DEF4CF11C01F931F5FFF
:100BD000EE85AF91AE1758F40E942A08AE2FE22F8F
:100BE0000E946D08EA934A93AD85F4DDEFCFE88566
:100BF000AA85BB85F0E0EA0FFB1FEA87FB87B3CE2F
:100C00000E94A908619608950E94370824F0E0E048
:100C1000F0E00C944C07A881B981A435E0E0BE0750
:100C200024F0E3E5F0E00C944C07E881F9810C94A2
:100C30004C070E94370824F0E0E0F0E00C944C07E9
:100C4000A881B981D09724F0EFE2F0E00C944C0732
:100C5000E881F9810C944C07BA93AA9323970E94D8
:100C60003E088F01002E012A19F4E0E0F0E05FC099
:100C70000E9445080F820E9445080E820E94450886
:100C80000886EB85A885EA1718F4E0E0F0E04FC08D
:100C9000F8010F5F1F4F5491A885BB27EE27A50FC2
:100CA000BE1FEB85F0E0EA17FB0718F0E0E0F0E08C
:100CB0003EC0EE81E695E695E6954E2FEE81E77013
:100CC00009F04F5FEF81E030A1F0A985BA85EC9380
:100CD000A885EB85EA1BF0E0DF01EF81F0E00E94E0
:100CE0007508DF01E42FF0E00E947508E00FF11FA6
:100CF0001EC09801E52FF0E00E0F1F1FA885AF5F03
:100D0000A887A150EB85AE1760F4F9012F5F3F4F24
:100D1000A491B0E0E42FF0E00E9475080E0F1F1FB1
:100D2000EDCFF901E491A985BA85EC93F8010E9411
:100D3000A9082C960895E0E0E0934705A0914805A6
:100D4000BB270E944A08F0E0AE0FBF1FE0914C05A0
:100D5000F0E0AE0FBF1F6DDFE09348050895AA9342
:100D600021970E943E08309709F455C0AF81AA3000
:100D700009F44FC0EF81EA93DE0117966DDFAF01F2
:100D8000309709F44AC0E0914B05AE81EA0F3E2F3F
:100D9000A0914705BB27F0E0EA0FFB1F8F01053547
:100DA000E0E01E0718F0032F1127C5DFE09147058B
:100DB000EA93E0914805EA93E885EA930E944A089D
:100DC000EA93E1E0EA935A934A93A7E03CDDE0918D
:100DD0004705AE81EA0FEA93E0914805EA93E09176
:100DE0004B05EA930E944A080E945108E09147058A
:100DF000EA93A09148050E944A08EA0FEA933A93C1
:100E0000E0914C050E945108E4E5F0E0E017F1079D
:100E100011F491DF02C0009347050E94A9082896AB
:100E20000895BA93AA931A93EC81EA93AC810ED0F9
:100E3000A981BA81ED91A983BA831E2FE03019F000
:100E4000A12F8DDFF5CF18810C944107AA93A981BA
:100E5000BB27DADEE0934705A881BB27EADEE093F3
:100E600048050C944C07BA93AA93B981A8811096AF
:100E700031F0FC81EB816A8161931197E9F7EB8195
:100E8000FC8125960895AA93E881F0E0E059FD4F92
:100E9000A491E9810E94650822960895AA931A9365
:100EA000E981E73011F0EA3019F41091450509C0E5
:100EB000E93019F41091460504C0E830A1F410910E
:100EC0005505E0914605E03049F0103019F0EFEF9C
:100ED000188129C0EA81E095188125C0103019F4E5
:100EE000E0E0188120C0EA8118811DC0BA93AA935E
:100EF000EA81E13021F4E881F981E49114C0E23023
:100F000029F4A881B9810E9481080DC0E33041F421
:100F1000A881B981E0915E05F0915F05099503C054
:100F2000A881B981EC9123960895AA93EB81E030D2
:100F300029F4E881A981BA81EC9314C0E23031F43C
:100F4000E881A981BA810E948D080CC0E33051F478
:100F5000E981FA81FA93EA93AA81E0916005F09120
:100F60006105099524960895EC93A4E7B5E0A40FD4
:100F7000B51FEC91EE83E0E0EF83AAE04A020A920B
:100F8000E4E1EA93DE0118960E941107ACE2B1E0B9
:100F90000E945B08AAE04A020A92E4E1EA930895FB
:100FA0000E941107A4EFB1E00E945B084F5F5F4F02
:100FB00008950E94CC03E0E0EA93EEE1EA930895FD
:100FC000ACE7B5E0ED91FD913196FE93EE9331974C
:100FD000E258FA4F0895E0936400E09165000895A7
:100FE000EA0FFB1FEE83FF830895EC85EA93EF8100
:100FF000F8853196EF83F8873197FA93EA93A0E06A
:101000000C9495070A93A8890C94EB02EC85EA935B
:10101000EF81F8853196EF83F88731970895662739
:101020007727DF01CB010C9476075A93AA850C949D
:101030004E070A930395E889EA935A9308955E2F21
:10104000EC85EA93AF81B885882799270E947607B7
:101050001E2E08950A930395E889EA93EE85EA9394
:10106000E985FA853196E987FA873197D8CFBA931F
:10107000AA93A881B9810E949E0808950E94A2089F
:10108000E0914905F0914A050895F8010F5F1F4F5F
:1010900004900895E0914905F0914A053196E49154
:1010A0000895EA93E0E0EA93E0E0F0E0FA93EA934F
:1010B000A9E00C942304109639F080ED97E0019795
:1010C000F1F7A8951197C9F70895EE230E2EEA2F90
:1010D00019F0EE0F0A94E9F70895EE230E2EEA2F89
:1010E00019F0E6950A94E9F70895FA9FF02DEB9F21
:1010F000F00DEA9FE02DF10D0895ED91FC9111970F
:101100000895E199FECFFF93FFB7F894AEBBBFBB44
:10111000E09AEDB3FFBFFF910895E19B02C0A8954F
:10112000FCCF9FB7F894AEBBBFBBE09A8DB3E81776
:1011300019F0EDBBE29AE19A9FBF089500240A16C8
:101140000B0608955A934A933A932A931A930A9353
:1011500008955D814C813B812A8119810881089520
:00000001FF
