:100000000C9479010C9400000C9400000C940000F6
:100010000C9400000C9400000C9400000C94000060
:100020000C9400000C9400000C9400000C94000050
:100030000C9400000C9400000C94E5010C9400005A
:100040000C9400000C9400000C9400000C94000030
:100050000C9400000C9400000C9400000C94000020
:100060000C9400000C9400000C9400000C94000010
:100070000C9400000C9400000C9400000C94000000
:100080000C9400000C9400000C9400000507206004
:10009000000000000000005F0000000700070014DF
:1000A0007F147F14242A7F2A12231308646236499E
:1000B0005522500005030000001C2241000041228F
:1000C0001C00082A1C2A0808083E080800503000B6
:1000D000000808080808003030000020100804025A
:1000E0003E5149453E00427F400042615149462110
:1000F00041454B311814127F1027454545393C4A7C
:1001000049493001710905033649494936064949CB
:10011000291E003636000000563600000008142262
:100120004114141414144122140800020151090648
:10013000324979413E7E1111117E7F494949363E4F
:10014000414141227F4141221C7F494949417F0968
:100150000901013E414151327F0808087F00417F7B
:1001600041002040413F017F081422417F40404030
:10017000407F0204027F7F0408107F3E4141413EE0
:100180007F090909063E4151215E7F09192946462A
:100190004949493101017F01013F4040403F1F2053
:1001A00040201F7F2018207F631408146303047805
:1001B0000403615149454300007F41410204081096
:1001C0002041417F000004020102044040404040C1
:1001D000000102040020545454787F4844443838C5
:1001E00044444420384444487F3854545418087ECA
:1001F000090102081454543C7F0804047800447D2B
:1002000040002040443D00007F10284400417F40D2
:10021000007C041804787C0804047838444444388A
:100220007C14141408081414187C7C08040408486E
:1002300054545420043F4440203C4040207C1C2027
:1002400040201C3C4030403C44281028440C505076
:10025000503C4464544C44000836410000007F0088
:1002600000004136080002010204027F4141417F43
:100270001027E80364000A000100001000011000CC
:100280000100000103070F1F3F7FFF000000000176
:100290000100000001000200030004000500060048
:1002A000070008005441523A202564005354414E3F
:1002B000443A2025640043555252454E543A202575
:1002C00064005448414E47204D41590001002D4ED5
:1002D000414E00494E460000060004008C02110009
:1002E0004F0592020A000005C20201006407CC0219
:1002F0000000F894EE27ECBBF1E0F5BFE5BFE0931A
:100300006C008DE0A2E0BB27ED938A95E9F780E0D1
:1003100090E1A0E0B1E0ED930197E9F7E8EDF2E0BC
:1003200085919591009761F0A591B59105901590F3
:10033000BF01F00105900D920197E1F7FB01F0CFAD
:100340008BBFEFEFEDBFE0E1EEBFC0E0D5E00C9476
:10035000D9020E94EC0A30E03330A0F5303019F4B5
:10036000EDEFE0936200313019F4E7EFE0936200C3
:10037000323019F4EFEDE093620000E0033000F555
:10038000003041F4E0B1E4701E2F143019F00E94E7
:10039000C809F7C0013041F4E0B1E0711E2F1031FF
:1003A00019F00E94C809EDC0023041F4E0B1E170DB
:1003B0001E2F113019F00E94C809E3C00F5FDECF75
:1003C0003F5FCACFEFEFFFEFDCC00A921A92FA92BA
:1003D0006A937A938A939A93AA93BA93EA93FA9335
:1003E000EFB7EA931A930A93ECEFEDBDE0EEECBDA4
:1003F000F20131962F01E8ECF0E04E165F0614F0A2
:1004000044245524E7ECF0E0E415F505E1F4A1DF20
:100410008F01EFEFFFEFE017F107A9F00E94D70976
:10042000E1E0EC93EFE2F5E0FA93EA93E4EAF2E03C
:10043000FA93EA93F8010E94DC09E4E1EA93AFE35E
:10044000B5E00E940D0909911991E991EFBFF99169
:10045000E991B991A9919991899179916991F990CD
:100460001990099018950E94EC0A20E030E0940160
:10047000EFE2F5E0FA93EA93ECEAF2E0FA93EA931A
:10048000F9010E94DC09EAE0EA93AFE2B5E00E94DC
:100490000D0900E010E00930E0E01E0744F40E947E
:1004A000D709AC91A13019F00F5F1F4FF4CFE8E0EE
:1004B000F0E0E017F10709F464C07720D1F084017F
:1004C0000930E0E01E07ACF4E8E0F0E0E017F107E7
:1004D00029F40E94D709AC91A03009F002C077241A
:1004E00005C00E94D709AC91A13019F00F5F1F4FD2
:1004F000E7CF7720C1F484011123AAF0002400166D
:10050000010629F40E94D709AC91A03009F003C07C
:10051000E1E07E2E36C00E94D709AC91A13019F0DF
:1005200001501040E9CFA1E6B5E0A80DB91DEC914E
:10053000E03009F5772029F0F40131964F01319729
:1005400004C0F40131974F013196E7E2F5E0FA93E8
:10055000EA93E6EBF2E0FA93EA93F4010E94DC09F5
:10056000EEE1EA93A7E2B5E00E940D09A8EEB3E040
:100570000E948D0AD8CFA1E6B5E0A80DB91DE0E034
:10058000EC930E94F30A249608952897ECE8F0E093
:10059000E883F983EE81EC7FEE83E37EE061EE8316
:1005A000EF81E078E264EF83DE010E94180528966F
:1005B0000895EAEEE0936100E0E0EFBDE1E0EEBD1A
:1005C000ECEFEDBDE0EEECBDE4E0E7BFE0E0E09392
:1005D0007D007894DADF0E94BF05EAE0EA93E0E06C
:1005E000EA93A0E0B5E00E940D093DDFFECFFFCF0A
:1005F000BA93AA931A930A93AA81BB8112960E9476
:10060000BC0A309729F1AA81BB8114960E94BC0ACA
:100610008F01309761F00230E0E01E0780F0F801B2
:1006200031978F01AA81BB811496ED93FC93AA8127
:10063000BB8112960E94E8093197AC81A083AA8100
:10064000BB810E94BC0AFF2312F00E94E80906C089
:10065000AA81BB81EFEFFFEFED93FC931981088135
:1006600025960895BA93AA9326970E94EA0A10E065
:10067000AC85BD85E0E0F0E0ED93FC93EA89FB8971
:100680003196EA8BFB8B3197E4912E2FE03009F401
:1006900015C1E12FE03039F4253211F411E002C028
:1006A0000E94EE090AC1E130A9F4253219F40E9432
:1006B000EE0902C112E040E000E02D3211F401E049
:1006C000FCC02B3211F44BE2F8C0203211F440E2AE
:1006D000F4C002C0E23039F450E013E0203311F4EA
:1006E0000068EBC003C0E33009F0E7C0203310F02E
:1006F0002A3308F007C0AAE05A9F502DE22FE0539A
:100700005E0FDBC0E22FE33649F40E94F509E88969
:10071000F989A481AA930E94FB09CEC0E33741F472
:100720000E94F5090E94010A0E943E091E2F0AC07C
:10073000E03761F40E94F5090E94010A0E944A090B
:100740001E2F086002600F7730E034C0E43611F0ED
:10075000E93611F4046002C0E53731F4E0E7F2E075
:10076000EE83FF8315E00CC0E83511F4086003C088
:10077000E83709F0A1C0EAE7F2E0EE83FF8314E076
:1007800002FF14C00E94F5090E940B0AAB85AA2340
:100790003AF4EA85FB850E949B0AEA87FB874DE2D3
:1007A000403011F01F5F01C00B7F04C00E94F509AB
:1007B0000E940B0A00FD11C0151778F407FF08C04E
:1007C00002FF04C00B7F242F115001C020E301C0A1
:1007D00020E20E94EE095150EFCF312F01FF17C0E8
:1007E0003030A1F003FF06C0EE81FF812591EE833A
:1007F000FF8305C0AE81BF812D91AE83BF830E9470
:10080000EE09503009F051503150EACF4BC020E38F
:10081000EE81FF810E94C00AE887F987EE81FF819F
:100820003296EE83FF83E885F985AA85BB85AE17EE
:10083000BF0750F02F5FA885B985EA85FB85EA1BC5
:10084000FB0BEA87FB87EFCF2A3328F003FF02C0B8
:10085000295F01C0295D04FD1AC0213320F4A88559
:10086000B985119709F409C0531710F000FF01C0B2
:1008700013C020E207FF0BC020E3006102FF07C0A6
:100880000B7F4A930E94FB09503009F051500E949F
:10089000EE09503009F051503150A885B9851297B2
:1008A00008F0B5CF00FF08C0503031F05150E0E201
:1008B000EA930E94FB09F8CF10E0E0CEAC85BD853D
:1008C0000E94BC0A0E94F10A64960895FF92F82ED5
:1008D00026970E94EC0A0E94130A309719F4EFEF52
:1008E000FFEF23C0DE0116960E94970A8D010E9439
:1008F000130AEE83FF83E0E0E887E987DE011A96BA
:100900000E94970A0E94BC0AFA93EA931A930A93E8
:10091000E8EFF2E0FA93EA93DE011A96A3DE9F0174
:10092000AE81BF81E0E0EC93F9010E94F30A2A96C0
:10093000FF9008950895AA931A93E0916500EF7EC1
:10094000E093650018E0F6DFE981E07821F0E091BE
:100950006500E26003C0E0916500ED7FE093650013
:10096000E981EE0FE983E6DFE0916500E460E09362
:100970006500E0DFE0916500EB7FE09365001150DA
:1009800011F7E0916500E061E093650018810C9437
:100990006009AA93E0916500EE7FE0936500A8816D
:1009A000CADFEBC0AA93E0916500E160E0936500C7
:1009B000A881C1DFE2C0AA931A93E981E695E69582
:1009C000E6951E2FE4E5E19FF001DF01EA81F0E00A
:1009D000EA0FFB1FE0936A05F0936B05E12F188186
:1009E0000C94A709AA93E981E068AE2FD2DFE981D0
:1009F000EA93A981E0DFE064AE2FCBDF0C946009BD
:100A0000AA93E981EA93A981EDDFE0916A05F0916B
:100A10006B05E459FA4FE0810C946009AA930E9497
:100A20001A0A3197E459FA4FA881A083BBDFA5C009
:100A3000BA93AA930E94EC0AE0916400E0610E94DC
:100A40001D0AE061E0936500E0916400E4600E94AB
:100A50001D0AEB7FE0936500E0916400E260E093A3
:100A60006400E0916400E160E0936400E091640060
:100A7000E8600E941D0AE77FE0936500AAE0B0E00D
:100A80000E948D0AE0916500E860E0936500EC81CA
:100A9000FD81309721F1E681E3701E2FEC81FD810D
:100AA000E681E695E695E7700E2FEC81FD81E78102
:100AB000EF773E2FAC81BD810E94BC0AE0930E050A
:100AC000F0930F0512960E94BC0AE0932305F09361
:100AD0002405AC81BD8114960E94BC0A0DC010E0B3
:100AE00003E032E3E0E0F0E0E0930E05F0930F0561
:100AF000E0932305F0932405E0932505F093260564
:100B0000A1E247DFE12FE460AE2F43DFE02FE06199
:100B1000AE2F3FDFE32FE068AE2F3BDFA0E239DFEF
:100B2000A1E022D0E1E0E0930A05E0E0E0930B05CC
:100B3000E1E0E0931005E0931105E0931205EFEF7B
:100B4000E0931305E1E0E0931A05EBE1F5E0FA9399
:100B5000EA93EFEFEA93A8E0B0E00E942E090FD0ED
:100B6000E1E00E94F30A60C0AA93E881E03011F04E
:100B7000ECE001C0E8E0AE2F0CDF219608950E9462
:100B8000EC0A30E0E0910B05E03009F03FEFE0E0E7
:100B9000EA93A0E027DF08EF11E0F80101501040D0
:100BA000309719F0A32F3ADFF8CFE0E0EA93A0E006
:100BB00048D30E94F30A0C94C609AA931A93ED81B4
:100BC000EA93AD811DDF1E2FE981E73011F0E83097
:100BD00039F4EB81EA93AA810E946209EB8308C091
:100BE000E33021F4EB81E095EB8302C0E03021F4A7
:100BF000EA81E0951E2302C0E23029F4EA81AB814C
:100C0000EA231E2B0EC0E13029F4EA81AB81EA23EE
:100C10001E2707C0E43029F4EA81E095AB81EA2B76
:100C20001E23A12FFBDE188126960895AA932397F1
:100C30000E94EA0AA889A43548F4AF85A03330F4AD
:100C4000AE85A03019F0AD85A03009F4D5C1EE8590
:100C5000E887A889BB27EE85F0E0AE0FBF1FA5355A
:100C6000E0E0BE0720F0A889E4E5EA1BEE872D85C9
:100C7000AF85BB27ED85F0E0AE0FBF1FD19720F009
:100C8000AF85E0E3EA1BED87A985A63009F05BC0DC
:100C9000EC85E13009F4B0C1E33039F4E091250589
:100CA000F0912605309709F4A7C10885ED85E695F2
:100CB000E695E6953E2FE22FE77019F4AD852A17E9
:100CC000E9F0A02FBB27E32FF0E00E94B40AAA8529
:100CD000BB850E94220A269526952695532F5F9361
:100CE0005F5FE22FAF91EA1748F0102FE12F11500C
:100CF000E03019F00E94270AF9CFF1CFAE850A172C
:100D000011F1EE85AA85BB85F0E00E94220AED85EF
:100D1000E77009F03F5F20E02F932F5FE32FAF9143
:100D2000AE1788F41E851F931F5FE02FAF91AE179B
:100D300018F40E94270AF7CFEE85AE81BF81F0E05C
:100D40000E94220AE9CFEF85E7703E2FED85E03063
:100D500009F452C1EA85FB85EE83FF8310E0088920
:100D6000303009F066C0AD85A83008F45DC0E98573
:100D7000E03011F0E33009F402C0E73009F402C0BA
:100D8000E83009F402C0E93009F402C0EA3021F485
:100D90000A93A88927DE04C0E63011F40E94340AC1
:100DA0001F931F5FEE85AF91AE17B8F5A985A630EA
:100DB00069F40E94380AFA93EA930E941A0A31975A
:100DC000E459FA4FA0810E94A90926C0E985E930BB
:100DD00011F450E00EC0EA3011F45FEF0AC00E9437
:100DE000380A0E94410A5E2FE985E73011F0E830A9
:100DF00021F40E94470A5E2F06C0E33011F450959B
:100E000002C0E03019F4A52FCDDD06C00E944B0AC8
:100E1000EFEFEA93AD85D1DEC3CFEF85E85FEF87D3
:100E2000ED85E850ED87DFC05D8520E0E0E0ED87EF
:100E300081C0E32FAD85AE0FA93020F42D85E0E011
:100E4000ED8703C0E8E0E31B2E2F3A93A22F0E9408
:100E500057094E2FE985E63029F50E94340A1F9381
:100E60001F5FEE85AF91AE17E0F40E941A0A31972A
:100E7000E459FA4FE081E423AE2FE32F0E94A70A42
:100E80000E94510AE32FA42F0E94A70AE095E121B6
:100E90005E2B0E94380AFA93EA93A52F0E94A909B3
:100EA000DECF2CC0E93011F450E003C0EA30A9F4E1
:100EB0005FEF0E94470AAE2FE32F0E949F0A5E2F2A
:100EC0001F931F5FEE85AF91AE1730F40E944B0A5F
:100ED0004A93A0E072DEF4CF11C01F931F5FEE852E
:100EE000AF91AE1758F40E945C0AAE2FE32F0E9418
:100EF0009F0AEA934A93AD8560DEEFCFED85E0303F
:100F000009F47AC0AD85A83028F4ED85E21B5E2F88
:100F1000E0E003C0532FED85E850ED8710E0EF854A
:100F2000E85FEF87E8E0E31B2E2F0889EA85FB8561
:100F3000EE83FF83E52FF0E0EE57FD4F4491E98506
:100F4000E63029F50E94340A1F931F5FEE85AF91AA
:100F5000AE17E0F40E941A0A3197E459FA4FE08183
:100F6000E423AE2FE22F0E949F0A0E94510AE22F33
:100F7000A42F0E949F0AE095E1215E2B0E94380A6F
:100F8000FA93EA93A52F0E94A909DECF2CC0E9307D
:100F900011F450E003C0EA30A9F45FEF0E94470A61
:100FA000AE2FE22F0E94A70A5E2F1F931F5FEE85D0
:100FB000AF91AE1730F40E944B0A4A93A0E0FDDDDA
:100FC000F4CF11C01F931F5FEE85AF91AE1758F499
:100FD0000E945C0AAE2FE22F0E94A70AEA934A936E
:100FE000AD85EBDDEFCFE885AA85BB85F0E0EA0FA4
:100FF000FB1FEA87FB87AACE0E94F10A619608953B
:101000000E94690A24F0E0E0F0E00C946009A881F5
:10101000B981A435E0E0BE0724F0E3E5F0E00C94EC
:101020006009E881F9810C9460090E94690A24F042
:10103000E0E0F0E00C946009A881B981D09724F039
:10104000EFE2F0E00C946009E881F9810C9460090A
:10105000BA93AA9323970E94700A8F01002E012A47
:1010600019F4E0E0F0E05FC00E94770A0F820E946E
:10107000770A0E820E94770A0886EB85A885EA1710
:1010800018F4E0E0F0E04FC0F8010F5F1F4F5491FB
:10109000A885BB27EE27A50FBE1FEB85F0E0EA175A
:1010A000FB0718F0E0E0F0E03EC0EE81E695E69543
:1010B000E6954E2FEE81E77009F04F5FEF81E0304B
:1010C000A1F0A985BA85EC93A885EB85EA1BF0E031
:1010D000DF01EF81F0E00E94B40ADF01E42FF0E0CD
:1010E0000E94B40AE00FF11F1EC09801E52FF0E046
:1010F0000E0F1F1FA885AF5FA887A150EB85AE1705
:1011000060F4F9012F5F3F4FA491B0E0E42FF0E0CD
:101110000E94B40A0E0F1F1FEDCFF901E491A985BB
:10112000BA85EC93F8010E94F10A2C960895E0E04C
:10113000E0930C05A0910D05BB270E947C0AF0E00E
:10114000AE0FBF1FE0911105F0E0AE0FBF1F6DDFC6
:10115000E0930D050895AA9321970E94700A309795
:1011600009F455C0AF81AA3009F44FC0EF81EA936A
:10117000DE0117966DDFAF01309709F44AC0E091A8
:101180001005AE81EA0F3E2FA0910C05BB27F0E0C1
:10119000EA0FFB1F8F010535E0E01E0718F0032F53
:1011A0001127C5DFE0910C05EA93E0910D05EA9364
:1011B000E885EA930E947C0AEA93E1E0EA935A9375
:1011C0004A93A7E033DDE0910C05AE81EA0FEA9384
:1011D000E0910D05EA93E0911005EA930E947C0AE4
:1011E0000E94830AE0910C05EA93A0910D050E94EC
:1011F0007C0AEA0FEA933A93E09111050E94830A70
:10120000E4E5F0E0E017F10711F491DF02C000938C
:101210000C050E94F10A28960895BA93AA931A938E
:10122000EC81EA93AC810DD0A981BA81ED91A983BB
:10123000BA831E2FE03019F0A12F8DDFF5CF188172
:101240001BC0AA93A981BB27DBDEE0930C05A88114
:10125000BB27EBDEE0930D050C946009BA93AA93CB
:10126000B981A881109631F0FC81EB816A8161938C
:101270001197E9F7EB81FC8125960895BA93AA931B
:10128000A991B991EE27FF276D91662311F0319650
:10129000FBCF0895BA93AA93AA27BB27E991F991A6
:1012A0000590002011F01196FBCFFD010895AA933F
:1012B000E881F0E0EE57FD4FA491E9810E949F0A7A
:1012C00022960895AA931A93E981E73011F0EA3043
:1012D00019F410910A0509C0E93019F410910B05B1
:1012E00004C0E830A1F410911A05E0910B05E0303C
:1012F00049F0103019F0EFEF188129C0EA81E0952C
:10130000188125C0103019F4E0E0188120C0EA816E
:1013100018811DC0BA93AA93EA81E13021F4E881D3
:10132000F981E49114C0E23029F4A881B9810E94C6
:10133000C90A0DC0E33041F4A881B981E0912305C9
:10134000F0912405099503C0A881B981EC912396F9
:101350000895AA93EB81E03029F4E881A981BA814C
:10136000EC9314C0E23031F4E881A981BA810E9483
:10137000D50A0CC0E33051F4E981FA81FA93EA937B
:10138000AA81E0912505F0912605099524960895F6
:10139000A6E00A9FF001E15BFA4FDF01E32FF0E0E6
:1013A000EE0FFF1FAE0FBF1F0E94BC0A0895A1E6FB
:1013B000B5E0A00FB11F089531960E94AF0A0E94B8
:1013C000C40A84E00E9466042896EAE0EA9308953D
:1013D000ED91FD913196FE93EE9308952A93AD859C
:1013E000BE85EF85F88909950895E889F9893497CC
:1013F000E88BF98B0895AD85BE85EF85F889099551
:101400000895A889B98914960E94BC0AEE83FF83C7
:10141000AE81BF810895A889B98914960E94BC0A3B
:10142000EA87FB870895DE011C960E94970A0E94B6
:10143000BC0A0895AAE6B5E0CBCFE0936400E09142
:1014400065000895EA0FFB1FEE83FF830895EC8586
:10145000EA93EF81F8853196EF83F8873197FA9315
:10146000EA93A0E00C94A9090A93A8890C94DB04E0
:10147000EC85EA93EF81F8853196EF83F887319711
:10148000089566277727DF01CB010C948A095A93C8
:10149000AA850C9462090A930395E889EA935A9302
:1014A00008955E2FEC85EA93AF81B8858827992748
:1014B0000E948A091E2E08950A930395E889EA93EB
:1014C000EE85EA93E985FA853196E987FA873197BF
:1014D000D8CFBA93AA93A881B9810E94E60A089549
:1014E0000E94EA0AE0910E05F0910F050895F801B7
:1014F0000F5F1F4F04900895E0910E05F0910F05C6
:101500003196E4910895EA93E0E0EA93E0E0F0E0B8
:10151000FA93EA93A9E00C941606109639F080ED40
:1015200097E00197F1F7A8951197C9F7089500245E
:10153000AF0DB01D0895F195E195F0400895EE23AB
:101540000E2EEA2F19F0EE0F0A94E9F70895EE2314
:101550000E2EEA2F19F0E6950A94E9F708956F2FF9
:10156000660F660B762F0895FA9FF02DEB9FF00D16
:10157000EA9FE02DF10D0895ED91FC9111970895EA
:101580000590F491E02D08957A936A93FA93EA9383
:101590000895E199FECFFF93FFB7F894AEBBBFBBB0
:1015A000E09AEDB3FFBFFF910895E19B02C0A895BB
:1015B000FCCF9FB7F894AEBBBFBBE09A8DB3E817E2
:1015C00019F0EDBBE29AE19A9FBF089500240A1634
:1015D0000B0608955A934A933A932A931A930A93BF
:1015E00008955D814C813B812A811981088108958C
:00000001FF
