:060000000C948B010C942E
:1000060000000C9400000C9400000C9400000C946A
:1000160000000C9400000C9400000C9400000C945A
:1000260000000C9400000C9400000C9400000C944A
:1000360000000C9400000C9400000C94CE010C946B
:1000460000000C9400000C9400000C9400000C942A
:1000560000000C9400000C9400000C9400000C941A
:1000660000000C9400000C9400000C9400000C940A
:1000760000000C9400000C9400000C9400000C94FA
:1000860000000C940000050720600000000000003E
:10009600005F00000007000700147F147F14242A65
:1000A6007F2A12231308646236495522500005033D
:1000B6000000001C2241000041221C00082A1C2AC4
:1000C6000808083E0808005030000008080808081C
:1000D600003030000020100804023E5149453E0021
:1000E600427F400042615149462141454B31181437
:1000F600127F1027454545393C4A49493001710967
:1001060005033649494936064949291E003636004F
:10011600000056360000000814224114141414146A
:1001260041221408000201510906324979413E7EF6
:100136001111117E7F494949363E414141227F4195
:1001460041221C7F494949417F090901013E41413C
:1001560051327F0808087F00417F41002040413F1F
:10016600017F081422417F404040407F0204027F05
:100176007F0408107F3E4141413E7F090909063E42
:100186004151215E7F0919294646494949310101F4
:100196007F01013F4040403F1F2040201F7F201825
:1001A600207F6314081463030478040361514945EE
:1001B6004300007F4141020408102041417F0000B6
:1001C60004020102044040404040000102040020B5
:1001D600545454787F48444438384444442038447E
:1001E60044487F3854545418087E090102081454B0
:1001F600543C7F0804047800447D40002040443D80
:1002060000007F10284400417F40007C04180478D9
:100216007C0804047838444444387C1414140808D0
:100226001414187C7C080404084854545420043FD1
:100236004440203C4040207C1C2040201C3C403058
:10024600403C44281028440C5050503C4464544CC4
:1002560044000836410000007F00000041360800D7
:1002660002010204027F4141417F000103070F1F83
:100276003F7FFF001027E80364000A00010000101A
:100286000001100001000C00000EFF00FF00FF003F
:10029600253032643A253032643A253032640043E0
:1002A6006F756E74646F776E3A2025303264730012
:1002B6002020202020202020202020202020202038
:1002C60020202020202000466565642054696D6545
:1002D600210001002D4E414E00494E46000004000B
:1002E60006008C0201005405900201005505920299
:1002F60001005605940217000005B6020B0017050B
:10030600CD0215002205B80201005107D8020000EF
:10031600F894EE27ECBBF1E0F5BFE5BFE0936C0087
:100326008DE0A2E0BB27ED938A95E9F780E090E1A6
:10033600A0E0B1E0ED930197E9F7E4EEF2E08591F4
:100346009591009761F0A591B59105901590BF0123
:10035600F00105900D920197E1F7FB01F0CF8BBFFD
:10036600EFEFEDBFE0E1EEBFC0E0D5E00C943B025D
:100376002897ECE8F0E0E883F983EE81EC7FEE83E2
:10038600E37EE061EE83EF81E078E264EF83DE01F5
:100396005CD10C941307EA93FA93EFB7EA93E6E07D
:1003A600E2BFF60131966F01E8EEF3E0EC15FD05CC
:1003B60019F4E1E0F0E05F01E0EDF7E0EC15FD0592
:1003C60021F4CC24DD24AA24BB24E991EFBFF991C2
:1003D600E9911895E0915405E51541F4E09155052C
:1003E600E41521F4E0915605E71519F16497FE012D
:1003F600FA93EA93E6E9F2E0FA93EA93E52D0E948E
:10040600E609E42D0E94E609E72D0E94E6098CE044
:100416000E94AA086096EAE0EA93EA93DE01129641
:100426000E94150750925405409255057092560544
:1004360064960895BA93AA936497FE01FA93EA9391
:10044600E5EAF2E0FA93EA93E88DF98D0E94230B30
:100456000E94380B84E00E94AA082896E0E0EA93FE
:10046600E9E1EA93DE0112960E9415076696089561
:10047600E0E0E0BFE3E0E3BFE6E0E2BFE0E0E1BFEB
:10048600E1E0E7BFE0E0E0937D000E94B00A70DFA4
:10049600E3E0EA93E1E0EA93A0E00E94DE08ECE004
:1004A600EA93EDE0EA93A2E30E941B0978940E9486
:1004B600EC09651459F4E92DF0E03197A42DB0E06C
:1004C600EA17FB0719F4E7E37E1608F43FC0229704
:1004D600E72DF0E0ACE3B0E00E943D0BEA1BFB0B1E
:1004E600E883F983A881B981A5DFEBE3E71569F510
:1004F6002197E0E0E883A8EEB3E00E94010BE0E07C
:10050600EA93E9E1EA93A0E0B5E00E941507A88125
:10051600A53090F40E94EC09E5E0EA93E8E1EA935D
:10052600A7E1B5E00E941507A8EEB3E00E94010B13
:10053600E881EF5FE883EBCFE5E0EA93E8E1EA9351
:10054600A2E2B5E00E94150721962296A4E6B0E045
:100556000E94010BACCFFFCF0895AA931A93E091A6
:100566006500EF7EE093650018E0F6DFE981E0784C
:1005760021F0E0916500E46003C0E0916500EB7F47
:10058600E0936500E981EE0FE983E6DFE09165001F
:10059600E260E0936500E0DFE0916500ED7FE093C7
:1005A6006500115011F7E0916500E061E093650088
:1005B600188142C0AA93E0916500EE7FE093650042
:1005C600A881CBDFE8C0AA93E0916500E160E093E3
:1005D6006500A881C2DFDFC0AA931A93E981E69578
:1005E600E695E6951E2FE4E5E19FF001DF01EA813D
:1005F600F0E0EA0FFB1FE0935705F0935805E12F53
:10060600188123960895AA93E981E068AE2FD2DF78
:10061600E981EA93A981E0DFE064AE2FCBDF0CC06D
:10062600AA93E981EA93A981EEDFE0915705F0915B
:100636005805E75AFA4FE08122960895AA930E9438
:10064600FA09A881A083BFDFA6C0BA93AA930E9425
:10065600670BE0916400E0610E94050AE061E093A7
:100666006500E0916400E2600E94050AED7FE09378
:100676006500E0916400E460E0936400E09164004A
:10068600E160E0936400E0916400E8600E94050A7E
:10069600E77FE0936500AAE0B0E00E94010BE091DD
:1006A6006500E860E0936500EC81FD81309721F1FB
:1006B600E681E3701E2FEC81FD81E681E695E695E5
:1006C600E7700E2FEC81FD81E781EF773E2FAC813D
:1006D600BD810E94300BE0933B05F0933C051296DA
:1006E6000E94300BE0935005F0935105AC81BD811B
:1006F60014960E94300B0DC010E003E032E3E0E0F8
:10070600F0E0E0933B05F0933C05E0935005F09351
:100716005105E0935205F0935305A1E24BDFE12F1B
:10072600E460AE2F47DFE02FE061AE2F43DFE32F1B
:10073600E068AE2F3FDFA0E23DDFA1E023D0E1E09D
:10074600E0933705E0E0E0933805E1E0E0933D050E
:10075600E0933E05E0933F05EFEFE0934005E1E0CF
:10076600E0934705E8E4F5E0FA93EA93EFEFEA93BE
:10077600A8E0B0E00E94350910D0E1E00E946E0BBF
:100786000C941909AA93E881E03011F0ECE001C05D
:10079600E8E0AE2F0FDF219608950E94670B30E048
:1007A600E0913805E03009F03FEFE0E0EA93A0E0A1
:1007B6002ADF08EF11E0F80101501040309719F0D8
:1007C600A32F3CDFF8CFE0E0EA93A0E040D30E94FD
:1007D6006E0B24960895AA931A93ED81EA93AD8140
:1007E6001FDF1E2FE981E73011F0E83039F4EB8185
:1007F600EA93AA810E946909EB8308C0E33021F4D9
:10080600EB81E095EB8302C0E03021F4EA81E095CC
:100816001E2302C0E23029F4EA81AB81EA231E2BB3
:100826000EC0E13029F4EA81AB81EA231E2707C016
:10083600E43029F4EA81E095AB81EA2B1E23A12F4F
:10084600FDDE18810C941909AA9323970E94650B63
:10085600A889A43548F4AF85A03330F4AE85A0301E
:1008660019F0AD85A03009F4CCC1EE85E887A889DA
:10087600BB27EE85F0E0AE0FBF1FA535E0E0BE0753
:1008860020F0A889E4E5EA1BEE872D85AF85BB2716
:10089600ED85F0E0AE0FBF1FD19720F0AF85E0E306
:1008A600EA1BED87A985A63009F05BC0EC85E1302F
:1008B60009F4A7C1E33039F4E0915205F0915305EC
:1008C600309709F49EC10885ED85E695E695E6958F
:1008D6003E2FE22FE77019F4AD852A17E9F0A02F15
:1008E600BB27E32FF0E00E94280BAA85BB850E9458
:1008F6000A0A269526952695532F5F935F5FE22F6A
:10090600AF91EA1748F0102FE12F1150E03019F09F
:100916000E940F0AF9CFF1CFAE850A1711F1EE85C5
:10092600AA85BB85F0E00E940A0AED85E77009F00A
:100936003F5F20E02F932F5FE32FAF91AE1788F430
:100946001E851F931F5FE02FAF91AE1718F40E940C
:100956000F0AF7CFEE85AE81BF81F0E00E940A0A4A
:10096600E9CFEF85E7703E2FED85E03009F449C108
:10097600EA85FB85EE83FF8310E00889303009F0B5
:1009860063C0AD85A83008F45AC0E985E03011F09F
:10099600E33009F402C0E73009F402C0E83009F494
:1009A60002C0E93009F402C0EA3021F40A93A889AA
:1009B6002ADE04C0E63011F40E941C0A1F931F5F52
:1009C600EE85AF91AE17A0F5A985A63051F40E9429
:1009D600200AFA93EA930E94FA09A0810E94B009BC
:1009E60026C0E985E93011F450E00EC0EA3011F472
:1009F6005FEF0AC00E94200A0E94290A5E2FE9853D
:100A0600E73011F0E83021F40E942F0A5E2F06C06D
:100A1600E33011F4509502C0E03019F4A52FD3DD70
:100A260006C00E94330AEFEFEA93AD85D4DEC6CF47
:100A3600EF85E85FEF87ED85E850ED87D9C05D85E6
:100A460020E0E0E0ED877EC0E32FAD85AE0FA93054
:100A560020F42D85E0E0ED8703C0E8E0E31B2E2FB0
:100A66003A93A22F0E945E094E2FE985E63011F5D2
:100A76000E941C0A1F931F5FEE85AF91AE17C8F444
:100A86000E94FA09E081E423AE2FE32F0E941B0B9C
:100A96000E94390AE32FA42F0E941B0BE095E12147
:100AA6005E2B0E94200AFA93EA93A52F0E94B009B2
:100AB600E1CF2CC0E93011F450E003C0EA30A9F4CC
:100AC6005FEF0E942F0AAE2FE32F0E94130B5E2FBB
:100AD6001F931F5FEE85AF91AE1730F40E94330A65
:100AE6004A93A0E078DEF4CF11C01F931F5FEE8516
:100AF600AF91AE1758F40E94440AAE2FE32F0E941E
:100B0600130BEA934A93AD8566DEEFCFED85E030B1
:100B160009F477C0AD85A83028F4ED85E21B5E2F79
:100B2600E0E003C0532FED85E850ED8710E0EF8538
:100B3600E85FEF87E8E0E31B2E2F0889EA85FB854F
:100B4600EE83FF83E52FF0E0E059FD4F4491E98500
:100B5600E63011F50E941C0A1F931F5FEE85AF91C8
:100B6600AE17C8F40E94FA09E081E423AE2FE22F03
:100B76000E94130B0E94390AE22FA42F0E94130B26
:100B8600E095E1215E2B0E94200AFA93EA93A52FB5
:100B96000E94B009E1CF2CC0E93011F450E003C047
:100BA600EA30A9F45FEF0E942F0AAE2FE22F0E94CF
:100BB6001B0B5E2F1F931F5FEE85AF91AE1730F4B0
:100BC6000E94330A4A93A0E006DEF4CF11C01F93B9
:100BD6001F5FEE85AF91AE1758F40E94440AAE2F00
:100BE600E22F0E941B0BEA934A93AD85F4DDEFCF0B
:100BF600E885AA85BB85F0E0EA0FFB1FEA87FB873D
:100C0600B3CE0E946C0B619608950E94510A24F09F
:100C1600E0E0F0E00C946709A881B981A435E0E032
:100C2600BE0724F0E3E5F0E00C946709E881F9815A
:100C36000C9467090E94510A24F0E0E0F0E00C945D
:100C46006709A881B981D09724F0EFE2F0E00C940F
:100C56006709E881F9810C946709BA93AA932397E7
:100C66000E94580A8F01002E012A19F4E0E0F0E0F4
:100C76005FC00E945F0A0F820E945F0A0E820E9476
:100C86005F0A0886EB85A885EA1718F4E0E0F0E02D
:100C96004FC0F8010F5F1F4F5491A885BB27EE2761
:100CA600A50FBE1FEB85F0E0EA17FB0718F0E0E0A2
:100CB600F0E03EC0EE81E695E695E6954E2FEE8194
:100CC600E77009F04F5FEF81E030A1F0A985BA85A2
:100CD600EC93A885EB85EA1BF0E0DF01EF81F0E0FD
:100CE6000E94280BDF01E42FF0E00E94280BE00FA2
:100CF600F11F1EC09801E52FF0E00E0F1F1FA885FB
:100D0600AF5FA887A150EB85AE1760F4F9012F5F9E
:100D16003F4FA491B0E0E42FF0E00E94280B0E0FA5
:100D26001F1FEDCFF901E491A985BA85EC93F8016F
:100D36000E946C0B2C960895E0E0E0933905A09193
:100D46003A05BB270E94640AF0E0AE0FBF1FE09190
:100D56003E05F0E0AE0FBF1F6DDFE0933A05089544
:100D6600AA9321970E94580A309709F455C0AF817B
:100D7600AA3009F44FC0EF81EA93DE0117966DDFC2
:100D8600AF01309709F44AC0E0913D05AE81EA0F04
:100D96003E2FA0913905BB27F0E0EA0FFB1F8F011C
:100DA6000535E0E01E0718F0032F1127C5DFE09197
:100DB6003905EA93E0913A05EA93E885EA930E94B9
:100DC600640AEA93E1E0EA935A934A93A7E03CDD8A
:100DD600E0913905AE81EA0FEA93E0913A05EA938C
:100DE600E0913D05EA930E94640A0E946B0AE09135
:100DF6003905EA93A0913A050E94640AEA0FEA933C
:100E06003A93E0913E050E946B0AE4E5F0E0E017B4
:100E1600F10711F491DF02C0009339050E946C0BB3
:100E260028960895BA93AA931A93EC81EA93AC8113
:100E36000ED0A981BA81ED91A983BA831E2FE03025
:100E460019F0A12F8DDFF5CF18810C944309AA93D1
:100E5600A981BB27DADEE0933905A881BB27EADE44
:100E6600E0933A050C946709BA93AA931A930A93E6
:100E7600AA81BB8112960E94300B309759F1AA8144
:100E8600BB8114960E94300B8F01309761F00230BF
:100E9600E0E01E0798F0F80131978F01AA81BB8127
:100EA6001496ED93FC93AA81BB811296ED91FD9168
:100EB6003196FE93EE933197AC81A083AA81BB81D4
:100EC6000E94300BFF232AF0ED91FD913196FE939F
:100ED600EE9306C0AA81BB81EFEFFFEFED93FC9383
:100EE60019810881CDC1BA93AA9326970E94650BF2
:100EF60010E0AC85BD85E0E0F0E0ED93FC93EA8977
:100F0600FB893196EA8BFB8B3197E4912E2FE030EB
:100F160009F415C1E12FE03039F4253211F411E05E
:100F260002C00E94750A0AC1E130A9F4253219F4FB
:100F36000E94750A02C112E040E000E02D3211F471
:100F460001E0FCC02B3211F44BE2F8C0203211F460
:100F560040E2F4C002C0E23039F450E013E020333E
:100F660011F40068EBC003C0E33009F0E7C020339A
:100F760010F02A3308F007C0AAE05A9F502DE22F3E
:100F8600E0535E0FDBC0E22FE33649F40E947C0A91
:100F9600E889F989A481AA930E94820ACEC0E33720
:100FA60041F40E947C0A0E94880A0E9445091E2F6D
:100FB6000AC0E03761F40E947C0A0E94880A0E94F7
:100FC60051091E2F086002600F7730E034C0E43606
:100FD60011F0E93611F4046002C0E53731F4EAE7AE
:100FE600F2E0EE83FF8315E00CC0E83511F40860EB
:100FF60003C0E83709F0A1C0E4E8F2E0EE83FF831E
:1010060014E002FF14C00E947C0A0E94920AAB857B
:10101600AA233AF4EA85FB850E940F0BEA87FB8731
:101026004DE2403011F01F5F01C00B7F04C00E94EB
:101036007C0A0E94920A00FD11C0151778F407FF7A
:1010460008C002FF04C00B7F242F115001C020E30B
:1010560001C020E20E94750A5150EFCF312F01FFE7
:1010660017C03030A1F003FF06C0EE81FF81259145
:10107600EE83FF8305C0AE81BF812D91AE83BF8312
:101086000E94750A503009F051503150EACF4BC0DA
:1010960020E3EE81FF810E94340BE887F987EE8119
:1010A600FF813296EE83FF83E885F985AA85BB85A5
:1010B600AE17BF0750F02F5FA885B985EA85FB8577
:1010C600EA1BFB0BEA87FB87EFCF2A3328F003FFE7
:1010D60002C0295F01C0295D04FD1AC0213320F436
:1010E600A885B985119709F409C0531710F000FFB8
:1010F60001C013C020E207FF0BC020E3006102FF1E
:1011060007C00B7F4A930E94820A503009F0515063
:101116000E94750A503009F051503150A885B985A2
:10112600129708F0B5CF00FF08C0503031F051508B
:10113600E0E2EA930E94820AF8CF10E0E0CEAC85A6
:10114600BD850E94300B0E946C0B64960895FF9239
:10115600F82E26970E94670B0E949A0A309719F478
:10116600EFEFFFEF23C0DE0116960E940B0B8D01F9
:101176000E949A0AEE83FF83E0E0E887E987DE01B2
:101186001A960E940B0B0E94300BFA93EA931A935D
:101196000A93E7E3F7E0FA93EA93DE011A96A3DEF1
:1011A6009F01AE81BF81E0E0EC93F9010E946E0BD6
:1011B6002A96FF900895AA93EA81E370EA83E9816B
:1011C600E03019F0EA81E061EA83E881E03019F065
:1011D600EA81E068EA830E94A10AA7E00E94E90A80
:1011E600AA810E94A60A0C94AE09BA93AA930E94F9
:1011F600A10AA0E00E94A60A0E94B50AA1ED0E94DB
:10120600E90A0E94AA0AA881B981EC930E94AA0A57
:10121600AA81BB81EC93A0E00E94CE0AAE2F0E9469
:10122600CF09AC81BD81EC930E94C40A269608952D
:10123600AA930E94A10AA0E00E94E90AA8810E943E
:10124600DC09AE2F0E94E90AA9810E94DC09AE2FB3
:101256000E94E90AAA810E94DC09AE2F0E94A60A12
:101266000C94AE09BA93AA93B981A881109631F06D
:10127600FC81EB816A8161931197E9F7EB81FC812F
:1012860025960895BA93AA93A991B991EE27FF27B7
:101296006D91662311F03196FBCF0895BA93AA9308
:1012A600AA27BB27E991F9910590002011F0119624
:1012B600FBCFFD010895AA93E881F0E0E059FD4FC8
:1012C600A491E9810E94130B22960895AA931A937A
:1012D600E981E73011F0EA3019F41091370509C0B9
:1012E600E93019F41091380504C0E830A1F41091E2
:1012F6004705E0913805E03049F0103019F0EFEF7E
:10130600188129C0EA81E095188125C0103019F4AA
:10131600E0E0188120C0EA8118811DC0BA93AA9323
:10132600EA81E13021F4E881F981E49114C0E230E8
:1013360029F4A881B9810E94440B0DC0E33041F421
:10134600A881B981E0915005F0915105099503C036
:10135600A881B981EC9123960895AA93EB81E03098
:1013660029F4E881A981BA81EC9314C0E23031F402
:10137600E881A981BA810E94500B0CC0E33051F478
:10138600E981FA81FA93EA93AA81E0915205F091F4
:101396005305099524960895AA93E881E295EF707E
:1013A600AE2FAA0FAA0FEA0FEE0FA991AF70EA0FA0
:1013B6000895AA93A991EE27AA5012F0E05FFCCFF8
:1013C600A65FEA0F0895FF27662777270E94380B46
:1013D6000895E5E0F0E0FA93EA93E4E0F0E0FA93AA
:1013E600EA93A7E0B0E00E94F8080C94ED01A7E5A7
:1013F600B5E0ED91FD913196FE93EE933197E75A64
:10140600FA4F0895E0936400E09165000895EA0FAD
:10141600FB1FEE83FF830895EC85EA93EF81F88541
:101426003196EF83F8873197FA93EA93A0E00C940C
:10143600B0090A93A8890C94EF02EC85EA93EF8130
:10144600F8853196EF83F8873197089566277727D1
:10145600DF01CB010C9491095A93AA850C94690972
:101466000A930395E889EA935A9308955E2FEC85CB
:10147600EA93AF81B885882799270E9491091E2E85
:1014860008950A930395E889EA93EE85EA93E98538
:10149600FA853196E987FA873197D8CFBA93AA9316
:1014A600A881B9810E94610B08950E94650BE091A5
:1014B6003B05F0913C050895F8010F5F1F4F04901E
:1014C6000895E0913B05F0913C053196E49108952D
:1014D600EA93E0E0EA93E0E0F0E0FA93EA93A9E029
:1014E6000C9427042A93AD85BE85EF85F889099566
:1014F6000895E889F9893497E88BF98B0895AD85C5
:10150600BE85EF85F88909950895A889B989149645
:101516000E94300BEE83FF83AE81BF810895A889B8
:10152600B98914960E94300BEA87FB870895DE017D
:101536001C960E940B0B0E94300B08950E94B50A60
:10154600A0ED0C94E90A0E94E90A0C94C40AA1E0F1
:101556000E94CE0AAE2F0C94CF091E981F98169A99
:10156600179815C017981698EE2700000F9B089538
:101576000E9B089504D0179A02D0169AE1E06DE00A
:1015860007C0179A169A03D01698F9DF17986BE1D9
:101596006A95F1F7089578E01698F1DF0E9BFECF75
:1015A600EEDF88940F990894169AF1DFEE1F7A956C
:1015B60099F77A2F772311F4179801C0179ADFDF6E
:1015C6001698E5DF169ADBDF1798D9CF78E0AA0FD1
:1015D60010F4179801C0179ADADF1698D0DF0E9B21
:1015E600FECFCDDF169A7A9591F71798C8DF169831
:1015F600CEDFE1E00F99EE27169AC1CF109639F0AB
:1016060080ED97E00197F1F7A8951197C9F708952E
:101616000024AF0DB01D0895F195E195F0400895B1
:10162600EE230E2EEA2F19F0EE0F0A94E9F708952D
:10163600EE230E2EEA2F19F0E6950A94E9F708959F
:101646006F2F660F660B762F0895FA9FF02DEB9F8E
:10165600F00DEA9FE02DF10D0895ED91FC911197A3
:1016660008950590F491E02D08957A936A93FA937C
:10167600EA9308951B2EBF2FF12D1A2EAE2FE12DC2
:101686000895E199FECFFF93FFB7F894AEBBBFBBB9
:10169600E09AEDB3FFBFFF910895E19B02C0A895C4
:1016A600FCCF9FB7F894AEBBBFBBE09A8DB3E817EB
:1016B60019F0EDBBE29AE19A9FBF089500240A163D
:1016C6000B0608955A934A933A932A931A930A93C8
:1016D60008955D814C813B812A8119810881089595
:00000001FF
