:060000000C948C000C942E
:1000060000000C9400000C9400000C9400000C946A
:1000160000000C9400000C9400000C9400000C945A
:1000260000000C9400000C9400000C9400000C944A
:1000360000000C9400000C9400000C94BC000C947E
:1000460000000C9400000C9400000C9400000C942A
:1000560000000C9400000C9400000C9400000C941A
:1000660000000C9400000C9400000C9400000C940A
:1000760000000C9400000C9400000C9400000C94FA
:1000860000000C9400001027E80364000A00010039
:1000960000100001100001000A00010044616E67B3
:1000A6002063686F20636120616E2E2E2E005461DE
:1000B6006D2064756E670044616E6720686F6174B9
:1000C60020646F6E670080C001002D4E414E0049CE
:1000D6004E460000010053059E0001005505A00094
:1000E60012000005A20009001205B4000F001B054E
:1000F600BD000F002A05BD0009003905B4000F0038
:100106004205BD0002005705CC0001005B05CE008C
:100116000000F894EE27ECBBF1E0F5BFE5BFE093F5
:100126006C008DE0A2E0BB27ED938A95E9F780E0AD
:1001360090E1A0E0B1E0ED930197E9F7EAEDF0E098
:1001460085919591009761F0A591B59105901590CF
:10015600BF01F00105900D920197E1F7FB01F0CF89
:100166008BBFEFEFEDBFE0E1EEBFC0E0D5E00C9452
:100176003601AA93BA93EA93FA93EFB7EA93ECE9B6
:10018600E2BFA1E5B5E0ED91FD913196FE93EE93C8
:10019600A0915105B0915205A93CE0E0BE072CF0B4
:1001A600E0E0E0935105E0935205E0915305F091AC
:1001B6005405A0915105B0915205AE17BF0714F42E
:1001C600AF9A01C0AF98E991EFBFF991E991B99162
:1001D600A9911895E0E0E0BFE2E0E3BFECE9E2BFF9
:1001E600E0E0E1BFE1E0E7BFE0E0E0937D00789486
:1001F6000895BA93AA93CFD0A881B981EDD0C9C08A
:100206001A930A93A0E0B5E00E942F02C49800E07A
:1002160010E00530E0E01E07ECF4B29910C00E9431
:100226003602B2990CC0B29BFECFE0E0E0935505D2
:10023600E0935605A2E1B5E00E943A0211C0E4E15E
:10024600F0E00E944702EAE0F0E00E9447020F5FFA
:100256001F4FDFCFABE1B5E00E942F020E944F0295
:10026600099119910895A0E1C8D0A79ABA98BB98A8
:10027600C29AC39AE7B3E063E7BBE1E8EFBDEAE001
:10028600EEBDC498E0E8F0E0FBBDEABDA3DFEAE01E
:10029600F0E0E0935305F09354057DD0AAE2B5E073
:1002A600A8DFB29924C00E943602B29920C0B29B40
:1002B600FECF0E945602119721F00E945602129715
:1002C60051F4E0E0E0935505E0935605A9E3B5E067
:1002D6000E943A020CC0E0915505F0915605309700
:1002E60031F40E944F02A2E4B5E00E942F02B399B6
:1002F60004C00E945602119709F00DC00E943602F2
:10030600B39909C0B39BFECFE2E0F0E0E093550558
:10031600F093560575DFC5CFFFCFAA93E881E0714C
:1003260011F0DB9A01C0DB98E881E07211F0DC9AEB
:1003360001C0DC98E881E07411F0DD9A01C0DD9817
:10034600E881E07811F0DE9A01C0DE988DE08A95AA
:10035600F1F7DA9A8DE08A95F1F7DA988DE08A95C9
:10036600F1F778C0AA93A881D8DFE881E295E883FF
:10037600A881D3DF85E88A95F1F76CC0AA93E88156
:10038600F0E0E95AFA4FE081A981AE0FEBDF598020
:10039600488022960895A2E00E945B02ACE0E2DF6C
:1003A600A1E00E945B02E0E04E2E5E2E0895AA9325
:1003B600A881AA3011F0571448F0E0E0EA9343947C
:1003C600A42DDCDFA881AA3009F444C05394D89A3E
:1003D600A881C8DFD8983EC0BA93AA931A93A98178
:1003E600BA81ED91A983BA831E2FE03019F0A12FAF
:1003F600DEDFF5CF188123960895AA93D39AD49A6F
:10040600D59AD69AD29AD09AD19ADA98D898D99873
:100416007880E881E058E0935905E881E054E0935C
:100426005A05A4E1B0E00E9469020E9461020E949E
:1004360061020E946102A0E270DF88EC90E0019701
:10044600F1F7A8E28FDFA4E08DDFA5E88BDFA6E059
:1004560089DFA1DF219608950E94FC00E0E8F0E024
:10046600FBBDEABD0895A2E3B0E00C9469020E94C8
:10047600FC00E0E0F0E0FBBDEABDEAE0F0E0E0937E
:100486005305F09354050895E0935305F0935405EE
:10049600A8EEB3E00C946902E1E0F0E0E0935505C4
:1004A600F09356050895A0915505B0915605089507
:1004B6000E94B501A3E0B0E00C946902A0E30E949B
:1004C600900188EC90E00197F1F70895109639F0C5
:1004D60080ED97E00197F1F7A8951197C9F7089570
:00000001FF
