:0E0000000C94A0000C9400000C9400000C94D2
:10000E0000000C9400000C9400000C9400000C9462
:10001E0000000C9400000C9400000C9400000C9452
:10002E0000000C9400000C9400000C9400000C9442
:10003E0000000C9400000C9400000C9400000C9432
:10004E0000000C9400000C9400000C9400000C9422
:10005E0000000C9400000C9400000C9400000C9412
:10006E0000000C9400000C9400000C9400000C9402
:10007E0000000C9400000C9400000C940000000191
:10008E0003070F1F3F7FFF001027E80364000A00DD
:10009E00010000100001100001000000000000002F
:1000AE000000000000000000000030303030000082
:1000BE00010002000300040005000600070008000E
:1000CE0054454D503A0048554D493A004D4158203F
:1000DE0054454D503A2025645F004D4158205445FB
:1000EE004D503A2025642564004D41582048554D09
:1000FE003A2025645F004D41582048554D3A202541
:10010E006425640080C001002D4E414E00494E46CC
:10011E00000006000400A80004001D05B800110030
:10012E002205BC0002002E07120101003207140145
:10013E000000F894EE27ECBBF1E0F5BFE5BFE093CD
:10014E006C008DE0A2E0BB27ED938A95E9F780E085
:10015E0090E1A0E0B1E0ED930197E9F7E0E2F1E084
:10016E0085919591009761F0A591B59105901590A7
:10017E00BF01F00105900D920197E1F7FB01F0CF61
:10018E008BBFEFEFEDBFE0E1EEBFC0E0D5E00C942A
:10019E004702BA93AA932A978AE0A0E0B0E0EEEA6B
:1001AE00F0E00E9488050E947C05BF9AC79A80EAFB
:1001BE008A95F1F7C798A9E1B0E00E941905BF989A
:1001CE00C79A80EA8A95F1F7B79B02C0E0E05CC05F
:1001DE00B79BFECF80EA8A95F1F7B79902C0E0E0AF
:1001EE0053C0B799FECF00E010E00530E0E01E07E7
:1001FE0064F520E030E02830E0E03E071CF5B79BC8
:10020E00FECF85E88A95F1F7B79B19C0F801DE019C
:10021E001496EE0FFF1FEA0FFB1FCF016081718155
:10022E00E7E0F0E0E21BF30BA1E0B0E00E942B054B
:10023E00E62BF72BDC01ED93FC93B799FECF2F5FE6
:10024E003F4FD9CF0F5F1F4FD0CFEE81FF81AC81D3
:10025E00BD81EA0FFB1FA885B985EA0FFB1FAA8592
:10026E00BB85EA0FFB1F2F01EC85FD85E415F50517
:10027E0011F0E0E009C0E885A889B989EC93EC811A
:10028E00AE85BF85EC93E1E00E94830562960895EA
:10029E00E6E0F0E0FA93EA93A9E0B0E07ADF7E2E92
:1002AE00E1E0E715F1F4E0E0EA93A0E00E94AC0291
:1002BE00AEECB0E00E94DA02A62D0E94AE04A62D8E
:1002CE000E94B704E0E0EA93A1E00E94AC02A4ED24
:1002DE00B0E00E94DA02A92D0E94AE04A92D0E9460
:1002EE00B704089560970E947A0540E050E04430CC
:1002FE00E0E05E070CF092C020E030E02330E0E05A
:10030E003E070CF08AC0022E032A19F4EDEFE0939B
:10031E006200E1E0F0E0E217F30719F4E7EFE09393
:10032E006200E2E0F0E0E217F30719F4EFEDE0937C
:10033E00620000E010E00330E0E01E070CF06AC03F
:10034E0000240016010611F4029B0FC0E1E0F0E05C
:10035E00E017F10711F4049B08C0E2E0F0E0E017AB
:10036E00F10711F4009B01C052C0FA01E35EFA4F8F
:10037E00BF01A6E0A09FF001A19FF00DEE5DFA4F28
:10038E00DF01F901EE0FFF1FAE0FBF1FEC91E05D15
:10039E00DB01EC93042E052A39F40E94C004EAED29
:1003AE00F0E00E94C5042CC0E1E0F0E0E417F50790
:1003BE0029F40E94C004E8EEF0E010C0E2E0F0E0A4
:1003CE00E417F50739F40E94C004E7EFF0E00E944D
:1003DE00C50416C00E94C004E4E0F1E0FA93EA936B
:1003EE00FA013197E35EFA4FE0810E94D604ADE147
:1003FE00B5E0A40FB51FEC910E94D6040E94DC0458
:10040E00A4EFB1E00E9419054F5F5F4F03C00F5F6D
:10041E001F4F91CF2F5F3F4F71CF69CFE0E0E09339
:10042E0021050E9481056696089560970E94B90283
:10043E00E0E0EA93A0E00E94E104E8EEF0E0FA9337
:10044E00EA93E0911D050E94D604E0911E050E94DC
:10045E00D6040E94DC04E0E0EA93A1E00E94E104ED
:10046E00E4E0F1E0FA93EA93E09120050E94D604CD
:10047E00E09121050E94D6040E94DC046096089546
:10048E0011E001E0E0E0E7BBE4E0E8BBB2990AC0AE
:10049E00A2E3B0E00E941905B29904C0E12F0E94B8
:1004AE0034051E2FB3990AC0A2E3B0E00E941905CD
:1004BE00B39904C0E02F0E9434050E2F113011F4B1
:1004CE00013009F002C0E4DE0DC0103011F401302D
:1004DE0009F002C007DF06C0113011F4003009F038
:1004EE0001C0A3DFD3CFFFCFAA93E881E07111F053
:1004FE00DB9A01C0DB98E881E07211F0DC9A01C052
:10050E00DC98E881E07411F0DD9A01C0DD98E88195
:10051E00E07811F0DE9A01C0DE988DE08A95F1F751
:10052E00DA9A8DE08A95F1F7DA988DE08A95F1F7EF
:10053E0038C0AA93A881D8DFE881E295E883A88124
:10054E00D3DF85E88A95F1F72CC0AA93E881F0E015
:10055E00E25DF84FE081A981AE0FEBDF8980B880B4
:10056E0022960895A2E00E94E704ACE0E2DFA1E04B
:10057E000E94E704E0E0BE2E8E2E0895AA93A88175
:10058E00AA3011F08A1440F0E0E0EA93B394AB2D58
:10059E00DCDFA881AA3029F08394D89AA881C9DF1C
:1005AE00D89821960895BA93AA931A93E981FA815D
:1005BE003196E983FA833197E4911E2FE03019F0DA
:1005CE00A12FDCDFF3CF188123960895BA93AA9357
:1005DE001A930A93AA81BB8112960E946D053097D9
:1005EE0059F1AA81BB8114960E946D058F01309737
:1005FE0061F00230E0E01E0798F0F80131978F01AC
:10060E00AA81BB811496ED93FC93AA81BB811296AD
:10061E00ED91FD913196FE93EE933197AC81A083CF
:10062E00AA81BB810E946D05FF232AF0ED91FD91F9
:10063E003196FE93EE9306C0AA81BB81EFEFFFEFDA
:10064E00ED93FC931981088125960895BA93AA9388
:10065E0026970E947A0510E0AC85BD85E0E0F0E0BB
:10066E00ED93FC93EA89FB893196EA8BFB8B3197EC
:10067E00E4912E2FE03009F415C1E12FE03039F46A
:10068E00253211F411E002C00E94ED040AC1E130DE
:10069E00A9F4253219F40E94ED0402C112E040E0E3
:1006AE0000E02D3211F401E0FCC02B3211F44BE2CC
:1006BE00F8C0203211F440E2F4C002C0E23039F446
:1006CE0050E013E0203311F40068EBC003C0E330B8
:1006DE0009F0E7C0203310F02A3308F007C0AAE073
:1006EE005A9F502DE22FE0535E0FDBC0E22FE33610
:1006FE0049F40E94F404E889F989A481AA930E941E
:10070E00FA04CEC0E33741F40E94F4040E940005BF
:10071E000E9495041E2F0AC0E03761F40E94F40473
:10072E000E9400050E94A1041E2F086002600F7730
:10073E0030E034C0E43611F0E93611F4046002C042
:10074E00E53731F4E6E9F0E0EE83FF8315E00CC007
:10075E00E83511F4086003C0E83709F0A1C0E0EAFB
:10076E00F0E0EE83FF8314E002FF14C00E94F40455
:10077E000E940A05AB85AA233AF4EA85FB850E94FE
:10078E002705EA87FB874DE2403011F01F5F01C05D
:10079E000B7F04C00E94F4040E940A0500FD11C0E4
:1007AE00151778F407FF08C002FF04C00B7F242F33
:1007BE00115001C020E301C020E20E94ED0451500F
:1007CE00EFCF312F01FF17C03030A1F003FF06C06D
:1007DE00EE81FF812591EE83FF8305C0AE81BF813F
:1007EE002D91AE83BF830E94ED04503009F051501D
:1007FE003150EACF4BC020E3EE81FF810E9471059C
:10080E00E887F987EE81FF813296EE83FF83E885D4
:10081E00F985AA85BB85AE17BF0750F02F5FA88557
:10082E00B985EA85FB85EA1BFB0BEA87FB87EFCFD1
:10083E002A3328F003FF02C0295F01C0295D04FDA1
:10084E001AC0213320F4A885B985119709F409C07F
:10085E00531710F000FF01C013C020E207FF0BC0BA
:10086E0020E3006102FF07C00B7F4A930E94FA0447
:10087E00503009F051500E94ED04503009F05150A3
:10088E003150A885B985129708F0B5CF00FF08C082
:10089E00503031F05150E0E2EA930E94FA04F8CF62
:1008AE0010E0E0CEAC85BD850E946D050E948105ED
:1008BE0064960895FF92F82E26970E947C050E945A
:1008CE001205309719F4EFEFFFEF23C0DE011696F5
:1008DE000E9423058D010E941205EE83FF83E0E046
:1008EE00E887E987DE011A960E9423050E946D05AE
:1008FE00FA93EA931A930A93EDEEF2E0FA93EA93DF
:10090E00DE011A96A3DE9F01AE81BF81E0E0EC937B
:10091E00F9010E9483052A96FF900895BA93AA932F
:10092E00A991B991EE27FF276D91662311F03196AB
:10093E00FBCF0895BA93AA93AA27BB27E991F99101
:10094E000590002011F01196FBCFFD010895B0E047
:10095E00EAE0F0E00E944C05E05DAE2F0C94C5027B
:10096E00BB27EAE0F0E00E945105E05DAE2F0C944B
:10097E00C502FE013696FA93EA930895FA93EA9326
:10098E00ADE1B5E0A40FB51FEC91FF2766277727E1
:10099E000E94750584E00E94610428960895FF2741
:1009AE00662777270E947505089588E00E946104E6
:1009BE002C9608950E94AC02FE01FA93EA930895D4
:1009CE000E94A002A3E0B0E00C9419052A93AD8515
:1009DE00BE85EF85F88909950895E889F9893497D8
:1009EE00E88BF98B0895AD85BE85EF85F88909955D
:1009FE000895A889B98914960E946D05EE83FF8328
:100A0E00AE81BF810895A889B98914960E946D059B
:100A1E00EA87FB870895DE011C960E9423050E943B
:100A2E006D050895109639F080ED97E00197F1F776
:100A3E00A8951197C9F708950024AF0DB01D08951C
:100A4E00F195E195F0400895EE230E2EFD0121F073
:100A5E00EE0FFF1F0A94E1F70895EE23E1E009F08F
:100A6E00EE2708950024112490E1AA0FBB1F001C4D
:100A7E00111C0E1A1F0A18F40E0E1F1E01C0A160C3
:100A8E009A9599F7FD01D001089512D0EBDF0EF47F
:100A9E00D7DF0895E894B7FF04C0A095B0951196DE
:100AAE006894F7FDCDDFDEDFFD010EF4C9DF08959A
:100ABE00E894F7FF02C0C4DF6894B7FF06C0A095A4
:100ACE00B095119600F8039400FA0895ED91FC91FB
:100ADE00119708950590F491E02D08957A936A93F5
:100AEE00FA93EA9308955A934A933A932A931A9350
:100AFE000A9308955D814C813B812A811981088179
:100B0E000895AC0FBD1F05900D928A95E1F70895DB
:00000001FF
