:060000000C949E010C941B
:1000060000000C9400000C9400000C9400000C946A
:1000160000000C9400000C9400000C9400000C945A
:1000260000000C9400000C9400000C9400000C944A
:1000360000000C9400000C9400000C94CE010C946B
:1000460000000C9400000C9400000C9400000C942A
:1000560000000C9400000C9400000C9400000C941A
:1000660000000C9400000C9400000C9400000C940A
:1000760000000C9400000C9400000C9400000C94FA
:1000860000000C940000050720600000000000003E
:10009600005F00000007000700147F147F14242A65
:1000A6007F2A12231308646236495522500005033D
:1000B6000000001C2241000041221C00082A1C2AC4
:1000C6000808083E0808005030000008080808081C
:1000D600003030000020100804023E5149453E0021
:1000E600427F400042615149462141454B31181437
:1000F600127F1027454545393C4A49493001710967
:1001060005033649494936064949291E003636004F
:10011600000056360000000814224114141414146A
:1001260041221408000201510906324979413E7EF6
:100136001111117E7F494949363E414141227F4195
:1001460041221C7F494949417F090901013E41413C
:1001560051327F0808087F00417F41002040413F1F
:10016600017F081422417F404040407F0204027F05
:100176007F0408107F3E4141413E7F090909063E42
:100186004151215E7F0919294646494949310101F4
:100196007F01013F4040403F1F2040201F7F201825
:1001A600207F6314081463030478040361514945EE
:1001B6004300007F4141020408102041417F0000B6
:1001C60004020102044040404040000102040020B5
:1001D600545454787F48444438384444442038447E
:1001E60044487F3854545418087E090102081454B0
:1001F600543C7F0804047800447D40002040443D80
:1002060000007F10284400417F40007C04180478D9
:100216007C0804047838444444387C1414140808D0
:100226001414187C7C080404084854545420043FD1
:100236004440203C4040207C1C2040201C3C403058
:10024600403C44281028440C5050503C4464544CC4
:1002560044000836410000007F00000041360800D7
:1002660002010204027F4141417F000103070F1F83
:100276003F7FFF001027E80364000A00010000101A
:10028600000110000100020000000100020003004E
:10029600040005000600070008002020202020207A
:1002A6002020202020202020202020202020002A5E
:1002B600004D6174206B6861752064756E6721005E
:1002C6005361692120436F6E202564206C616E00A6
:1002D6004269206B686F612100313038004E6861D9
:1002E60070206D6174206B6861753A0001002D4EB7
:1002F600414E00494E460000020004008C021100E7
:1003060061058E0215000005A00202001505B50262
:1003160002001705B5020F001905B70209002805E6
:10032600D60204003105DF020F003505E3020100A5
:100336007907F2020000F894EE27ECBBF1E0F5BF76
:10034600E5BFE0936C008DE0A2E0BB27ED938A95B4
:10035600E9F780E090E1A0E0B1E0ED930197E9F7DD
:10036600EEEFF2E085919591009761F0A591B59138
:1003760005901590BF01F00105900D920197E1F7E8
:10038600FB01F0CF8BBFEFEFEDBFE0E1EEBFC0E0CA
:10039600D5E00C94F2020A921A929A93AA93BA930F
:1003A600EA93FA93EFB7EA93E6E0E2BFE0917B05C2
:1003B600F0917C053097B9F0E0917D05F0917E05CE
:1003C6003196E0937D05F0937E050E94310AE83E62
:1003D600A3E0FA0711F4949A96980E94310A30978E
:1003E60011F49498969AE991EFBFF991E991B99130
:1003F600A991999119900990189522970E949D0BA1
:1004060040E050E0EAE0EA93E4E1EA93A0E0B5E0F8
:100416000E949D074330E0E05E070CF067C020E0D5
:1004260030E02330E0E03E070CF052C0022E032AF3
:1004360019F4EDEFE0936200E1E0F0E0E217F30774
:1004460019F4E7EFE0936200E2E0F0E0E217F30769
:1004560019F4EFEDE093620000E010E00330E0E015
:100466001E079CF500240016010611F4029B0FC01E
:10047600E1E0F0E0E017F10711F4049B08C0E2E0C8
:10048600F0E0E017F10711F4009B01C01BC0FA0170
:10049600ED58FA4FBF01A6E0A09FF001A19FF00D15
:1004A600EF59FA4FDF01F901EE0FFF1FAE0FBF1F25
:1004B600EC91E05DDB010E943A0AA5E1B5E00E94FD
:1004C600560A03C00F5F1F4FC9CF2F5F3F4FA9CFFB
:1004D600B3990BC0A3E7B5E0A40FB51FE9E30E94EB
:1004E6003A0AA7E1B5E00E94560A94CFE0E0E0930D
:1004F60076050C949907D9D1E0E0EA93EEE1EA9308
:10050600A9E1B5E00E945F0AE2E0F0E02F0108955C
:100516006497CBD1F20131972F01FE01FA93EA934A
:10052600E6ECF2E0FA93EA93F2010E94410B0E9494
:10053600770B84E00E9432092896E0E0EA93EEE128
:10054600EA93DE0112960E945F0A00240414050451
:10055600FCF0ABD1EAE0EA93EEE1EA93A8E2B5E07B
:100566000E949D07AB9AE1E0F0E0E0937B05F093F3
:100576007C05E0E0E0BFE3E0E3BFE6E0E2BFE0E009
:10058600E1BFE1E0E7BFE0E0E0937D007894FFCFD4
:1005960064960895BA93AA93AA81BB81EC91E03040
:1005A60031F00C90A881B981EC91E01509F00BC0EF
:1005B600EA81FB813196EA83FB83E881F9813196F2
:1005C600E883F983E9CFAA81BB810C901124A88125
:1005D600B981AC91BB27F001EA1BFB0B82C12897BE
:1005E60001E315E0ECE8F0E0E883F983EE81EC7FC7
:1005F600EE83E37EE061EE83EF81E078E264EF83F1
:10060600DE01AED0EAEEE0936100E5E1E093620040
:10061600BB98C39AA39A8C9A8E9A1A930A930E94AD
:10062600650A0E947D09E7E7F5E0FA93EA930E94DE
:10063600650A0E946609E5E0E3BFE6E0E2BF35D160
:10064600E0E0EA93EAE0EA93A5E3B5E00E949D07BD
:10065600D4DEE3E7F5E0FA93EA93A7E7B5E09ADF9D
:10066600309711F448DF01C053DFE9CFFFCF08957B
:10067600AA931A93E0916500EF7EE093650018E077
:10068600F6DFE981E07821F0E0916500E26003C0E1
:10069600E0916500ED7FE0936500E981EE0FE98367
:1006A600E6DFE0916500E460E0936500E0DFE0915D
:1006B6006500EB7FE0936500115011F7E09165004E
:1006C600E061E0936500188142C0AA93E09165005D
:1006D600EE7FE0936500A881CBDFE5C0AA93E091A9
:1006E6006500E160E0936500A881C2DFDCC0AA93E3
:1006F6001A93E981E695E695E6951E2FE4E5E19FD6
:10070600F001DF01EA81F0E0EA0FFB1FE0937F05CD
:10071600F0938005E12F188123960895AA93E98125
:10072600E068AE2FD2DFE981EA93A981E0DFE064D9
:10073600AE2FCBDF0CC0AA93E981EA93A981EEDF45
:10074600E0917F05F0918005EF57FA4FE081229600
:100756000895AA930E946C0AA881A083BFDFA3C054
:100766000E94770AE0916400E0610E947C0AE061E1
:10077600E0936500E0916400E4600E947C0AEB7FF0
:10078600E0936500E0916400E260E0936400E0912C
:100796006400E160E0936400E0916400E8600E9418
:1007A6007C0AE77FE0936500AAE0B0E00E941F0B99
:1007B600E0916500E860E0936500EC81FD8130978B
:1007C60021F1E681E3701E2FEC81FD81E681E6953D
:1007D600E695E7700E2FEC81FD81E781EF773E2FDE
:1007E600AC81BD810E946F0BE0934805F0934905EB
:1007F60012960E946F0BE0935D05F0935E05AC8147
:10080600BD8114960E946F0B0DC010E003E032E329
:10081600E0E0F0E0E0934805F0934905E0935D05DC
:10082600F0935E05E0935F05F0936005A1E24DDF6E
:10083600E12FE460AE2F49DFE02FE061AE2F45DF08
:10084600E32FE068AE2F41DFA0E23FDFA1E022D038
:10085600E1E0E0934405E0E0E0934505E1E0E09364
:100866004A05E0934B05E0934C05EFEFE0934D0509
:10087600E1E0E0935405E5E5F5E0FA93EA93EFEF5E
:10088600EA93A8E0B0E00E9497090FD0E1E00E9449
:10089600A60B60C0AA93E881E03011F0ECE001C03D
:1008A600E8E0AE2F12DF219608950E949F0B30E0FC
:1008B600E0914505E03009F03FEFE0E0EA93A0E083
:1008C6002DDF08EF11E0F80101501040309719F0C4
:1008D600A32F3FDFF8CFE0E0EA93A0E040D30E94E9
:1008E600A60B24960895AA931A93ED81EA93AD81F7
:1008F60022DF1E2FE981E73011F0E83039F4EB8171
:10090600EA93AA810E94CB09EB8308C0E33021F465
:10091600EB81E095EB8302C0E03021F4EA81E095BB
:100926001E2302C0E23029F4EA81AB81EA231E2BA2
:100936000EC0E13029F4EA81AB81EA231E2707C005
:10094600E43029F4EA81E095AB81EA2B1E23A12F3E
:1009560000DF188126960895AA9323970E949D0B7F
:10096600A889A43548F4AF85A03330F4AE85A0300D
:1009760019F0AD85A03009F4CCC1EE85E887A889C9
:10098600BB27EE85F0E0AE0FBF1FA535E0E0BE0742
:1009960020F0A889E4E5EA1BEE872D85AF85BB2705
:1009A600ED85F0E0AE0FBF1FD19720F0AF85E0E3F5
:1009B600EA1BED87A985A63009F05BC0EC85E1301E
:1009C60009F4A7C1E33039F4E0915F05F0916005C1
:1009D600309709F49EC10885ED85E695E695E6957E
:1009E6003E2FE22FE77019F4AD852A17E9F0A02F04
:1009F600BB27E32FF0E00E94460BAA85BB850E9429
:100A0600810A269526952695532F5F935F5FE22FE1
:100A1600AF91EA1748F0102FE12F1150E03019F08E
:100A26000E94860AF9CFF1CFAE850A1711F1EE853D
:100A3600AA85BB85F0E00E94810AED85E77009F082
:100A46003F5F20E02F932F5FE32FAF91AE1788F41F
:100A56001E851F931F5FE02FAF91AE1718F40E94FB
:100A6600860AF7CFEE85AE81BF81F0E00E94810A4B
:100A7600E9CFEF85E7703E2FED85E03009F449C1F7
:100A8600EA85FB85EE83FF8310E00889303009F0A4
:100A960063C0AD85A83008F45AC0E985E03011F08E
:100AA600E33009F402C0E73009F402C0E83009F483
:100AB60002C0E93009F402C0EA3021F40A93A88999
:100AC6002DDE04C0E63011F40E94930A1F931F5FC7
:100AD600EE85AF91AE17A0F5A985A63051F40E9418
:100AE600970AFA93EA930E946C0AA0810E94120A5E
:100AF60026C0E985E93011F450E00EC0EA3011F461
:100B06005FEF0AC00E94970A0E94A00A5E2FE9853D
:100B1600E73011F0E83021F40E94A60A5E2F06C0E5
:100B2600E33011F4509502C0E03019F4A52FD6DD5C
:100B360006C00E94AA0AEFEFEA93AD85D4DEC6CFBF
:100B4600EF85E85FEF87ED85E850ED87D9C05D85D5
:100B560020E0E0E0ED877EC0E32FAD85AE0FA93043
:100B660020F42D85E0E0ED8703C0E8E0E31B2E2F9F
:100B76003A93A22F0E94C0094E2FE985E63011F55F
:100B86000E94930A1F931F5FEE85AF91AE17C8F4BC
:100B96000E946C0AE081E423AE2FE32F0E94390BFA
:100BA6000E94B00AE32FA42F0E94390BE095E121A1
:100BB6005E2B0E94970AFA93EA93A52F0E94120AC7
:100BC600E1CF2CC0E93011F450E003C0EA30A9F4BB
:100BD6005FEF0E94A60AAE2FE32F0E94310B5E2F15
:100BE6001F931F5FEE85AF91AE1730F40E94AA0ADD
:100BF6004A93A0E078DEF4CF11C01F931F5FEE8505
:100C0600AF91AE1758F40E94BB0AAE2FE32F0E9495
:100C1600310BEA934A93AD8566DEEFCFED85E03082
:100C260009F477C0AD85A83028F4ED85E21B5E2F68
:100C3600E0E003C0532FED85E850ED8710E0EF8527
:100C4600E85FEF87E8E0E31B2E2F0889EA85FB853E
:100C5600EE83FF83E52FF0E0E059FD4F4491E985EF
:100C6600E63011F50E94930A1F931F5FEE85AF9140
:100C7600AE17C8F40E946C0AE081E423AE2FE22F7F
:100C86000E94310B0E94B00AE22FA42F0E94310B62
:100C9600E095E1215E2B0E94970AFA93EA93A52F2D
:100CA6000E94120AE1CF2CC0E93011F450E003C0D3
:100CB600EA30A9F45FEF0E94A60AAE2FE22F0E9447
:100CC600390B5E2F1F931F5FEE85AF91AE1730F481
:100CD6000E94AA0A4A93A0E006DEF4CF11C01F9331
:100CE6001F5FEE85AF91AE1758F40E94BB0AAE2F78
:100CF600E22F0E94390BEA934A93AD85F4DDEFCFDC
:100D0600E885AA85BB85F0E0EA0FFB1FEA87FB872B
:100D1600B3CE0E94A40B619608950E94C80A24F0DF
:100D2600E0E0F0E00C94C909A881B981A435E0E0BF
:100D3600BE0724F0E3E5F0E00C94C909E881F981E7
:100D46000C94C9090E94C80A24F0E0E0F0E00C9473
:100D5600C909A881B981D09724F0EFE2F0E00C949C
:100D6600C909E881F9810C94C909BA93AA93239712
:100D76000E94CF0A8F01002E012A19F4E0E0F0E06C
:100D86005FC00E94D60A0F820E94D60A0E820E9477
:100D9600D60A0886EB85A885EA1718F4E0E0F0E0A5
:100DA6004FC0F8010F5F1F4F5491A885BB27EE2750
:100DB600A50FBE1FEB85F0E0EA17FB0718F0E0E091
:100DC600F0E03EC0EE81E695E695E6954E2FEE8183
:100DD600E77009F04F5FEF81E030A1F0A985BA8591
:100DE600EC93A885EB85EA1BF0E0DF01EF81F0E0EC
:100DF6000E94460BDF01E42FF0E00E94460BE00F55
:100E0600F11F1EC09801E52FF0E00E0F1F1FA885E9
:100E1600AF5FA887A150EB85AE1760F4F9012F5F8D
:100E26003F4FA491B0E0E42FF0E00E94460B0E0F76
:100E36001F1FEDCFF901E491A985BA85EC93F8015E
:100E46000E94A40B2C960895E0E0E0934605A0913D
:100E56004705BB270E94DB0AF0E0AE0FBF1FE091FB
:100E66004B05F0E0AE0FBF1F6DDFE0934705089519
:100E7600AA9321970E94CF0A309709F455C0AF81F3
:100E8600AA3009F44FC0EF81EA93DE0117966DDFB1
:100E9600AF01309709F44AC0E0914A05AE81EA0FE6
:100EA6003E2FA0914605BB27F0E0EA0FFB1F8F01FE
:100EB6000535E0E01E0718F0032F1127C5DFE09186
:100EC6004605EA93E0914705EA93E885EA930E948E
:100ED600DB0AEA93E1E0EA935A934A93A7E03CDD02
:100EE600E0914605AE81EA0FEA93E0914705EA9361
:100EF600E0914A05EA930E94DB0A0E94E20AE09129
:100F06004605EA93A09147050E94DB0AEA0FEA9399
:100F16003A93E0914B050E94E20AE4E5F0E0E0171F
:100F2600F10711F491DF02C0009346050E94A40B5D
:100F360028960895BA93AA931A93EC81EA93AC8102
:100F46000ED0A981BA81ED91A983BA831E2FE03014
:100F560019F0A12F8DDFF5CF18810C94A509AA935E
:100F6600A981BB27DADEE0934605A881BB27EADE26
:100F7600E09347050C94C909BA93AA931A930A9366
:100F8600AA81BB8112960E946F0B309759F1AA81F4
:100F9600BB8114960E946F0B8F01309761F002306F
:100FA600E0E01E0798F0F80131978F01AA81BB8116
:100FB6001496ED93FC93AA81BB811296ED91FD9157
:100FC6003196FE93EE933197AC81A083AA81BB81C3
:100FD6000E946F0BFF232AF0ED91FD913196FE934F
:100FE600EE9306C0AA81BB81EFEFFFEFED93FC9372
:100FF60019810881A7C1BA93AA9326970E949D0BCF
:1010060010E0AC85BD85E0E0F0E0ED93FC93EA8965
:10101600FB893196EA8BFB8B3197E4912E2FE030DA
:1010260009F415C1E12FE03039F4253211F411E04D
:1010360002C00E94EC0A0AC1E130A9F4253219F473
:101046000E94EC0A02C112E040E000E02D3211F4E9
:1010560001E0FCC02B3211F44BE2F8C0203211F44F
:1010660040E2F4C002C0E23039F450E013E020332D
:1010760011F40068EBC003C0E33009F0E7C0203389
:1010860010F02A3308F007C0AAE05A9F502DE22F2D
:10109600E0535E0FDBC0E22FE33649F40E94F30A09
:1010A600E889F989A481AA930E94F90ACEC0E33798
:1010B60041F40E94F30A0E94FF0A0E94A7091E2F0C
:1010C6000AC0E03761F40E94F30A0E94FF0A0E94F8
:1010D600B3091E2F086002600F7730E034C0E43693
:1010E60011F0E93611F4046002C0E53731F4EAE79D
:1010F600F2E0EE83FF8315E00CC0E83511F40860DA
:1011060003C0E83709F0A1C0E4E8F2E0EE83FF830C
:1011160014E002FF14C00E94F30A0E94090BAB857B
:10112600AA233AF4EA85FB850E942D0BEA87FB8702
:101136004DE2403011F01F5F01C00B7F04C00E94DA
:10114600F30A0E94090B00FD11C0151778F407FF7A
:1011560008C002FF04C00B7F242F115001C020E3FA
:1011660001C020E20E94EC0A5150EFCF312F01FF5F
:1011760017C03030A1F003FF06C0EE81FF81259134
:10118600EE83FF8305C0AE81BF812D91AE83BF8301
:101196000E94EC0A503009F051503150EACF4BC052
:1011A60020E3EE81FF810E94730BE887F987EE81C9
:1011B600FF813296EE83FF83E885F985AA85BB8594
:1011C600AE17BF0750F02F5FA885B985EA85FB8566
:1011D600EA1BFB0BEA87FB87EFCF2A3328F003FFD6
:1011E60002C0295F01C0295D04FD1AC0213320F425
:1011F600A885B985119709F409C0531710F000FFA7
:1012060001C013C020E207FF0BC020E3006102FF0C
:1012160007C00B7F4A930E94F90A503009F05150DB
:101226000E94EC0A503009F051503150A885B9851A
:10123600129708F0B5CF00FF08C0503031F051507A
:10124600E0E2EA930E94F90AF8CF10E0E0CEAC851E
:10125600BD850E946F0B0E94A40B64960895FF92B1
:10126600F82E26970E949F0B0E94110B309719F4B7
:10127600EFEFFFEF23C0DE0116960E94290B8D01CA
:101286000E94110BEE83FF83E0E0E887E987DE0129
:101296001A960E94290B0E946F0BFA93EA931A93EF
:1012A6000A93EFEBF7E0FA93EA93DE011A96A3DED0
:1012B6009F01AE81BF81E0E0EC93F9010E94A60B8D
:1012C6002A96FF9008950E94770A088519852E812F
:1012D6003F810E94180B69F01F930F930F5F1F4FFA
:1012E600D9012F5F3F4F0E947C0BAF91BF91EC93CA
:1012F600F0CF16C00E94770A0E811F812885398596
:101306000E94180B69F01F930F930F5F1F4FD901AF
:101316002F5F3F4FEC91AF91BF910E94880BF0CFAA
:101326000E94A60B2A960895BA93AA93B981A8811A
:10133600109631F0FC81EB816A8161931197E9F790
:10134600EB81FC8125960895BA93AA93A991B99148
:10135600EE27FF276D91662311F03196FBCF089596
:10136600BA93AA93AA27BB27E991F9910590002081
:1013760011F01196FBCFFD010895AA93E881F0E0E4
:10138600E059FD4FA491E9810E94310B2296089500
:10139600AA931A93E981E73011F0EA3019F4109113
:1013A600440509C0E93019F41091450504C0E83038
:1013B600A1F410915405E0914505E03049F0103054
:1013C60019F0EFEF188129C0EA81E095188125C050
:1013D600103019F4E0E0188120C0EA8118811DC0A0
:1013E600BA93AA93EA81E13021F4E881F981E49184
:1013F60014C0E23029F4A881B9810E947C0B0DC08B
:10140600E33041F4A881B981E0915D05F0915E0574
:10141600099503C0A881B981EC9123960895AA93F2
:10142600EB81E03029F4E881A981BA81EC9314C0FC
:10143600E23031F4E881A981BA810E94880B0CC0A0
:10144600E33051F4E981FA81FA93EA93AA81E091B3
:101456005F05F0916005099524960895A0917D0594
:10146600B0917E05E0EDF7E00E94610B0895EC93E4
:10147600A3E7B5E0A40FB51FEC91EE83E0E0EF83A0
:10148600AAE04A020A92E4E1EA93DE0118960E9473
:101496009D07ACE2B1E00E941F0BAAE04A020A9245
:1014A600E4E1EA9308950E949D07A4EFB1E00E944B
:1014B6001F0B4F5F5F4F08950E949D07A0EDB7E099
:1014C6000C941F0BE0E0F0E0FA93EA93A4E0B0E09E
:1014D6000895AFE7B5E0ED91FD913196FE93EE9359
:1014E6003197EF57FA4F0895BA93AA930E949F0B2C
:1014F6000895E0936400E09165000895EA0FFB1FEC
:10150600EE83FF830895EC85EA93EF81F8853196A3
:10151600EF83F8873197FA93EA93A0E00C94120AC6
:101526000A93A8890C947A03EC85EA93EF81F885EF
:101536003196EF83F8873197089566277727DF017D
:10154600CB010C94F3095A93AA850C94CB090A9300
:101556000395E889EA935A9308955E2FEC85EA93FA
:10156600AF81B885882799270E94F3091E2E089512
:101576000A930395E889EA93EE85EA93E985FA8565
:101586003196E987FA873197D8CFBA93AA93A8817B
:10159600B9810E94990B08950E949D0BE091480520
:1015A600F09149050895F8010F5F1F4F04900895C3
:1015B600E0914805F09149053196E4910895EA9342
:1015C600E0E0EA93E0E0F0E0FA93EA93A9E00C9415
:1015D600AF042A93AD85BE85EF85F88909950895F0
:1015E600E889F9893497E88BF98B0895AD85BE852E
:1015F600EF85F88909950895A889B98914960E94F6
:101606006F0BEE83FF83AE81BF810895A889B989E8
:1016160014960E946F0BEA87FB870895DE011C96DD
:101626000E94290B0E946F0B0895EC81FD81319772
:10163600EC83FD8331960895109639F080ED97E09E
:101646000197F1F7A8951197C9F708950024AF0DF2
:10165600B01D0895F195E195F0400895EE230E2E04
:10166600EA2F19F0EE0F0A94E9F70895EE230E2EED
:10167600EA2F19F0E6950A94E9F708956F2F660F99
:10168600660B762F0895FA9FF02DEB9FF00DEA9FDB
:10169600E02DF10D08950024112490E1AA0FBB1F3F
:1016A600001C111C0E1A1F0A18F40E0E1F1E01C074
:1016B600A1609A9599F7FD01D0010895E894B7FFC6
:1016C60004C0A095B09511966894F7FDC3DFE3DFDB
:1016D600FD010EF4BFDF0895ED91FC911197089579
:1016E6000590F491E02D08957A936A93FA93EA931C
:1016F6000895E199FECFFF93FFB7F894AEBBBFBB49
:10170600E09AEDB3FFBFFF910895E19B02C0A89553
:10171600FCCF9FB7F894AEBBBFBBE09A8DB3E8177A
:1017260019F0EDBBE29AE19A9FBF089500240A16CC
:101736000B0608955A934A933A932A931A930A9357
:1017460008955D814C813B812A8119810881089524
:00000001FF
