:100000000C948B000C9400000C9400000C940000E5
:100010000C9400000C9400000C9400000C94000060
:100020000C9400000C9400000C9400000C94000050
:100030000C9400000C9400000C9400000C94000040
:100040000C9400000C9400000C9400000C94000030
:100050000C9400000C9400000C9400000C94000020
:100060000C9400000C9400000C9400000C94000010
:100070000C9400000C9400000C9400000C94000000
:100080000C9400000C9400000C9400001027E8036E
:1000900064000A00010000100001100001000000CF
:1000A000010002000300040005000600070008002C
:1000B000313038002A004D6174206B68617520640E
:1000C000756E6721004D6174206B686175207361E6
:1000D0006921004E686170206D6174206B686175E4
:1000E0003A0080C0110030059E0003004605B000B4
:1000F00002000005B40002000205B4000F00040570
:10010000B6000E001305C5000F002105D300020044
:100110004A05E2000000F894EE27ECBBF1E0F5BFE1
:10012000E5BFE0936C008DE0A2E0BB27ED938A95DC
:10013000E9F780E090E1A0E0B1E0ED930197E9F705
:10014000E4EEF0E085919591009761F0A591B5916D
:1001500005901590BF01F00105900D920197E1F710
:10016000FB01F0CF8BBFEFEFEDBFE0E1EEBFC0E0F2
:10017000D5E00C9465010E945A0240E050E0433003
:10018000E0E05E070CF067C020E030E02330E0E004
:100190003E070CF052C0022E032A19F4EDEFE09353
:1001A0006200E1E0F0E0E217F30719F4E7EFE09313
:1001B0006200E2E0F0E0E217F30719F4EFEDE093FC
:1001C000620000E010E00330E0E01E079CF5002430
:1001D0000016010611F4029B0FC0E1E0F0E0E01709
:1001E000F10711F4049B08C0E2E0F0E0E017F1072A
:1001F00011F4009B01C01BC0FA01EE5BFA4FBF0176
:10020000A6E0A09FF001A19FF00DE05DFA4FDF0195
:10021000F901EE0FFF1FAE0FBF1FEC91E05DDB0198
:100220000E942502A0E0B5E00E94390203C00F5FE2
:100230001F4FC9CF2F5F3F4FA9CFB3990BC0A2E487
:10024000B5E0A40FB51FE9E30E942502A2E0B5E0E6
:100250000E94390294CFE0E0E09345050E946102DC
:100260002696089591D0A4E0B5E003C08DD0A3E117
:10027000B5E0ABD0A0EDB7E00E9450020895BA936C
:10028000AA93AA81BB81EC91E03031F00C90A88157
:10029000B981EC91E01509F00BC0EA81FB81319640
:1002A000EA83FB83E881F9813196E883F983E9CF1A
:1002B000AA81BB810C901124A881B981AC91BB2784
:1002C000F001EA1BFB0B24960895A0E18FD0EAEE23
:1002D000E0936100E5E1E0936200BB98C39A54D0DB
:1002E000A1E2B5E072D0E0E0EA93A1E040D043DFC4
:1002F000E2E4F5E0FA93EA93A6E4B5E0C0DF3097D4
:1003000011F4B0DF01C0B2DFEACFFFCFAA93E881DA
:10031000E07111F0DB9A01C0DB98E881E07211F026
:10032000DC9A01C0DC98E881E07411F0DD9A01C02C
:10033000DD98E881E07811F0DE9A01C0DE988DE06A
:100340008A95F1F7DA9A8DE08A95F1F7DA988DE0DF
:100350008A95F1F778C0AA93A881D8DFE881E29561
:10036000E883A881D3DF85E88A95F1F76CC0AA936A
:10037000E881F0E0E65BFA4FE081A981AE0FEBDFA8
:100380005980488022960895A2E00E944202ACE083
:10039000E2DFA1E00E944202E0E04E2E5E2E0895D0
:1003A000AA93A881AA3011F0571448F0E0E0EA932C
:1003B0004394A42DDCDFA881AA3009F444C05394EF
:1003C000D89AA881C8DFD8983EC0BA93AA931A9346
:1003D000A981BA81ED91A983BA831E2FE03019F06B
:1003E000A12FDEDFF5CF188123960895AA93D39A23
:1003F000D49AD59AD69AD29AD09AD19ADA98D8988D
:10040000D9987880E881E058E0934C05E881E05481
:10041000E0934D05A4E1B0E00E9450020E94480222
:100420000E9448020E944802A0E270DF88EC90E03F
:100430000197F1F7A8E28FDFA4E08DDFA5E88BDF5D
:10044000A6E089DFA1DF21960895EC934A93A1E00D
:100450000E94B701A2E4B5E0A40FB51FAC910E94C1
:10046000D001ACE2B1E00E9450024A93A1E00C94AA
:10047000B7010E94E501A4EFB1E00E9450024F5F76
:100480005F4F08950E94AB01A3E0B0E00C945002CE
:10049000A0E30E94860188EC90E00197F1F70895AF
:1004A000109639F080ED97E00197F1F7A895119734
:1004B000C9F708955A934A933A932A931A930A9341
:1004C00008955D814C813B812A81198108810895BD
:00000001FF
