:080000000C9477010C94000040
:100008000C9400000C9400000C9400000C94000068
:100018000C9400000C9400000C9400000C94000058
:100028000C9400000C9400000C9400000C94000048
:100038000C9400000C9400000C9400000C94000038
:100048000C9400000C9400000C9400000C94000028
:100058000C9400000C9400000C9400000C94000018
:100068000C9400000C9400000C9400000C94000008
:100078000C9400000C9400000C9400000C940000F8
:100088000C94000005072060000000000000005FDD
:1000980000000007000700147F147F14242A7F2A19
:1000A80012231308646236495522500005030000E4
:1000B800001C2241000041221C00082A1C2A0808B2
:1000C800083E0808005030000008080808080030FA
:1000D80030000020100804023E5149453E00427F8E
:1000E800400042615149462141454B311814127F65
:1000F8001027454545393C4A4949300171090503EE
:100108003649494936064949291E00363600000055
:100118005636000000081422411414141414412205
:100128001408000201510906324979413E7E111135
:10013800117E7F494949363E414141227F41412252
:100148001C7F494949417F090901013E414151321A
:100158007F0808087F00417F41002040413F017F20
:10016800081422417F404040407F0204027F7F0400
:1001780008107F3E4141413E7F090909063E415131
:10018800215E7F09192946464949493101017F0104
:10019800013F4040403F1F2040201F7F2018207F04
:1001A8006314081463030478040361514945430048
:1001B800007F4141020408102041417F00000402F1
:1001C8000102044040404040000102040020545411
:1001D80054787F4844443838444444203844444898
:1001E8007F3854545418087E090102081454543CAA
:1001F8007F0804047800447D40002040443D00000E
:100208007F10284400417F40007C041804787C0853
:1002180004047838444444387C141414080814142A
:10022800187C7C080404084854545420043F444073
:10023800203C4040207C1C2040201C3C4030403C5E
:1002480044281028440C5050503C4464544C4400FA
:100258000836410000007F00000041360800020116
:100268000204027F4141417F1027E80364000A002D
:1002780001000010000110000100000103070F1F1A
:100288003F7FFF004D4159204749415400425431B6
:100298003A2047494154004254323A2056415400CA
:1002A800312E204749415400322E205641540043F4
:1002B8006170206E756F630080C001002D4E414E45
:1002C80000494E460000090000058C020A00090595
:1002D8009502090013059F0202003905C0020100BA
:1002E8003707C2020000F894EE27ECBBF1E0F5BF37
:1002F800E5BFE0936C008DE0A2E0BB27ED938A9503
:10030800E9F780E090E1A0E0B1E0ED930197E9F72B
:10031800EEECF2E085919591009761F0A591B59189
:1003280005901590BF01F00105900D920197E1F736
:10033800FB01F0CF8BBFEFEFEDBFE0E1EEBFC0E018
:10034800D5E00C9413022897ECE8F0E0E883F983F1
:10035800EE81EC7FEE83E37EE061EE83EF81E0786F
:10036800E264EF83DE010E94EB0428960895A4E17D
:100378000E943F040E9412040895EAE0EA93EA9377
:10038800A0E0B5E00E94E008EAE0EA93E4E1EA933D
:10039800A9E0B5E00E94E008EAE0EA93EEE1EA931A
:1003A800A3E1B5E00E94E0080895A097E0E0EA9391
:1003B800A0E00E940504FE017096FA93EA93E8EA29
:1003C800F2E00E949609DE0150960E943304E0E0B4
:1003D800EA93A1E00E949D09E0EBF2E00E949609F1
:1003E800DE010E943304A096089560970E941204CB
:1003F800E0E0EA93A0E00E949D09E7EBF2E00E94AA
:100408009609DE010E943304A0EDB7E00E945E0A5F
:1004180060960895A0EDB7E00E945E0A089511E085
:1004280001E091DFA4DFE0E0E7BBECE0E8BBA5DF9B
:10043800BCDFB29B04C0E12F0E94800A1E2FB39B31
:1004480004C0E02F0E94800A0E2F103009F4CDDF7F
:10045800003009F4DFDFEBCFFFCFBA93AA931A93EA
:100468000A93AA81BB8112960E948D0A309729F1BE
:10047800AA81BB8114960E948D0A8F01309761F082
:100488000230E0E01E0780F0F80131978F01AA8161
:10049800BB811496ED93FC93AA81BB8112960E94AE
:1004A800A3093197AC81A083AA81BB810E948D0AE0
:1004B800FF2312F00E94A30906C0AA81BB81EFEFB7
:1004C800FFEFED93FC931981088125960895BA935F
:1004D800AA9326970E94B60A10E0AC85BD85E0E095
:1004E800F0E0ED93FC93EA89FB893196EA8BFB8B6C
:1004F8003197E4912E2FE03009F415C1E12FE03057
:1005080039F4253211F411E002C00E94A9090AC188
:10051800E130A9F4253219F40E94A90902C112E0B8
:1005280040E000E02D3211F401E0FCC02B3211F460
:100538004BE2F8C0203211F440E2F4C002C0E230CD
:1005480039F450E013E0203311F40068EBC003C025
:10055800E33009F0E7C0203310F02A3308F007C071
:10056800AAE05A9F502DE22FE0535E0FDBC0E22F26
:10057800E33649F40E94B009E889F989A481AA936D
:100588000E94B609CEC0E33741F40E94B0090E9428
:10059800BC090E940C091E2F0AC0E03761F40E94B2
:1005A800B0090E94BC090E9418091E2F0860026049
:1005B8000F7730E034C0E43611F0E93611F4046006
:1005C80002C0E53731F4E0E7F2E0EE83FF8315E09F
:1005D8000CC0E83511F4086003C0E83709F0A1C081
:1005E800EAE7F2E0EE83FF8314E002FF14C00E9402
:1005F800B0090E94C609AB85AA233AF4EA85FB85AF
:100608000E946C0AEA87FB874DE2403011F01F5FB9
:1006180001C00B7F04C00E94B0090E94C60900FDFA
:1006280011C0151778F407FF08C002FF04C00B7F3C
:10063800242F115001C020E301C020E20E94A90923
:100648005150EFCF312F01FF17C03030A1F003FF19
:1006580006C0EE81FF812591EE83FF8305C0AE8140
:10066800BF812D91AE83BF830E94A909503009F044
:1006780051503150EACF4BC020E3EE81FF810E94F8
:10068800910AE887F987EE81FF813296EE83FF832E
:10069800E885F985AA85BB85AE17BF0750F02F5F9F
:1006A800A885B985EA85FB85EA1BFB0BEA87FB87EA
:1006B800EFCF2A3328F003FF02C0295F01C0295D6C
:1006C80004FD1AC0213320F4A885B985119709F4CF
:1006D80009C0531710F000FF01C013C020E207FF44
:1006E8000BC020E3006102FF07C00B7F4A930E9402
:1006F800B609503009F051500E94A909503009F04C
:1007080051503150A885B985129708F0B5CF00FF30
:1007180008C0503031F05150E0E2EA930E94B60927
:10072800F8CF10E0E0CEAC85BD850E948D0A0E940E
:10073800BD0A64960895FF92F82E26970E94B80A7B
:100748000E94CE09309719F4EFEFFFEF23C0DE01C6
:1007580016960E94680A8D010E94CE09EE83FF83D7
:10076800E0E0E887E987DE011A960E94680A0E949D
:100778008D0AFA93EA931A930A93E1E3F2E0FA9363
:10078800EA93DE011A96A3DE9F01AE81BF81E0E005
:10079800EC93F9010E94BF0A2A96FF900895AA9344
:1007A800E881E07111F0DB9A01C0DB98E881E07222
:1007B80011F0DC9A01C0DC98E881E07411F0DD9A50
:1007C80001C0DD98E881E07811F0DE9A01C0DE987A
:1007D8008DE08A95F1F7DA9A8DE08A95F1F7DA9843
:1007E8008DE08A95F1F70C949005AA93A881D7DF3C
:1007F800E881E295E883A881D2DF85E88A95F1F758
:100808008BC1AA93E881F0E0E75CFA4FE081A98107
:10081800AE0FEBDF598048800C942E09A2E00E94AD
:10082800D509ACE0E2DFA1E00E94D509E0E04E2E58
:100838005E2E0895AA93A881AA3011F0571448F0A3
:10084800E0E0EA934394A42DDCDFA881AA3009F400
:1008580063C15394D89AA881C8DFD8985DC1BA9368
:10086800AA931A930E94DB0919F0A12FE3DFFACFAC
:1008780018810C947509AA93D39AD49AD59AD69AC2
:10088800D29AD09AD19ADA98D898D9987880E8816B
:10089800E058E0933B05E881E054E0933C05A4E18F
:1008A800B0E00E945E0A0E94E3090E94E3090E94E8
:1008B800E309A0E274DF88EC90E00197F1F7A8E281
:1008C80094DFA4E092DFA5E890DFA6E08EDFA6DF44
:1008D80023C10895AA931A93E0916200E77FE093F9
:1008E800620018E0F6DFE981E07821F0E09162002B
:1008F800E26003C0E0916200ED7FE0936200E9816D
:10090800EE0FE983E6DFE0916200E460E0936200C5
:10091800E0DFE0916200EB7FE0936200115011F795
:10092800E0916200E860E093620018810C942E095F
:10093800AA93E0916200EE7FE0936200A881CADF8B
:10094800EBC0AA93E0916200E160E0936200A881A5
:10095800C1DFE2C0AA931A93E981E695E695E69588
:100968001E2FE4E5E19FF001DF01EA81F0E0EA0FE4
:10097800FB1FE0933D05F0933E05E12F18810C9491
:100988007509AA93E981E068AE2FD2DFE981EA937D
:10099800A981E0DFE064AE2FCBDF0C942E09AA9387
:1009A800E981EA93A981EDDFE0913D05F0913E05EB
:1009B800E15CFA4FE0810C942E09AA930E94EB099E
:1009C8003197E15CFA4FA881A083BBDFA5C0BA9339
:1009D800AA930E94B80AE0916100E8600E94EE09BB
:1009E800E860E0936200E0916100E4600E94EE0933
:1009F800EB7FE0936200E0916100E260E0936100C8
:100A0800E0916100E160E0936100E0916100E061E4
:100A18000E94EE09EF7EE0936200AAE0B0E00E9437
:100A28005E0AE0916200E061E0936200EC81FD8182
:100A3800309721F1E681E3701E2FEC81FD81E6817C
:100A4800E695E695E7700E2FEC81FD81E781EF775B
:100A58003E2FAC81BD810E948D0AE0932005F09362
:100A6800210512960E948D0AE0933505F09336050C
:100A7800AC81BD8114960E948D0A0DC010E003E080
:100A880032E3E0E0F0E0E0932005F0932105E09305
:100A98003505F0933605E0933705F0933805A1E264
:100AA80047DFE12FE460AE2F43DFE02FE061AE2F98
:100AB8003FDFE32FE068AE2F3BDFA0E239DFA1E0A4
:100AC80022D0E1E0E0931C05E0E0E0931D05E1E0C1
:100AD800E0932205E0932305E0932405EFEFE093EC
:100AE8002505E1E0E0932C05EDE2F5E0FA93EA93C1
:100AF800EFEFEA93A8E0B0E00E94FC080FD0E1E035
:100B08000E94BF0A60C0AA93E881E03011F0ECE0CF
:100B180001C0E8E0AE2F0CDF219608950E94B80AC4
:100B280030E0E0911D05E03009F03FEFE0E0EA93A6
:100B3800A0E027DF08EF11E0F801015010403097DE
:100B480019F0A32F3ADFF8CFE0E0EA93A0E043D30F
:100B58000E94BF0A0C949409AA931A93ED81EA9310
:100B6800AD811DDF1E2FE981E73011F0E83039F43F
:100B7800EB81EA93AA810E943009EB8308C0E33035
:100B880021F4EB81E095EB8302C0E03021F4EA81A7
:100B9800E0951E2302C0E23029F4EA81AB81EA2302
:100BA8001E2B0EC0E13029F4EA81AB81EA231E270F
:100BB80007C0E43029F4EA81E095AB81EA2B1E23D3
:100BC800A12FFBDE188126960895AA9323970E94E9
:100BD800B60AA889A43548F4AF85A03330F4AE85A9
:100BE800A03019F0AD85A03009F4D5C1EE85E887AD
:100BF800A889BB27EE85F0E0AE0FBF1FA535E0E062
:100C0800BE0720F0A889E4E5EA1BEE872D85AF85AD
:100C1800BB27ED85F0E0AE0FBF1FD19720F0AF8561
:100C2800E0E3EA1BED87A985A63009F05BC0EC85F7
:100C3800E13009F4B0C1E33039F4E0913705F091BF
:100C48003805309709F4A7C10885ED85E695E6953E
:100C5800E6953E2FE22FE77019F4AD852A17E9F0E3
:100C6800A02FBB27E32FF0E00E94850AAA85BB8549
:100C78000E94F309269526952695532F5F935F5F6B
:100C8800E22FAF91EA1748F0102FE12F1150E03012
:100C980019F00E94F809F9CFF1CFAE850A1711F1C2
:100CA800EE85AA85BB85F0E00E94F309ED85E77023
:100CB80009F03F5F20E02F932F5FE32FAF91AE172E
:100CC80088F41E851F931F5FE02FAF91AE1718F4AD
:100CD8000E94F809F7CFEE85AE81BF81F0E00E944F
:100CE800F309E9CFEF85E7703E2FED85E03009F491
:100CF80052C1EA85FB85EE83FF8310E00889303016
:100D080009F066C0AD85A83008F45DC0E985E0301B
:100D180011F0E33009F402C0E73009F402C0E8300A
:100D280009F402C0E93009F402C0EA3021F40A9358
:100D3800A88927DE04C0E63011F40E94050A1F9333
:100D48001F5FEE85AF91AE17B8F5A985A63069F497
:100D58000E94090AFA93EA930E94EB093197E15C31
:100D6800FA4FA0810E94770926C0E985E93011F47D
:100D780050E00EC0EA3011F45FEF0AC00E94090A81
:100D88000E94120A5E2FE985E73011F0E83021F45D
:100D98000E94180A5E2F06C0E33011F4509502C075
:100DA800E03019F4A52FCDDD06C00E941C0AEFEF34
:100DB800EA93AD85D1DEC3CFEF85E85FEF87ED8598
:100DC800E850ED87DFC05D8520E0E0E0ED8781C079
:100DD800E32FAD85AE0FA93020F42D85E0E0ED8737
:100DE80003C0E8E0E31B2E2F3A93A22F0E942509A7
:100DF8004E2FE985E63029F50E94050A1F931F5FEB
:100E0800EE85AF91AE17E0F40E94EB093197E15CF3
:100E1800FA4FE081E423AE2FE32F0E94780A0E9464
:100E2800220AE32FA42F0E94780AE095E1215E2B85
:100E38000E94090AFA93EA93A52F0E947709DECF48
:100E48002CC0E93011F450E003C0EA30A9F45FEF98
:100E58000E94180AAE2FE32F0E94700A5E2F1F937C
:100E68001F5FEE85AF91AE1730F40E941C0A4A93BB
:100E7800A0E072DEF4CF11C01F931F5FEE85AF9123
:100E8800AE1758F40E942D0AAE2FE32F0E94700A65
:100E9800EA934A93AD8560DEEFCFED85E03009F443
:100EA8007AC0AD85A83028F4ED85E21B5E2FE0E01E
:100EB80003C0532FED85E850ED8710E0EF85E85F1C
:100EC800EF87E8E0E31B2E2F0889EA85FB85EE8390
:100ED800FF83E52FF0E0EE57FD4F4491E985E630BA
:100EE80029F50E94050A1F931F5FEE85AF91AE1783
:100EF800E0F40E94EB093197E15CFA4FE081E423CA
:100F0800AE2FE22F0E94700A0E94220AE22FA42F1D
:100F18000E94700AE095E1215E2B0E94090AFA936B
:100F2800EA93A52F0E947709DECF2CC0E93011F48F
:100F380050E003C0EA30A9F45FEF0E94180AAE2F10
:100F4800E22F0E94780A5E2F1F931F5FEE85AF91F4
:100F5800AE1730F40E941C0A4A93A0E0FDDDF4CFDE
:100F680011C01F931F5FEE85AF91AE1758F40E9412
:100F78002D0AAE2FE22F0E94780AEA934A93AD8594
:100F8800EBDDEFCFE885AA85BB85F0E0EA0FFB1F14
:100F9800EA87FB87AACE0E94BD0A619608950E943F
:100FA8003A0A24F0E0E0F0E00C942E09A881B98117
:100FB800A435E0E0BE0724F0E3E5F0E00C942E0948
:100FC800E881F9810C942E090E943A0A24F0E0E0A5
:100FD800F0E00C942E09A881B981D09724F0EFE2B3
:100FE800F0E00C942E09E881F9810C942E09BA934B
:100FF800AA9323970E94410A8F01002E012A19F40F
:10100800E0E0F0E05FC00E94480A0F820E94480AB0
:101018000E820E94480A0886EB85A885EA1718F40C
:10102800E0E0F0E04FC0F8010F5F1F4F5491A88532
:10103800BB27EE27A50FBE1FEB85F0E0EA17FB07DD
:1010480018F0E0E0F0E03EC0EE81E695E695E69522
:101058004E2FEE81E77009F04F5FEF81E030A1F08D
:10106800A985BA85EC93A885EB85EA1BF0E0DF013A
:10107800EF81F0E00E94850ADF01E42FF0E00E9492
:10108800850AE00FF11F1EC09801E52FF0E00E0F52
:101098001F1FA885AF5FA887A150EB85AE1760F426
:1010A800F9012F5F3F4FA491B0E0E42FF0E00E94D8
:1010B800850A0E0F1F1FEDCFF901E491A985BA85A6
:1010C800EC93F8010E94BD0A2C960895E0E0E093A5
:1010D8001E05A0911F05BB270E944D0AF0E0AE0F28
:1010E800BF1FE0912305F0E0AE0FBF1F6DDFE09357
:1010F8001F050895AA9321970E94410A309709F481
:1011080055C0AF81AA3009F44FC0EF81EA93DE01E0
:1011180017966DDFAF01309709F44AC0E0912205B8
:10112800AE81EA0F3E2FA0911E05BB27F0E0EA0F23
:10113800FB1F8F010535E0E01E0718F0032F11276C
:10114800C5DFE0911E05EA93E0911F05EA93E88563
:10115800EA930E944D0AEA93E1E0EA935A934A938C
:10116800A7E033DDE0911E05AE81EA0FEA93E09136
:101178001F05EA93E0912205EA930E944D0A0E9416
:10118800540AE0911E05EA93A0911F050E944D0A9A
:10119800EA0FEA933A93E09123050E94540AE4E5A2
:1011A800F0E0E017F10711F491DF02C000931E058B
:1011B8000E94BD0A28960895BA93AA931A93EC81BF
:1011C800EA93AC8108D00E94DB0919F0A12F92DFC5
:1011D800FACF18811BC0AA93A981BB27E0DEE09350
:1011E8001E05A881BB27F0DEE0931F050C942E098D
:1011F800BA93AA93B981A881109631F0FC81EB814A
:101208006A8161931197E9F7EB81FC81259608952E
:10121800BA93AA93A991B991EE27FF276D916623F6
:1012280011F03196FBCF0895BA93AA93AA27BB274A
:10123800E991F9910590002011F01196FBCFFD017D
:101248000895AA93E881F0E0EE57FD4FA491E98153
:101258000E94700A22960895AA931A93E981E730AA
:1012680011F0EA3019F410911C0509C0E93019F49D
:1012780010911D0504C0E830A1F410912C05E091EF
:101288001D05E03049F0103019F0EFEF188129C042
:10129800EA81E095188125C0103019F4E0E0188142
:1012A80020C0EA8118811DC0BA93AA93EA81E1306F
:1012B80021F4E881F981E49114C0E23029F4A8818D
:1012C800B9810E94950A0DC0E33041F4A881B98123
:1012D800E0913505F0913605099503C0A881B981DB
:1012E800EC9123960895AA93EB81E03029F4E881E4
:1012F800A981BA81EC9314C0E23031F4E881A98164
:10130800BA810E94A10A0CC0E33051F4E981FA8144
:10131800FA93EA93AA81E0913705F0913805099587
:1013280024960895FA93EA9380E00E949F032496F6
:1013380008950E940504FE01FA93EA930895ED9139
:10134800FD913196FE93EE9308952A93AD85BE855F
:10135800EF85F88909950895E889F9893497E88B24
:10136800F98B0895AD85BE85EF85F88909950895AF
:10137800A889B98914960E948D0AEE83FF83AE81ED
:10138800BF810895A889B98914960E948D0AEA87B1
:10139800FB870895DE011C960E94680A0E948D0A48
:1013A80008950E94F903A3E0B0E00C945E0AA981B5
:1013B800BA81ED91A983BA831E2FE0300895A0E386
:1013C8000E94D30388EC90E00197F1F70895ADE30C
:1013D800B5E0B5CFE0936100E09162000895EA0FAF
:1013E800FB1FEE83FF830895EC85EA93EF81F88570
:1013F8003196EF83F8873197FA93EA93A0E00C943B
:1014080077090A93A8890C94AE04EC85EA93EF81D6
:10141800F8853196EF83F8873197089566277727FF
:10142800DF01CB010C9458095A93AA850C94300912
:101438000A930395E889EA935A9308955E2FEC85F9
:10144800EA93AF81B885882799270E9458091E2EEC
:1014580008950A930395E889EA93EE85EA93E98566
:10146800FA853196E987FA873197D8CFBA93AA9344
:10147800A881B9810E94B20A08950E94B60AE09133
:101488002005F09121050895F8010F5F1F4F049082
:101498000895E0912005F09121053196E491089591
:1014A800EA93E0E0EA93E0E0F0E0FA93EA93A9E057
:1014B8000C94E905109639F080ED97E00197F1F763
:1014C800A8951197C9F708950024AF0DB01D089588
:1014D800F195E195F0400895EE230E2EEA2F19F0CC
:1014E800EE0F0A94E9F70895EE230E2EEA2F19F06D
:1014F800E6950A94E9F70895EE23E1E009F0EE276E
:101508000895FA9FF02DEB9FF00DEA9FE02DF10D65
:101518000895ED91FC91119708950590F491E02DAF
:101528000895E199FECFFF93FFB7F894AEBBBFBB18
:10153800E09AEDB3FFBFFF910895E19B02C0A89523
:10154800FCCF9FB7F894AEBBBFBBE09A8DB3E8174A
:1015580019F0EDBBE29AE19A9FBF089500240A169C
:101568000B0608955A934A933A932A931A930A9327
:1015780008955D814C813B812A81198108810895F4
:00000001FF
