:100000000C947A010C9400000C9400000C940000F5
:100010000C9400000C9400000C9400000C94000060
:100020000C9400000C9400000C9400000C94000050
:100030000C9400000C9400000C9400000C94000040
:100040000C9400000C9400000C9400000C94000030
:100050000C9400000C9400000C9400000C94000020
:100060000C9400000C9400000C9400000C94000010
:100070000C9400000C9400000C9400000C94000000
:100080000C9400000C9400000C9400000507206004
:10009000000000000000005F0000000700070014DF
:1000A0007F147F14242A7F2A12231308646236499E
:1000B0005522500005030000001C2241000041228F
:1000C0001C00082A1C2A0808083E080800503000B6
:1000D000000808080808003030000020100804025A
:1000E0003E5149453E00427F400042615149462110
:1000F00041454B311814127F1027454545393C4A7C
:1001000049493001710905033649494936064949CB
:10011000291E003636000000563600000008142262
:100120004114141414144122140800020151090648
:10013000324979413E7E1111117E7F494949363E4F
:10014000414141227F4141221C7F494949417F0968
:100150000901013E414151327F0808087F00417F7B
:1001600041002040413F017F081422417F40404030
:10017000407F0204027F7F0408107F3E4141413EE0
:100180007F090909063E4151215E7F09192946462A
:100190004949493101017F01013F4040403F1F2053
:1001A00040201F7F2018207F631408146303047805
:1001B0000403615149454300007F41410204081096
:1001C0002041417F000004020102044040404040C1
:1001D000000102040020545454787F4844443838C5
:1001E00044444420384444487F3854545418087ECA
:1001F000090102081454543C7F0804047800447D2B
:1002000040002040443D00007F10284400417F40D2
:10021000007C041804787C0804047838444444388A
:100220007C14141408081414187C7C08040408486E
:1002300054545420043F4440203C4040207C1C2027
:1002400040201C3C4030403C44281028440C505076
:10025000503C4464544C44000836410000007F0088
:1002600000004136080002010204027F4141417F43
:100270001027E80364000A000100001000011000CC
:100280000100000103070F1F3F7FFF004D41592070
:1002900047494154004254313A20474941540042B1
:1002A00054323A2056415400312E204749415400DF
:1002B000322E2056415400436170206E756F6300EA
:1002C00080C001002D4E414E00494E4600000900FD
:1002D00000058C020A0009059502090013059F021A
:1002E00009001C05B70202004205C00201004007D8
:1002F000C2020000F894EE27ECBBF1E0F5BFE5BFC9
:10030000E0936C008DE0A2E0BB27ED938A95E9F7BE
:1003100080E090E1A0E0B1E0ED930197E9F7EEEC29
:10032000F2E085919591009761F0A591B5910590C6
:100330001590BF01F00105900D920197E1F7FB01C7
:10034000F0CF8BBFEFEFEDBFE0E1EEBFC0E0D5E057
:100350000C941F022897ECE8F0E0E883F983EE8123
:10036000EC7FEE83E37EE061EE83EF81E078E26490
:10037000EF83DE010E94FF0428960895A4E10E9405
:1003800053040E9426040895EAE0EA93EA93A0E069
:10039000B5E00E94F408EAE0EA93E4E1EA93A9E018
:1003A000B5E00E94F408EAE0EA93EEE1EA93A3E103
:1003B000B5E00E94F4080895A097E0E0EA93A0E079
:1003C0000E941904FE017096FA93EA93E8EAF2E0BB
:1003D0000E94AA09DE0150960E944704E0E0EA93D9
:1003E000A1E00E94B109E0EBF2E00E94AA09DE015F
:1003F0000E944704A096089560970E942604E0E0BA
:10040000EA93A0E00E94B109E7EBF2E00E94AA099A
:10041000DE010E9447040E94A605EAE0EA93EA93FF
:10042000ACE1B5E00E94F408A0EDB7E00E94720ACA
:1004300060960895A0EDB7E00E94720A089511E059
:1004400001E088DF9BDFE0E0E7BBECE0E8BB9CDF9E
:10045000B3DFB29904C0E12F0E94940A1E2FB39912
:1004600004C0E02F0E94940A0E2F103029F4C4DF3C
:10047000E12F0E94940A1E2F003029F4DBDFE02FC9
:100480000E94940A0E2FE3CFFFCFBA93AA931A9338
:100490000A93AA81BB8112960E94A10A309729F182
:1004A000AA81BB8114960E94A10A8F01309761F046
:1004B0000230E0E01E0780F0F80131978F01AA8139
:1004C000BB811496ED93FC93AA81BB8112960E9486
:1004D000B7093197AC81A083AA81BB810E94A10A90
:1004E000FF2312F00E94B70906C0AA81BB81EFEF7B
:1004F000FFEFED93FC931981088125960895BA9337
:10050000AA9326970E94CA0A10E0AC85BD85E0E058
:10051000F0E0ED93FC93EA89FB893196EA8BFB8B43
:100520003197E4912E2FE03009F415C1E12FE0302E
:1005300039F4253211F411E002C00E94BD090AC14C
:10054000E130A9F4253219F40E94BD0902C112E07C
:1005500040E000E02D3211F401E0FCC02B3211F438
:100560004BE2F8C0203211F440E2F4C002C0E230A5
:1005700039F450E013E0203311F40068EBC003C0FD
:10058000E33009F0E7C0203310F02A3308F007C049
:10059000AAE05A9F502DE22FE0535E0FDBC0E22FFE
:1005A000E33649F40E94C409E889F989A481AA9331
:1005B0000E94CA09CEC0E33741F40E94C4090E94D8
:1005C000D0090E9420091E2F0AC0E03761F40E9462
:1005D000C4090E94D0090E942C091E2F08600260E5
:1005E0000F7730E034C0E43611F0E93611F40460DE
:1005F00002C0E53731F4E0E7F2E0EE83FF8315E077
:100600000CC0E83511F4086003C0E83709F0A1C058
:10061000EAE7F2E0EE83FF8314E002FF14C00E94D9
:10062000C4090E94DA09AB85AA233AF4EA85FB855E
:100630000E94800AEA87FB874DE2403011F01F5F7D
:1006400001C00B7F04C00E94C4090E94DA0900FDAA
:1006500011C0151778F407FF08C002FF04C00B7F14
:10066000242F115001C020E301C020E20E94BD09E7
:100670005150EFCF312F01FF17C03030A1F003FFF1
:1006800006C0EE81FF812591EE83FF8305C0AE8118
:10069000BF812D91AE83BF830E94BD09503009F008
:1006A00051503150EACF4BC020E3EE81FF810E94D0
:1006B000A50AE887F987EE81FF813296EE83FF83F2
:1006C000E885F985AA85BB85AE17BF0750F02F5F77
:1006D000A885B985EA85FB85EA1BFB0BEA87FB87C2
:1006E000EFCF2A3328F003FF02C0295F01C0295D44
:1006F00004FD1AC0213320F4A885B985119709F4A7
:1007000009C0531710F000FF01C013C020E207FF1B
:100710000BC020E3006102FF07C00B7F4A930E94D9
:10072000CA09503009F051500E94BD09503009F0FB
:1007300051503150A885B985129708F0B5CF00FF08
:1007400008C0503031F05150E0E2EA930E94CA09EB
:10075000F8CF10E0E0CEAC85BD850E94A10A0E94D2
:10076000D10A64960895FF92F82E26970E94CC0A2B
:100770000E94E209309719F4EFEFFFEF23C0DE018A
:1007800016960E947C0A8D010E94E209EE83FF8387
:10079000E0E0E887E987DE011A960E947C0A0E9461
:1007A000A10AFA93EA931A930A93E5E4F2E0FA9322
:1007B000EA93DE011A96A3DE9F01AE81BF81E0E0DD
:1007C000EC93F9010E94D30A2A96FF900895AA9308
:1007D000E881E07111F0DB9A01C0DB98E881E072FA
:1007E00011F0DC9A01C0DC98E881E07411F0DD9A28
:1007F00001C0DD98E881E07811F0DE9A01C0DE9852
:100800008DE08A95F1F7DA9A8DE08A95F1F7DA981A
:100810008DE08A95F1F70C94A405AA93A881D7DFFF
:10082000E881E295E883A881D2DF85E88A95F1F72F
:100830008BC1AA93E881F0E0EE5BFA4FE081A981D9
:10084000AE0FEBDF598048800C944209A2E00E9471
:10085000E909ACE0E2DFA1E00E94E909E0E04E2E08
:100860005E2E0895AA93A881AA3011F0571448F07B
:10087000E0E0EA934394A42DDCDFA881AA3009F4D8
:1008800063C15394D89AA881C8DFD8985DC1BA9340
:10089000AA931A930E94EF0919F0A12FE3DFFACF70
:1008A00018810C948909AA93D39AD49AD59AD69A86
:1008B000D29AD09AD19ADA98D898D9987880E88143
:1008C000E058E0934405E881E054E0934505A4E155
:1008D000B0E00E94720A0E94F7090E94F7090E9484
:1008E000F709A0E274DF88EC90E00197F1F7A8E245
:1008F00094DFA4E092DFA5E890DFA6E08EDFA6DF1C
:1009000023C10895AA931A93E0916500E77FE093CD
:10091000650018E0F6DFE981E07821F0E0916500FC
:10092000E26003C0E0916500ED7FE0936500E9813E
:10093000EE0FE983E6DFE0916500E460E093650097
:10094000E0DFE0916500EB7FE0936500115011F767
:10095000E0916500E860E093650018810C9442091D
:10096000AA93E0916500EE7FE0936500A881CADF5D
:10097000EBC0AA93E0916500E160E0936500A88177
:10098000C1DFE2C0AA931A93E981E695E695E69560
:100990001E2FE4E5E19FF001DF01EA81F0E0EA0FBC
:1009A000FB1FE0934605F0934705E12F18810C9457
:1009B0008909AA93E981E068AE2FD2DFE981EA9341
:1009C000A981E0DFE064AE2FCBDF0C944209AA934B
:1009D000E981EA93A981EDDFE0914605F0914705B1
:1009E000E85BFA4FE0810C944209AA930E94FF0948
:1009F0003197E85BFA4FA881A083BBDFA5C0BA930B
:100A0000AA930E94CC0AE0916400E8600E94020A66
:100A1000E860E0936500E0916400E4600E94020AEF
:100A2000EB7FE0936500E0916400E260E093640096
:100A3000E0916400E160E0936400E0916400E061B3
:100A40000E94020AEF7EE0936500AAE0B0E00E94F7
:100A5000720AE0916500E061E0936500EC81FD8140
:100A6000309721F1E681E3701E2FEC81FD81E68154
:100A7000E695E695E7700E2FEC81FD81E781EF7733
:100A80003E2FAC81BD810E94A10AE0932905F0931D
:100A90002A0512960E94A10AE0933E05F0933F05B5
:100AA000AC81BD8114960E94A10A0DC010E003E044
:100AB00032E3E0E0F0E0E0932905F0932A05E093CB
:100AC0003E05F0933F05E0934005F0934105A1E218
:100AD00047DFE12FE460AE2F43DFE02FE061AE2F70
:100AE0003FDFE32FE068AE2F3BDFA0E239DFA1E07C
:100AF00022D0E1E0E0932505E0E0E0932605E1E087
:100B0000E0932B05E0932C05E0932D05EFEFE093A8
:100B10002E05E1E0E0933505E6E3F5E0FA93EA938C
:100B2000EFEFEA93A8E0B0E00E9410090FD0E1E0F7
:100B30000E94D30A60C0AA93E881E03011F0ECE093
:100B400001C0E8E0AE2F0CDF219608950E94CC0A88
:100B500030E0E0912605E03009F03FEFE0E0EA9375
:100B6000A0E027DF08EF11E0F801015010403097B6
:100B700019F0A32F3ADFF8CFE0E0EA93A0E043D3E7
:100B80000E94D30A0C94A809AA931A93ED81EA93C0
:100B9000AD811DDF1E2FE981E73011F0E83039F417
:100BA000EB81EA93AA810E944409EB8308C0E330F9
:100BB00021F4EB81E095EB8302C0E03021F4EA817F
:100BC000E0951E2302C0E23029F4EA81AB81EA23DA
:100BD0001E2B0EC0E13029F4EA81AB81EA231E27E7
:100BE00007C0E43029F4EA81E095AB81EA2B1E23AB
:100BF000A12FFBDE188126960895AA9323970E94C1
:100C0000CA0AA889A43548F4AF85A03330F4AE856C
:100C1000A03019F0AD85A03009F4D5C1EE85E88784
:100C2000A889BB27EE85F0E0AE0FBF1FA535E0E039
:100C3000BE0720F0A889E4E5EA1BEE872D85AF8585
:100C4000BB27ED85F0E0AE0FBF1FD19720F0AF8539
:100C5000E0E3EA1BED87A985A63009F05BC0EC85CF
:100C6000E13009F4B0C1E33039F4E0914005F0918E
:100C70004105309709F4A7C10885ED85E695E6950D
:100C8000E6953E2FE22FE77019F4AD852A17E9F0BB
:100C9000A02FBB27E32FF0E00E94990AAA85BB850D
:100CA0000E94070A269526952695532F5F935F5F2E
:100CB000E22FAF91EA1748F0102FE12F1150E030EA
:100CC00019F00E940C0AF9CFF1CFAE850A1711F185
:100CD000EE85AA85BB85F0E00E94070AED85E770E6
:100CE00009F03F5F20E02F932F5FE32FAF91AE1706
:100CF00088F41E851F931F5FE02FAF91AE1718F485
:100D00000E940C0AF7CFEE85AE81BF81F0E00E9411
:100D1000070AE9CFEF85E7703E2FED85E03009F453
:100D200052C1EA85FB85EE83FF8310E008893030ED
:100D300009F066C0AD85A83008F45DC0E985E030F3
:100D400011F0E33009F402C0E73009F402C0E830E2
:100D500009F402C0E93009F402C0EA3021F40A9330
:100D6000A88927DE04C0E63011F40E94190A1F93F7
:100D70001F5FEE85AF91AE17B8F5A985A63069F46F
:100D80000E941D0AFA93EA930E94FF093197E85BDB
:100D9000FA4FA0810E948B0926C0E985E93011F441
:100DA00050E00EC0EA3011F45FEF0AC00E941D0A45
:100DB0000E94260A5E2FE985E73011F0E83021F421
:100DC0000E942C0A5E2F06C0E33011F4509502C039
:100DD000E03019F4A52FCDDD06C00E94300AEFEFF8
:100DE000EA93AD85D1DEC3CFEF85E85FEF87ED8570
:100DF000E850ED87DFC05D8520E0E0E0ED8781C051
:100E0000E32FAD85AE0FA93020F42D85E0E0ED870E
:100E100003C0E8E0E31B2E2F3A93A22F0E9439096A
:100E20004E2FE985E63029F50E94190A1F931F5FAE
:100E3000EE85AF91AE17E0F40E94FF093197E85BB1
:100E4000FA4FE081E423AE2FE32F0E948C0A0E9428
:100E5000360AE32FA42F0E948C0AE095E1215E2B35
:100E60000E941D0AFA93EA93A52F0E948B09DECFF8
:100E70002CC0E93011F450E003C0EA30A9F45FEF70
:100E80000E942C0AAE2FE32F0E94840A5E2F1F932C
:100E90001F5FEE85AF91AE1730F40E94300A4A937F
:100EA000A0E072DEF4CF11C01F931F5FEE85AF91FB
:100EB000AE1758F40E94410AAE2FE32F0E94840A15
:100EC000EA934A93AD8560DEEFCFED85E03009F41B
:100ED0007AC0AD85A83028F4ED85E21B5E2FE0E0F6
:100EE00003C0532FED85E850ED8710E0EF85E85FF4
:100EF000EF87E8E0E31B2E2F0889EA85FB85EE8368
:100F0000FF83E52FF0E0EE57FD4F4491E985E63091
:100F100029F50E94190A1F931F5FEE85AF91AE1746
:100F2000E0F40E94FF093197E85BFA4FE081E42387
:100F3000AE2FE22F0E94840A0E94360AE22FA42FCD
:100F40000E94840AE095E1215E2B0E941D0AFA931B
:100F5000EA93A52F0E948B09DECF2CC0E93011F453
:100F600050E003C0EA30A9F45FEF0E942C0AAE2FD4
:100F7000E22F0E948C0A5E2F1F931F5FEE85AF91B8
:100F8000AE1730F40E94300A4A93A0E0FDDDF4CFA2
:100F900011C01F931F5FEE85AF91AE1758F40E94EA
:100FA000410AAE2FE22F0E948C0AEA934A93AD8544
:100FB000EBDDEFCFE885AA85BB85F0E0EA0FFB1FEC
:100FC000EA87FB87AACE0E94D10A619608950E9403
:100FD0004E0A24F0E0E0F0E00C944209A881B981C7
:100FE000A435E0E0BE0724F0E3E5F0E00C9442090C
:100FF000E881F9810C9442090E944E0A24F0E0E055
:10100000F0E00C944209A881B981D09724F0EFE276
:10101000F0E00C944209E881F9810C944209BA93FA
:10102000AA9323970E94550A8F01002E012A19F4D2
:10103000E0E0F0E05FC00E945C0A0F820E945C0A60
:101040000E820E945C0A0886EB85A885EA1718F4D0
:10105000E0E0F0E04FC0F8010F5F1F4F5491A8850A
:10106000BB27EE27A50FBE1FEB85F0E0EA17FB07B5
:1010700018F0E0E0F0E03EC0EE81E695E695E695FA
:101080004E2FEE81E77009F04F5FEF81E030A1F065
:10109000A985BA85EC93A885EB85EA1BF0E0DF0112
:1010A000EF81F0E00E94990ADF01E42FF0E00E9456
:1010B000990AE00FF11F1EC09801E52FF0E00E0F16
:1010C0001F1FA885AF5FA887A150EB85AE1760F4FE
:1010D000F9012F5F3F4FA491B0E0E42FF0E00E94B0
:1010E000990A0E0F1F1FEDCFF901E491A985BA856A
:1010F000EC93F8010E94D10A2C960895E0E0E09369
:101100002705A0912805BB270E94610AF0E0AE0FD9
:10111000BF1FE0912C05F0E0AE0FBF1F6DDFE09325
:1011200028050895AA9321970E94550A309709F43B
:1011300055C0AF81AA3009F44FC0EF81EA93DE01B8
:1011400017966DDFAF01309709F44AC0E0912B0587
:10115000AE81EA0F3E2FA0912705BB27F0E0EA0FF2
:10116000FB1F8F010535E0E01E0718F0032F112744
:10117000C5DFE0912705EA93E0912805EA93E88529
:10118000EA930E94610AEA93E1E0EA935A934A9350
:10119000A7E033DDE0912705AE81EA0FEA93E09105
:1011A0002805EA93E0912B05EA930E94610A0E94C8
:1011B000680AE0912705EA93A09128050E94610A38
:1011C000EA0FEA933A93E0912C050E94680AE4E55D
:1011D000F0E0E017F10711F491DF02C0009327055A
:1011E0000E94D10A28960895BA93AA931A93EC8183
:1011F000EA93AC8108D00E94EF0919F0A12F92DF89
:10120000FACF18811BC0AA93A981BB27E0DEE09327
:101210002705A881BB27F0DEE09328050C9442093E
:10122000BA93AA93B981A881109631F0FC81EB8121
:101230006A8161931197E9F7EB81FC812596089506
:10124000BA93AA93A991B991EE27FF276D916623CE
:1012500011F03196FBCF0895BA93AA93AA27BB2722
:10126000E991F9910590002011F01196FBCFFD0155
:101270000895AA93E881F0E0EE57FD4FA491E9812B
:101280000E94840A22960895AA931A93E981E7306E
:1012900011F0EA3019F41091250509C0E93019F46C
:1012A0001091260504C0E830A1F410913505E091B5
:1012B0002605E03049F0103019F0EFEF188129C011
:1012C000EA81E095188125C0103019F4E0E018811A
:1012D00020C0EA8118811DC0BA93AA93EA81E13047
:1012E00021F4E881F981E49114C0E23029F4A88165
:1012F000B9810E94A90A0DC0E33041F4A881B981E7
:10130000E0913E05F0913F05099503C0A881B981A0
:10131000EC9123960895AA93EB81E03029F4E881BB
:10132000A981BA81EC9314C0E23031F4E881A9813B
:10133000BA810E94B50A0CC0E33051F4E981FA8108
:10134000FA93EA93AA81E0914005F091410509954D
:1013500024960895FA93EA9380E00E94B3032496BA
:1013600008950E941904FE01FA93EA930895ED91FD
:10137000FD913196FE93EE9308952A93AD85BE8537
:10138000EF85F88909950895E889F9893497E88BFC
:10139000F98B0895AD85BE85EF85F8890995089587
:1013A000A889B98914960E94A10AEE83FF83AE81B1
:1013B000BF810895A889B98914960E94A10AEA8775
:1013C000FB870895DE011C960E947C0A0E94A10AF8
:1013D00008950E940D04A3E0B0E00C94720AA98164
:1013E000BA81ED91A983BA831E2FE0300895A0E35E
:1013F0000E94E70388EC90E00197F1F70895A6E4D6
:10140000B5E0B5CFE0936400E09165000895EA0F80
:10141000FB1FEE83FF830895EC85EA93EF81F88547
:101420003196EF83F8873197FA93EA93A0E00C9412
:101430008B090A93A8890C94C204EC85EA93EF8186
:10144000F8853196EF83F8873197089566277727D7
:10145000DF01CB010C946C095A93AA850C944409C2
:101460000A930395E889EA935A9308955E2FEC85D1
:10147000EA93AF81B885882799270E946C091E2EB0
:1014800008950A930395E889EA93EE85EA93E9853E
:10149000FA853196E987FA873197D8CFBA93AA931C
:1014A000A881B9810E94C60A08950E94CA0AE091E3
:1014B0002905F0912A050895F8010F5F1F4F049048
:1014C0000895E0912905F0912A053196E491089557
:1014D000EA93E0E0EA93E0E0F0E0FA93EA93A9E02F
:1014E0000C94FD05109639F080ED97E00197F1F727
:1014F000A8951197C9F708950024AF0DB01D089560
:10150000F195E195F0400895EE230E2EEA2F19F0A3
:10151000EE0F0A94E9F70895EE230E2EEA2F19F044
:10152000E6950A94E9F70895EE23E1E009F0EE2745
:101530000895FA9FF02DEB9FF00DEA9FE02DF10D3D
:101540000895ED91FC91119708950590F491E02D87
:101550000895E199FECFFF93FFB7F894AEBBBFBBF0
:10156000E09AEDB3FFBFFF910895E19B02C0A895FB
:10157000FCCF9FB7F894AEBBBFBBE09A8DB3E81722
:1015800019F0EDBBE29AE19A9FBF089500240A1674
:101590000B0608955A934A933A932A931A930A93FF
:1015A00008955D814C813B812A81198108810895CC
:00000001FF
